{
	"vote.sol": {
		"VotePlaces": {
			"abi": [
				{
					"inputs": [
						{
							"internalType": "string[]",
							"name": "_places",
							"type": "string[]"
						}
					],
					"stateMutability": "nonpayable",
					"type": "constructor"
				},
				{
					"anonymous": false,
					"inputs": [
						{
							"indexed": false,
							"internalType": "address",
							"name": "_userAddress",
							"type": "address"
						},
						{
							"indexed": false,
							"internalType": "uint256",
							"name": "placeIndex",
							"type": "uint256"
						},
						{
							"indexed": false,
							"internalType": "uint256",
							"name": "money",
							"type": "uint256"
						}
					],
					"name": "Voted",
					"type": "event"
				},
				{
					"stateMutability": "payable",
					"type": "fallback"
				},
				{
					"inputs": [],
					"name": "finishVote",
					"outputs": [],
					"stateMutability": "nonpayable",
					"type": "function"
				},
				{
					"inputs": [],
					"name": "getAllPlaces",
					"outputs": [
						{
							"components": [
								{
									"internalType": "string",
									"name": "name",
									"type": "string"
								},
								{
									"internalType": "uint256",
									"name": "voteNumber",
									"type": "uint256"
								}
							],
							"internalType": "struct VotePlaces.Place[]",
							"name": "",
							"type": "tuple[]"
						}
					],
					"stateMutability": "view",
					"type": "function"
				},
				{
					"inputs": [],
					"name": "getAllUsers",
					"outputs": [
						{
							"components": [
								{
									"internalType": "address",
									"name": "userAddress",
									"type": "address"
								},
								{
									"internalType": "bool",
									"name": "hasVoted",
									"type": "bool"
								},
								{
									"components": [
										{
											"internalType": "string",
											"name": "name",
											"type": "string"
										},
										{
											"internalType": "uint256",
											"name": "voteNumber",
											"type": "uint256"
										}
									],
									"internalType": "struct VotePlaces.Place",
									"name": "votedPlace",
									"type": "tuple"
								}
							],
							"internalType": "struct VotePlaces.User[]",
							"name": "",
							"type": "tuple[]"
						}
					],
					"stateMutability": "view",
					"type": "function"
				},
				{
					"inputs": [],
					"name": "getWinnerPlace",
					"outputs": [
						{
							"components": [
								{
									"internalType": "string",
									"name": "name",
									"type": "string"
								},
								{
									"internalType": "uint256",
									"name": "voteNumber",
									"type": "uint256"
								}
							],
							"internalType": "struct VotePlaces.Place",
							"name": "",
							"type": "tuple"
						}
					],
					"stateMutability": "view",
					"type": "function"
				},
				{
					"inputs": [
						{
							"internalType": "address",
							"name": "",
							"type": "address"
						}
					],
					"name": "hasVoted",
					"outputs": [
						{
							"internalType": "bool",
							"name": "",
							"type": "bool"
						}
					],
					"stateMutability": "view",
					"type": "function"
				},
				{
					"inputs": [],
					"name": "isVoteActive",
					"outputs": [
						{
							"internalType": "bool",
							"name": "",
							"type": "bool"
						}
					],
					"stateMutability": "view",
					"type": "function"
				},
				{
					"inputs": [],
					"name": "moneyAddress",
					"outputs": [
						{
							"internalType": "address payable",
							"name": "",
							"type": "address"
						}
					],
					"stateMutability": "view",
					"type": "function"
				},
				{
					"inputs": [],
					"name": "owner",
					"outputs": [
						{
							"internalType": "address",
							"name": "",
							"type": "address"
						}
					],
					"stateMutability": "view",
					"type": "function"
				},
				{
					"inputs": [
						{
							"internalType": "uint256",
							"name": "",
							"type": "uint256"
						}
					],
					"name": "places",
					"outputs": [
						{
							"internalType": "string",
							"name": "name",
							"type": "string"
						},
						{
							"internalType": "uint256",
							"name": "voteNumber",
							"type": "uint256"
						}
					],
					"stateMutability": "view",
					"type": "function"
				},
				{
					"inputs": [],
					"name": "startVote",
					"outputs": [],
					"stateMutability": "nonpayable",
					"type": "function"
				},
				{
					"inputs": [
						{
							"internalType": "uint256",
							"name": "",
							"type": "uint256"
						}
					],
					"name": "users",
					"outputs": [
						{
							"internalType": "address",
							"name": "userAddress",
							"type": "address"
						},
						{
							"internalType": "bool",
							"name": "hasVoted",
							"type": "bool"
						},
						{
							"components": [
								{
									"internalType": "string",
									"name": "name",
									"type": "string"
								},
								{
									"internalType": "uint256",
									"name": "voteNumber",
									"type": "uint256"
								}
							],
							"internalType": "struct VotePlaces.Place",
							"name": "votedPlace",
							"type": "tuple"
						}
					],
					"stateMutability": "view",
					"type": "function"
				},
				{
					"inputs": [
						{
							"internalType": "uint256",
							"name": "voteIndex",
							"type": "uint256"
						}
					],
					"name": "vote",
					"outputs": [],
					"stateMutability": "payable",
					"type": "function"
				},
				{
					"stateMutability": "payable",
					"type": "receive"
				}
			],
			"devdoc": {
				"kind": "dev",
				"methods": {},
				"version": 1
			},
			"evm": {
				"assembly": "    /* \"vote.sol\":63:3439  contract VotePlaces {... */\n  mstore(0x40, 0x80)\n    /* \"vote.sol\":1494:1723  constructor(string[] memory _places) {... */\n  callvalue\n  dup1\n  iszero\n  tag_1\n  jumpi\n  0x00\n  dup1\n  revert\ntag_1:\n  pop\n  mload(0x40)\n  sub(codesize, bytecodeSize)\n  dup1\n  bytecodeSize\n  dup4\n  codecopy\n  dup2\n  dup2\n  add\n  0x40\n  mstore\n  dup2\n  add\n  swap1\n  tag_2\n  swap2\n  swap1\n  tag_3\n  jump\t// in\ntag_2:\n    /* \"vote.sol\":1558:1568  msg.sender */\n  caller\n    /* \"vote.sol\":1542:1547  owner */\n  0x03\n  0x01\n    /* \"vote.sol\":1542:1569  owner = payable(msg.sender) */\n  0x0100\n  exp\n  dup2\n  sload\n  dup2\n  0xffffffffffffffffffffffffffffffffffffffff\n  mul\n  not\n  and\n  swap1\n  dup4\n  0xffffffffffffffffffffffffffffffffffffffff\n  and\n  mul\n  or\n  swap1\n  sstore\n  pop\n    /* \"vote.sol\":1595:1599  true */\n  0x01\n    /* \"vote.sol\":1580:1592  isVoteActive */\n  0x03\n  0x00\n    /* \"vote.sol\":1580:1599  isVoteActive = true */\n  0x0100\n  exp\n  dup2\n  sload\n  dup2\n  0xff\n  mul\n  not\n  and\n  swap1\n  dup4\n  iszero\n  iszero\n  mul\n  or\n  swap1\n  sstore\n  pop\n    /* \"vote.sol\":1616:1625  uint256 i */\n  0x00\n    /* \"vote.sol\":1612:1716  for(uint256 i = 0; i < _places.length; i++) {... */\ntag_6:\n    /* \"vote.sol\":1635:1642  _places */\n  dup2\n    /* \"vote.sol\":1635:1649  _places.length */\n  mload\n    /* \"vote.sol\":1631:1632  i */\n  dup2\n    /* \"vote.sol\":1631:1649  i < _places.length */\n  lt\n    /* \"vote.sol\":1612:1716  for(uint256 i = 0; i < _places.length; i++) {... */\n  iszero\n  tag_7\n  jumpi\n    /* \"vote.sol\":1671:1677  places */\n  0x00\n    /* \"vote.sol\":1683:1703  Place(_places[i], 0) */\n  mload(0x40)\n  dup1\n  0x40\n  add\n  0x40\n  mstore\n  dup1\n    /* \"vote.sol\":1689:1696  _places */\n  dup5\n    /* \"vote.sol\":1697:1698  i */\n  dup5\n    /* \"vote.sol\":1689:1699  _places[i] */\n  dup2\n  mload\n  dup2\n  lt\n  tag_9\n  jumpi\n  tag_10\n  tag_11\n  jump\t// in\ntag_10:\ntag_9:\n  0x20\n  mul\n  0x20\n  add\n  add\n  mload\n    /* \"vote.sol\":1683:1703  Place(_places[i], 0) */\n  dup2\n  mstore\n  0x20\n  add\n    /* \"vote.sol\":1701:1702  0 */\n  0x00\n    /* \"vote.sol\":1683:1703  Place(_places[i], 0) */\n  dup2\n  mstore\n  pop\n    /* \"vote.sol\":1671:1704  places.push(Place(_places[i], 0)) */\n  swap1\n  dup1\n  0x01\n  dup2\n  sload\n  add\n  dup1\n  dup3\n  sstore\n  dup1\n  swap2\n  pop\n  pop\n  0x01\n  swap1\n  sub\n  swap1\n  0x00\n  mstore\n  keccak256(0x00, 0x20)\n  swap1\n  0x02\n  mul\n  add\n  0x00\n  swap1\n  swap2\n  swap1\n  swap2\n  swap1\n  swap2\n  pop\n  0x00\n  dup3\n  add\n  mload\n  dup2\n  0x00\n  add\n  swap1\n  dup2\n  tag_13\n  swap2\n  swap1\n  tag_14\n  jump\t// in\ntag_13:\n  pop\n  0x20\n  dup3\n  add\n  mload\n  dup2\n  0x01\n  add\n  sstore\n  pop\n  pop\n    /* \"vote.sol\":1651:1654  i++ */\n  dup1\n  dup1\n  0x01\n  add\n  swap2\n  pop\n  pop\n    /* \"vote.sol\":1612:1716  for(uint256 i = 0; i < _places.length; i++) {... */\n  jump(tag_6)\ntag_7:\n  pop\n    /* \"vote.sol\":1494:1723  constructor(string[] memory _places) {... */\n  pop\n    /* \"vote.sol\":63:3439  contract VotePlaces {... */\n  jump(tag_15)\n    /* \"#utility.yul\":7:82   */\ntag_16:\n    /* \"#utility.yul\":40:46   */\n  0x00\n    /* \"#utility.yul\":73:75   */\n  0x40\n    /* \"#utility.yul\":67:76   */\n  mload\n    /* \"#utility.yul\":57:76   */\n  swap1\n  pop\n    /* \"#utility.yul\":7:82   */\n  swap1\n  jump\t// out\n    /* \"#utility.yul\":88:205   */\ntag_17:\n    /* \"#utility.yul\":197:198   */\n  0x00\n    /* \"#utility.yul\":194:195   */\n  dup1\n    /* \"#utility.yul\":187:199   */\n  revert\n    /* \"#utility.yul\":211:328   */\ntag_18:\n    /* \"#utility.yul\":320:321   */\n  0x00\n    /* \"#utility.yul\":317:318   */\n  dup1\n    /* \"#utility.yul\":310:322   */\n  revert\n    /* \"#utility.yul\":334:451   */\ntag_19:\n    /* \"#utility.yul\":443:444   */\n  0x00\n    /* \"#utility.yul\":440:441   */\n  dup1\n    /* \"#utility.yul\":433:445   */\n  revert\n    /* \"#utility.yul\":457:559   */\ntag_20:\n    /* \"#utility.yul\":498:504   */\n  0x00\n    /* \"#utility.yul\":549:551   */\n  0x1f\n    /* \"#utility.yul\":545:552   */\n  not\n    /* \"#utility.yul\":540:542   */\n  0x1f\n    /* \"#utility.yul\":533:538   */\n  dup4\n    /* \"#utility.yul\":529:543   */\n  add\n    /* \"#utility.yul\":525:553   */\n  and\n    /* \"#utility.yul\":515:553   */\n  swap1\n  pop\n    /* \"#utility.yul\":457:559   */\n  swap2\n  swap1\n  pop\n  jump\t// out\n    /* \"#utility.yul\":565:745   */\ntag_21:\n    /* \"#utility.yul\":613:690   */\n  0x4e487b7100000000000000000000000000000000000000000000000000000000\n    /* \"#utility.yul\":610:611   */\n  0x00\n    /* \"#utility.yul\":603:691   */\n  mstore\n    /* \"#utility.yul\":710:714   */\n  0x41\n    /* \"#utility.yul\":707:708   */\n  0x04\n    /* \"#utility.yul\":700:715   */\n  mstore\n    /* \"#utility.yul\":734:738   */\n  0x24\n    /* \"#utility.yul\":731:732   */\n  0x00\n    /* \"#utility.yul\":724:739   */\n  revert\n    /* \"#utility.yul\":751:1032   */\ntag_22:\n    /* \"#utility.yul\":834:861   */\n  tag_60\n    /* \"#utility.yul\":856:860   */\n  dup3\n    /* \"#utility.yul\":834:861   */\n  tag_20\n  jump\t// in\ntag_60:\n    /* \"#utility.yul\":826:832   */\n  dup2\n    /* \"#utility.yul\":822:862   */\n  add\n    /* \"#utility.yul\":964:970   */\n  dup2\n    /* \"#utility.yul\":952:962   */\n  dup2\n    /* \"#utility.yul\":949:971   */\n  lt\n    /* \"#utility.yul\":928:946   */\n  0xffffffffffffffff\n    /* \"#utility.yul\":916:926   */\n  dup3\n    /* \"#utility.yul\":913:947   */\n  gt\n    /* \"#utility.yul\":910:972   */\n  or\n    /* \"#utility.yul\":907:995   */\n  iszero\n  tag_61\n  jumpi\n    /* \"#utility.yul\":975:993   */\n  tag_62\n  tag_21\n  jump\t// in\ntag_62:\n    /* \"#utility.yul\":907:995   */\ntag_61:\n    /* \"#utility.yul\":1015:1025   */\n  dup1\n    /* \"#utility.yul\":1011:1013   */\n  0x40\n    /* \"#utility.yul\":1004:1026   */\n  mstore\n    /* \"#utility.yul\":794:1032   */\n  pop\n    /* \"#utility.yul\":751:1032   */\n  pop\n  pop\n  jump\t// out\n    /* \"#utility.yul\":1038:1167   */\ntag_23:\n    /* \"#utility.yul\":1072:1078   */\n  0x00\n    /* \"#utility.yul\":1099:1119   */\n  tag_64\n  tag_16\n  jump\t// in\ntag_64:\n    /* \"#utility.yul\":1089:1119   */\n  swap1\n  pop\n    /* \"#utility.yul\":1128:1161   */\n  tag_65\n    /* \"#utility.yul\":1156:1160   */\n  dup3\n    /* \"#utility.yul\":1148:1154   */\n  dup3\n    /* \"#utility.yul\":1128:1161   */\n  tag_22\n  jump\t// in\ntag_65:\n    /* \"#utility.yul\":1038:1167   */\n  swap2\n  swap1\n  pop\n  jump\t// out\n    /* \"#utility.yul\":1173:1494   */\ntag_24:\n    /* \"#utility.yul\":1260:1264   */\n  0x00\n    /* \"#utility.yul\":1350:1368   */\n  0xffffffffffffffff\n    /* \"#utility.yul\":1342:1348   */\n  dup3\n    /* \"#utility.yul\":1339:1369   */\n  gt\n    /* \"#utility.yul\":1336:1392   */\n  iszero\n  tag_67\n  jumpi\n    /* \"#utility.yul\":1372:1390   */\n  tag_68\n  tag_21\n  jump\t// in\ntag_68:\n    /* \"#utility.yul\":1336:1392   */\ntag_67:\n    /* \"#utility.yul\":1422:1426   */\n  0x20\n    /* \"#utility.yul\":1414:1420   */\n  dup3\n    /* \"#utility.yul\":1410:1427   */\n  mul\n    /* \"#utility.yul\":1402:1427   */\n  swap1\n  pop\n    /* \"#utility.yul\":1482:1486   */\n  0x20\n    /* \"#utility.yul\":1476:1480   */\n  dup2\n    /* \"#utility.yul\":1472:1487   */\n  add\n    /* \"#utility.yul\":1464:1487   */\n  swap1\n  pop\n    /* \"#utility.yul\":1173:1494   */\n  swap2\n  swap1\n  pop\n  jump\t// out\n    /* \"#utility.yul\":1500:1617   */\ntag_25:\n    /* \"#utility.yul\":1609:1610   */\n  0x00\n    /* \"#utility.yul\":1606:1607   */\n  dup1\n    /* \"#utility.yul\":1599:1611   */\n  revert\n    /* \"#utility.yul\":1623:1740   */\ntag_26:\n    /* \"#utility.yul\":1732:1733   */\n  0x00\n    /* \"#utility.yul\":1729:1730   */\n  dup1\n    /* \"#utility.yul\":1722:1734   */\n  revert\n    /* \"#utility.yul\":1746:2054   */\ntag_27:\n    /* \"#utility.yul\":1808:1812   */\n  0x00\n    /* \"#utility.yul\":1898:1916   */\n  0xffffffffffffffff\n    /* \"#utility.yul\":1890:1896   */\n  dup3\n    /* \"#utility.yul\":1887:1917   */\n  gt\n    /* \"#utility.yul\":1884:1940   */\n  iszero\n  tag_72\n  jumpi\n    /* \"#utility.yul\":1920:1938   */\n  tag_73\n  tag_21\n  jump\t// in\ntag_73:\n    /* \"#utility.yul\":1884:1940   */\ntag_72:\n    /* \"#utility.yul\":1958:1987   */\n  tag_74\n    /* \"#utility.yul\":1980:1986   */\n  dup3\n    /* \"#utility.yul\":1958:1987   */\n  tag_20\n  jump\t// in\ntag_74:\n    /* \"#utility.yul\":1950:1987   */\n  swap1\n  pop\n    /* \"#utility.yul\":2042:2046   */\n  0x20\n    /* \"#utility.yul\":2036:2040   */\n  dup2\n    /* \"#utility.yul\":2032:2047   */\n  add\n    /* \"#utility.yul\":2024:2047   */\n  swap1\n  pop\n    /* \"#utility.yul\":1746:2054   */\n  swap2\n  swap1\n  pop\n  jump\t// out\n    /* \"#utility.yul\":2060:2306   */\ntag_28:\n    /* \"#utility.yul\":2141:2142   */\n  0x00\n    /* \"#utility.yul\":2151:2264   */\ntag_76:\n    /* \"#utility.yul\":2165:2171   */\n  dup4\n    /* \"#utility.yul\":2162:2163   */\n  dup2\n    /* \"#utility.yul\":2159:2172   */\n  lt\n    /* \"#utility.yul\":2151:2264   */\n  iszero\n  tag_78\n  jumpi\n    /* \"#utility.yul\":2250:2251   */\n  dup1\n    /* \"#utility.yul\":2245:2248   */\n  dup3\n    /* \"#utility.yul\":2241:2252   */\n  add\n    /* \"#utility.yul\":2235:2253   */\n  mload\n    /* \"#utility.yul\":2231:2232   */\n  dup2\n    /* \"#utility.yul\":2226:2229   */\n  dup5\n    /* \"#utility.yul\":2222:2233   */\n  add\n    /* \"#utility.yul\":2215:2254   */\n  mstore\n    /* \"#utility.yul\":2187:2189   */\n  0x20\n    /* \"#utility.yul\":2184:2185   */\n  dup2\n    /* \"#utility.yul\":2180:2190   */\n  add\n    /* \"#utility.yul\":2175:2190   */\n  swap1\n  pop\n    /* \"#utility.yul\":2151:2264   */\n  jump(tag_76)\ntag_78:\n    /* \"#utility.yul\":2298:2299   */\n  0x00\n    /* \"#utility.yul\":2289:2295   */\n  dup5\n    /* \"#utility.yul\":2284:2287   */\n  dup5\n    /* \"#utility.yul\":2280:2296   */\n  add\n    /* \"#utility.yul\":2273:2300   */\n  mstore\n    /* \"#utility.yul\":2122:2306   */\n  pop\n    /* \"#utility.yul\":2060:2306   */\n  pop\n  pop\n  pop\n  jump\t// out\n    /* \"#utility.yul\":2312:2746   */\ntag_29:\n    /* \"#utility.yul\":2401:2406   */\n  0x00\n    /* \"#utility.yul\":2426:2492   */\n  tag_80\n    /* \"#utility.yul\":2442:2491   */\n  tag_81\n    /* \"#utility.yul\":2484:2490   */\n  dup5\n    /* \"#utility.yul\":2442:2491   */\n  tag_27\n  jump\t// in\ntag_81:\n    /* \"#utility.yul\":2426:2492   */\n  tag_23\n  jump\t// in\ntag_80:\n    /* \"#utility.yul\":2417:2492   */\n  swap1\n  pop\n    /* \"#utility.yul\":2515:2521   */\n  dup3\n    /* \"#utility.yul\":2508:2513   */\n  dup2\n    /* \"#utility.yul\":2501:2522   */\n  mstore\n    /* \"#utility.yul\":2553:2557   */\n  0x20\n    /* \"#utility.yul\":2546:2551   */\n  dup2\n    /* \"#utility.yul\":2542:2558   */\n  add\n    /* \"#utility.yul\":2591:2594   */\n  dup5\n    /* \"#utility.yul\":2582:2588   */\n  dup5\n    /* \"#utility.yul\":2577:2580   */\n  dup5\n    /* \"#utility.yul\":2573:2589   */\n  add\n    /* \"#utility.yul\":2570:2595   */\n  gt\n    /* \"#utility.yul\":2567:2679   */\n  iszero\n  tag_82\n  jumpi\n    /* \"#utility.yul\":2598:2677   */\n  tag_83\n  tag_26\n  jump\t// in\ntag_83:\n    /* \"#utility.yul\":2567:2679   */\ntag_82:\n    /* \"#utility.yul\":2688:2740   */\n  tag_84\n    /* \"#utility.yul\":2733:2739   */\n  dup5\n    /* \"#utility.yul\":2728:2731   */\n  dup3\n    /* \"#utility.yul\":2723:2726   */\n  dup6\n    /* \"#utility.yul\":2688:2740   */\n  tag_28\n  jump\t// in\ntag_84:\n    /* \"#utility.yul\":2407:2746   */\n  pop\n    /* \"#utility.yul\":2312:2746   */\n  swap4\n  swap3\n  pop\n  pop\n  pop\n  jump\t// out\n    /* \"#utility.yul\":2766:3121   */\ntag_30:\n    /* \"#utility.yul\":2833:2838   */\n  0x00\n    /* \"#utility.yul\":2882:2885   */\n  dup3\n    /* \"#utility.yul\":2875:2879   */\n  0x1f\n    /* \"#utility.yul\":2867:2873   */\n  dup4\n    /* \"#utility.yul\":2863:2880   */\n  add\n    /* \"#utility.yul\":2859:2886   */\n  slt\n    /* \"#utility.yul\":2849:2971   */\n  tag_86\n  jumpi\n    /* \"#utility.yul\":2890:2969   */\n  tag_87\n  tag_19\n  jump\t// in\ntag_87:\n    /* \"#utility.yul\":2849:2971   */\ntag_86:\n    /* \"#utility.yul\":3000:3006   */\n  dup2\n    /* \"#utility.yul\":2994:3007   */\n  mload\n    /* \"#utility.yul\":3025:3115   */\n  tag_88\n    /* \"#utility.yul\":3111:3114   */\n  dup5\n    /* \"#utility.yul\":3103:3109   */\n  dup3\n    /* \"#utility.yul\":3096:3100   */\n  0x20\n    /* \"#utility.yul\":3088:3094   */\n  dup7\n    /* \"#utility.yul\":3084:3101   */\n  add\n    /* \"#utility.yul\":3025:3115   */\n  tag_29\n  jump\t// in\ntag_88:\n    /* \"#utility.yul\":3016:3115   */\n  swap2\n  pop\n    /* \"#utility.yul\":2839:3121   */\n  pop\n    /* \"#utility.yul\":2766:3121   */\n  swap3\n  swap2\n  pop\n  pop\n  jump\t// out\n    /* \"#utility.yul\":3143:4103   */\ntag_31:\n    /* \"#utility.yul\":3260:3265   */\n  0x00\n    /* \"#utility.yul\":3285:3376   */\n  tag_90\n    /* \"#utility.yul\":3301:3375   */\n  tag_91\n    /* \"#utility.yul\":3368:3374   */\n  dup5\n    /* \"#utility.yul\":3301:3375   */\n  tag_24\n  jump\t// in\ntag_91:\n    /* \"#utility.yul\":3285:3376   */\n  tag_23\n  jump\t// in\ntag_90:\n    /* \"#utility.yul\":3276:3376   */\n  swap1\n  pop\n    /* \"#utility.yul\":3396:3401   */\n  dup1\n    /* \"#utility.yul\":3425:3431   */\n  dup4\n    /* \"#utility.yul\":3418:3423   */\n  dup3\n    /* \"#utility.yul\":3411:3432   */\n  mstore\n    /* \"#utility.yul\":3459:3463   */\n  0x20\n    /* \"#utility.yul\":3452:3457   */\n  dup3\n    /* \"#utility.yul\":3448:3464   */\n  add\n    /* \"#utility.yul\":3441:3464   */\n  swap1\n  pop\n    /* \"#utility.yul\":3512:3516   */\n  0x20\n    /* \"#utility.yul\":3504:3510   */\n  dup5\n    /* \"#utility.yul\":3500:3517   */\n  mul\n    /* \"#utility.yul\":3492:3498   */\n  dup4\n    /* \"#utility.yul\":3488:3518   */\n  add\n    /* \"#utility.yul\":3541:3544   */\n  dup6\n    /* \"#utility.yul\":3533:3539   */\n  dup2\n    /* \"#utility.yul\":3530:3545   */\n  gt\n    /* \"#utility.yul\":3527:3649   */\n  iszero\n  tag_92\n  jumpi\n    /* \"#utility.yul\":3560:3639   */\n  tag_93\n  tag_25\n  jump\t// in\ntag_93:\n    /* \"#utility.yul\":3527:3649   */\ntag_92:\n    /* \"#utility.yul\":3675:3681   */\n  dup4\n    /* \"#utility.yul\":3658:4097   */\ntag_94:\n    /* \"#utility.yul\":3692:3698   */\n  dup2\n    /* \"#utility.yul\":3687:3690   */\n  dup2\n    /* \"#utility.yul\":3684:3699   */\n  lt\n    /* \"#utility.yul\":3658:4097   */\n  iszero\n  tag_96\n  jumpi\n    /* \"#utility.yul\":3774:3777   */\n  dup1\n    /* \"#utility.yul\":3768:3778   */\n  mload\n    /* \"#utility.yul\":3810:3828   */\n  0xffffffffffffffff\n    /* \"#utility.yul\":3797:3808   */\n  dup2\n    /* \"#utility.yul\":3794:3829   */\n  gt\n    /* \"#utility.yul\":3791:3913   */\n  iszero\n  tag_97\n  jumpi\n    /* \"#utility.yul\":3832:3911   */\n  tag_98\n  tag_19\n  jump\t// in\ntag_98:\n    /* \"#utility.yul\":3791:3913   */\ntag_97:\n    /* \"#utility.yul\":3956:3967   */\n  dup1\n    /* \"#utility.yul\":3948:3954   */\n  dup7\n    /* \"#utility.yul\":3944:3968   */\n  add\n    /* \"#utility.yul\":3994:4052   */\n  tag_99\n    /* \"#utility.yul\":4048:4051   */\n  dup10\n    /* \"#utility.yul\":4036:4046   */\n  dup3\n    /* \"#utility.yul\":3994:4052   */\n  tag_30\n  jump\t// in\ntag_99:\n    /* \"#utility.yul\":3989:3992   */\n  dup6\n    /* \"#utility.yul\":3982:4053   */\n  mstore\n    /* \"#utility.yul\":4082:4086   */\n  0x20\n    /* \"#utility.yul\":4077:4080   */\n  dup6\n    /* \"#utility.yul\":4073:4087   */\n  add\n    /* \"#utility.yul\":4066:4087   */\n  swap5\n  pop\n    /* \"#utility.yul\":3734:4097   */\n  pop\n  pop\n    /* \"#utility.yul\":3718:3722   */\n  0x20\n    /* \"#utility.yul\":3713:3716   */\n  dup2\n    /* \"#utility.yul\":3709:3723   */\n  add\n    /* \"#utility.yul\":3702:3723   */\n  swap1\n  pop\n    /* \"#utility.yul\":3658:4097   */\n  jump(tag_94)\ntag_96:\n    /* \"#utility.yul\":3662:3683   */\n  pop\n    /* \"#utility.yul\":3266:4103   */\n  pop\n  pop\n    /* \"#utility.yul\":3143:4103   */\n  swap4\n  swap3\n  pop\n  pop\n  pop\n  jump\t// out\n    /* \"#utility.yul\":4125:4530   */\ntag_32:\n    /* \"#utility.yul\":4217:4222   */\n  0x00\n    /* \"#utility.yul\":4266:4269   */\n  dup3\n    /* \"#utility.yul\":4259:4263   */\n  0x1f\n    /* \"#utility.yul\":4251:4257   */\n  dup4\n    /* \"#utility.yul\":4247:4264   */\n  add\n    /* \"#utility.yul\":4243:4270   */\n  slt\n    /* \"#utility.yul\":4233:4355   */\n  tag_101\n  jumpi\n    /* \"#utility.yul\":4274:4353   */\n  tag_102\n  tag_19\n  jump\t// in\ntag_102:\n    /* \"#utility.yul\":4233:4355   */\ntag_101:\n    /* \"#utility.yul\":4384:4390   */\n  dup2\n    /* \"#utility.yul\":4378:4391   */\n  mload\n    /* \"#utility.yul\":4409:4524   */\n  tag_103\n    /* \"#utility.yul\":4520:4523   */\n  dup5\n    /* \"#utility.yul\":4512:4518   */\n  dup3\n    /* \"#utility.yul\":4505:4509   */\n  0x20\n    /* \"#utility.yul\":4497:4503   */\n  dup7\n    /* \"#utility.yul\":4493:4510   */\n  add\n    /* \"#utility.yul\":4409:4524   */\n  tag_31\n  jump\t// in\ntag_103:\n    /* \"#utility.yul\":4400:4524   */\n  swap2\n  pop\n    /* \"#utility.yul\":4223:4530   */\n  pop\n    /* \"#utility.yul\":4125:4530   */\n  swap3\n  swap2\n  pop\n  pop\n  jump\t// out\n    /* \"#utility.yul\":4536:5110   */\ntag_3:\n    /* \"#utility.yul\":4641:4647   */\n  0x00\n    /* \"#utility.yul\":4690:4692   */\n  0x20\n    /* \"#utility.yul\":4678:4687   */\n  dup3\n    /* \"#utility.yul\":4669:4676   */\n  dup5\n    /* \"#utility.yul\":4665:4688   */\n  sub\n    /* \"#utility.yul\":4661:4693   */\n  slt\n    /* \"#utility.yul\":4658:4777   */\n  iszero\n  tag_105\n  jumpi\n    /* \"#utility.yul\":4696:4775   */\n  tag_106\n  tag_17\n  jump\t// in\ntag_106:\n    /* \"#utility.yul\":4658:4777   */\ntag_105:\n    /* \"#utility.yul\":4837:4838   */\n  0x00\n    /* \"#utility.yul\":4826:4835   */\n  dup3\n    /* \"#utility.yul\":4822:4839   */\n  add\n    /* \"#utility.yul\":4816:4840   */\n  mload\n    /* \"#utility.yul\":4867:4885   */\n  0xffffffffffffffff\n    /* \"#utility.yul\":4859:4865   */\n  dup2\n    /* \"#utility.yul\":4856:4886   */\n  gt\n    /* \"#utility.yul\":4853:4970   */\n  iszero\n  tag_107\n  jumpi\n    /* \"#utility.yul\":4889:4968   */\n  tag_108\n  tag_18\n  jump\t// in\ntag_108:\n    /* \"#utility.yul\":4853:4970   */\ntag_107:\n    /* \"#utility.yul\":4994:5093   */\n  tag_109\n    /* \"#utility.yul\":5085:5092   */\n  dup5\n    /* \"#utility.yul\":5076:5082   */\n  dup3\n    /* \"#utility.yul\":5065:5074   */\n  dup6\n    /* \"#utility.yul\":5061:5083   */\n  add\n    /* \"#utility.yul\":4994:5093   */\n  tag_32\n  jump\t// in\ntag_109:\n    /* \"#utility.yul\":4984:5093   */\n  swap2\n  pop\n    /* \"#utility.yul\":4787:5103   */\n  pop\n    /* \"#utility.yul\":4536:5110   */\n  swap3\n  swap2\n  pop\n  pop\n  jump\t// out\n    /* \"#utility.yul\":5116:5296   */\ntag_11:\n    /* \"#utility.yul\":5164:5241   */\n  0x4e487b7100000000000000000000000000000000000000000000000000000000\n    /* \"#utility.yul\":5161:5162   */\n  0x00\n    /* \"#utility.yul\":5154:5242   */\n  mstore\n    /* \"#utility.yul\":5261:5265   */\n  0x32\n    /* \"#utility.yul\":5258:5259   */\n  0x04\n    /* \"#utility.yul\":5251:5266   */\n  mstore\n    /* \"#utility.yul\":5285:5289   */\n  0x24\n    /* \"#utility.yul\":5282:5283   */\n  0x00\n    /* \"#utility.yul\":5275:5290   */\n  revert\n    /* \"#utility.yul\":5302:5401   */\ntag_33:\n    /* \"#utility.yul\":5354:5360   */\n  0x00\n    /* \"#utility.yul\":5388:5393   */\n  dup2\n    /* \"#utility.yul\":5382:5394   */\n  mload\n    /* \"#utility.yul\":5372:5394   */\n  swap1\n  pop\n    /* \"#utility.yul\":5302:5401   */\n  swap2\n  swap1\n  pop\n  jump\t// out\n    /* \"#utility.yul\":5407:5587   */\ntag_34:\n    /* \"#utility.yul\":5455:5532   */\n  0x4e487b7100000000000000000000000000000000000000000000000000000000\n    /* \"#utility.yul\":5452:5453   */\n  0x00\n    /* \"#utility.yul\":5445:5533   */\n  mstore\n    /* \"#utility.yul\":5552:5556   */\n  0x22\n    /* \"#utility.yul\":5549:5550   */\n  0x04\n    /* \"#utility.yul\":5542:5557   */\n  mstore\n    /* \"#utility.yul\":5576:5580   */\n  0x24\n    /* \"#utility.yul\":5573:5574   */\n  0x00\n    /* \"#utility.yul\":5566:5581   */\n  revert\n    /* \"#utility.yul\":5593:5913   */\ntag_35:\n    /* \"#utility.yul\":5637:5643   */\n  0x00\n    /* \"#utility.yul\":5674:5675   */\n  0x02\n    /* \"#utility.yul\":5668:5672   */\n  dup3\n    /* \"#utility.yul\":5664:5676   */\n  div\n    /* \"#utility.yul\":5654:5676   */\n  swap1\n  pop\n    /* \"#utility.yul\":5721:5722   */\n  0x01\n    /* \"#utility.yul\":5715:5719   */\n  dup3\n    /* \"#utility.yul\":5711:5723   */\n  and\n    /* \"#utility.yul\":5742:5760   */\n  dup1\n    /* \"#utility.yul\":5732:5813   */\n  tag_114\n  jumpi\n    /* \"#utility.yul\":5798:5802   */\n  0x7f\n    /* \"#utility.yul\":5790:5796   */\n  dup3\n    /* \"#utility.yul\":5786:5803   */\n  and\n    /* \"#utility.yul\":5776:5803   */\n  swap2\n  pop\n    /* \"#utility.yul\":5732:5813   */\ntag_114:\n    /* \"#utility.yul\":5860:5862   */\n  0x20\n    /* \"#utility.yul\":5852:5858   */\n  dup3\n    /* \"#utility.yul\":5849:5863   */\n  lt\n    /* \"#utility.yul\":5829:5847   */\n  dup2\n    /* \"#utility.yul\":5826:5864   */\n  sub\n    /* \"#utility.yul\":5823:5907   */\n  tag_115\n  jumpi\n    /* \"#utility.yul\":5879:5897   */\n  tag_116\n  tag_34\n  jump\t// in\ntag_116:\n    /* \"#utility.yul\":5823:5907   */\ntag_115:\n    /* \"#utility.yul\":5644:5913   */\n  pop\n    /* \"#utility.yul\":5593:5913   */\n  swap2\n  swap1\n  pop\n  jump\t// out\n    /* \"#utility.yul\":5919:6060   */\ntag_36:\n    /* \"#utility.yul\":5968:5972   */\n  0x00\n    /* \"#utility.yul\":5991:5994   */\n  dup2\n    /* \"#utility.yul\":5983:5994   */\n  swap1\n  pop\n    /* \"#utility.yul\":6014:6017   */\n  dup2\n    /* \"#utility.yul\":6011:6012   */\n  0x00\n    /* \"#utility.yul\":6004:6018   */\n  mstore\n    /* \"#utility.yul\":6048:6052   */\n  0x20\n    /* \"#utility.yul\":6045:6046   */\n  0x00\n    /* \"#utility.yul\":6035:6053   */\n  keccak256\n    /* \"#utility.yul\":6027:6053   */\n  swap1\n  pop\n    /* \"#utility.yul\":5919:6060   */\n  swap2\n  swap1\n  pop\n  jump\t// out\n    /* \"#utility.yul\":6066:6159   */\ntag_37:\n    /* \"#utility.yul\":6103:6109   */\n  0x00\n    /* \"#utility.yul\":6150:6152   */\n  0x20\n    /* \"#utility.yul\":6145:6147   */\n  0x1f\n    /* \"#utility.yul\":6138:6143   */\n  dup4\n    /* \"#utility.yul\":6134:6148   */\n  add\n    /* \"#utility.yul\":6130:6153   */\n  div\n    /* \"#utility.yul\":6120:6153   */\n  swap1\n  pop\n    /* \"#utility.yul\":6066:6159   */\n  swap2\n  swap1\n  pop\n  jump\t// out\n    /* \"#utility.yul\":6165:6272   */\ntag_38:\n    /* \"#utility.yul\":6209:6217   */\n  0x00\n    /* \"#utility.yul\":6259:6264   */\n  dup3\n    /* \"#utility.yul\":6253:6257   */\n  dup3\n    /* \"#utility.yul\":6249:6265   */\n  shl\n    /* \"#utility.yul\":6228:6265   */\n  swap1\n  pop\n    /* \"#utility.yul\":6165:6272   */\n  swap3\n  swap2\n  pop\n  pop\n  jump\t// out\n    /* \"#utility.yul\":6278:6671   */\ntag_39:\n    /* \"#utility.yul\":6347:6353   */\n  0x00\n    /* \"#utility.yul\":6397:6398   */\n  0x08\n    /* \"#utility.yul\":6385:6395   */\n  dup4\n    /* \"#utility.yul\":6381:6399   */\n  mul\n    /* \"#utility.yul\":6420:6517   */\n  tag_121\n    /* \"#utility.yul\":6450:6516   */\n  0xffffffffffffffffffffffffffffffffffffffffffffffffffffffffffffffff\n    /* \"#utility.yul\":6439:6448   */\n  dup3\n    /* \"#utility.yul\":6420:6517   */\n  tag_38\n  jump\t// in\ntag_121:\n    /* \"#utility.yul\":6538:6577   */\n  tag_122\n    /* \"#utility.yul\":6568:6576   */\n  dup7\n    /* \"#utility.yul\":6557:6566   */\n  dup4\n    /* \"#utility.yul\":6538:6577   */\n  tag_38\n  jump\t// in\ntag_122:\n    /* \"#utility.yul\":6526:6577   */\n  swap6\n  pop\n    /* \"#utility.yul\":6610:6614   */\n  dup1\n    /* \"#utility.yul\":6606:6615   */\n  not\n    /* \"#utility.yul\":6599:6604   */\n  dup5\n    /* \"#utility.yul\":6595:6616   */\n  and\n    /* \"#utility.yul\":6586:6616   */\n  swap4\n  pop\n    /* \"#utility.yul\":6659:6663   */\n  dup1\n    /* \"#utility.yul\":6649:6657   */\n  dup7\n    /* \"#utility.yul\":6645:6664   */\n  and\n    /* \"#utility.yul\":6638:6643   */\n  dup5\n    /* \"#utility.yul\":6635:6665   */\n  or\n    /* \"#utility.yul\":6625:6665   */\n  swap3\n  pop\n    /* \"#utility.yul\":6354:6671   */\n  pop\n  pop\n    /* \"#utility.yul\":6278:6671   */\n  swap4\n  swap3\n  pop\n  pop\n  pop\n  jump\t// out\n    /* \"#utility.yul\":6677:6754   */\ntag_40:\n    /* \"#utility.yul\":6714:6721   */\n  0x00\n    /* \"#utility.yul\":6743:6748   */\n  dup2\n    /* \"#utility.yul\":6732:6748   */\n  swap1\n  pop\n    /* \"#utility.yul\":6677:6754   */\n  swap2\n  swap1\n  pop\n  jump\t// out\n    /* \"#utility.yul\":6760:6820   */\ntag_41:\n    /* \"#utility.yul\":6788:6791   */\n  0x00\n    /* \"#utility.yul\":6809:6814   */\n  dup2\n    /* \"#utility.yul\":6802:6814   */\n  swap1\n  pop\n    /* \"#utility.yul\":6760:6820   */\n  swap2\n  swap1\n  pop\n  jump\t// out\n    /* \"#utility.yul\":6826:6968   */\ntag_42:\n    /* \"#utility.yul\":6876:6885   */\n  0x00\n    /* \"#utility.yul\":6909:6962   */\n  tag_126\n    /* \"#utility.yul\":6927:6961   */\n  tag_127\n    /* \"#utility.yul\":6936:6960   */\n  tag_128\n    /* \"#utility.yul\":6954:6959   */\n  dup5\n    /* \"#utility.yul\":6936:6960   */\n  tag_40\n  jump\t// in\ntag_128:\n    /* \"#utility.yul\":6927:6961   */\n  tag_41\n  jump\t// in\ntag_127:\n    /* \"#utility.yul\":6909:6962   */\n  tag_40\n  jump\t// in\ntag_126:\n    /* \"#utility.yul\":6896:6962   */\n  swap1\n  pop\n    /* \"#utility.yul\":6826:6968   */\n  swap2\n  swap1\n  pop\n  jump\t// out\n    /* \"#utility.yul\":6974:7049   */\ntag_43:\n    /* \"#utility.yul\":7017:7020   */\n  0x00\n    /* \"#utility.yul\":7038:7043   */\n  dup2\n    /* \"#utility.yul\":7031:7043   */\n  swap1\n  pop\n    /* \"#utility.yul\":6974:7049   */\n  swap2\n  swap1\n  pop\n  jump\t// out\n    /* \"#utility.yul\":7055:7324   */\ntag_44:\n    /* \"#utility.yul\":7165:7204   */\n  tag_131\n    /* \"#utility.yul\":7196:7203   */\n  dup4\n    /* \"#utility.yul\":7165:7204   */\n  tag_42\n  jump\t// in\ntag_131:\n    /* \"#utility.yul\":7226:7317   */\n  tag_132\n    /* \"#utility.yul\":7275:7316   */\n  tag_133\n    /* \"#utility.yul\":7299:7315   */\n  dup3\n    /* \"#utility.yul\":7275:7316   */\n  tag_43\n  jump\t// in\ntag_133:\n    /* \"#utility.yul\":7267:7273   */\n  dup5\n    /* \"#utility.yul\":7260:7264   */\n  dup5\n    /* \"#utility.yul\":7254:7265   */\n  sload\n    /* \"#utility.yul\":7226:7317   */\n  tag_39\n  jump\t// in\ntag_132:\n    /* \"#utility.yul\":7220:7224   */\n  dup3\n    /* \"#utility.yul\":7213:7318   */\n  sstore\n    /* \"#utility.yul\":7131:7324   */\n  pop\n    /* \"#utility.yul\":7055:7324   */\n  pop\n  pop\n  pop\n  jump\t// out\n    /* \"#utility.yul\":7330:7403   */\ntag_45:\n    /* \"#utility.yul\":7375:7378   */\n  0x00\n    /* \"#utility.yul\":7330:7403   */\n  swap1\n  jump\t// out\n    /* \"#utility.yul\":7409:7598   */\ntag_46:\n    /* \"#utility.yul\":7486:7518   */\n  tag_136\n  tag_45\n  jump\t// in\ntag_136:\n    /* \"#utility.yul\":7527:7592   */\n  tag_137\n    /* \"#utility.yul\":7585:7591   */\n  dup2\n    /* \"#utility.yul\":7577:7583   */\n  dup5\n    /* \"#utility.yul\":7571:7575   */\n  dup5\n    /* \"#utility.yul\":7527:7592   */\n  tag_44\n  jump\t// in\ntag_137:\n    /* \"#utility.yul\":7462:7598   */\n  pop\n    /* \"#utility.yul\":7409:7598   */\n  pop\n  pop\n  jump\t// out\n    /* \"#utility.yul\":7604:7790   */\ntag_47:\n    /* \"#utility.yul\":7664:7784   */\ntag_139:\n    /* \"#utility.yul\":7681:7684   */\n  dup2\n    /* \"#utility.yul\":7674:7679   */\n  dup2\n    /* \"#utility.yul\":7671:7685   */\n  lt\n    /* \"#utility.yul\":7664:7784   */\n  iszero\n  tag_141\n  jumpi\n    /* \"#utility.yul\":7735:7774   */\n  tag_142\n    /* \"#utility.yul\":7772:7773   */\n  0x00\n    /* \"#utility.yul\":7765:7770   */\n  dup3\n    /* \"#utility.yul\":7735:7774   */\n  tag_46\n  jump\t// in\ntag_142:\n    /* \"#utility.yul\":7708:7709   */\n  0x01\n    /* \"#utility.yul\":7701:7706   */\n  dup2\n    /* \"#utility.yul\":7697:7710   */\n  add\n    /* \"#utility.yul\":7688:7710   */\n  swap1\n  pop\n    /* \"#utility.yul\":7664:7784   */\n  jump(tag_139)\ntag_141:\n    /* \"#utility.yul\":7604:7790   */\n  pop\n  pop\n  jump\t// out\n    /* \"#utility.yul\":7796:8339   */\ntag_48:\n    /* \"#utility.yul\":7897:7899   */\n  0x1f\n    /* \"#utility.yul\":7892:7895   */\n  dup3\n    /* \"#utility.yul\":7889:7900   */\n  gt\n    /* \"#utility.yul\":7886:8332   */\n  iszero\n  tag_144\n  jumpi\n    /* \"#utility.yul\":7931:7969   */\n  tag_145\n    /* \"#utility.yul\":7963:7968   */\n  dup2\n    /* \"#utility.yul\":7931:7969   */\n  tag_36\n  jump\t// in\ntag_145:\n    /* \"#utility.yul\":8015:8044   */\n  tag_146\n    /* \"#utility.yul\":8033:8043   */\n  dup5\n    /* \"#utility.yul\":8015:8044   */\n  tag_37\n  jump\t// in\ntag_146:\n    /* \"#utility.yul\":8005:8013   */\n  dup2\n    /* \"#utility.yul\":8001:8045   */\n  add\n    /* \"#utility.yul\":8198:8200   */\n  0x20\n    /* \"#utility.yul\":8186:8196   */\n  dup6\n    /* \"#utility.yul\":8183:8201   */\n  lt\n    /* \"#utility.yul\":8180:8229   */\n  iszero\n  tag_147\n  jumpi\n    /* \"#utility.yul\":8219:8227   */\n  dup2\n    /* \"#utility.yul\":8204:8227   */\n  swap1\n  pop\n    /* \"#utility.yul\":8180:8229   */\ntag_147:\n    /* \"#utility.yul\":8242:8322   */\n  tag_148\n    /* \"#utility.yul\":8298:8320   */\n  tag_149\n    /* \"#utility.yul\":8316:8319   */\n  dup6\n    /* \"#utility.yul\":8298:8320   */\n  tag_37\n  jump\t// in\ntag_149:\n    /* \"#utility.yul\":8288:8296   */\n  dup4\n    /* \"#utility.yul\":8284:8321   */\n  add\n    /* \"#utility.yul\":8271:8282   */\n  dup3\n    /* \"#utility.yul\":8242:8322   */\n  tag_47\n  jump\t// in\ntag_148:\n    /* \"#utility.yul\":7901:8332   */\n  pop\n  pop\n    /* \"#utility.yul\":7886:8332   */\ntag_144:\n    /* \"#utility.yul\":7796:8339   */\n  pop\n  pop\n  pop\n  jump\t// out\n    /* \"#utility.yul\":8345:8462   */\ntag_49:\n    /* \"#utility.yul\":8399:8407   */\n  0x00\n    /* \"#utility.yul\":8449:8454   */\n  dup3\n    /* \"#utility.yul\":8443:8447   */\n  dup3\n    /* \"#utility.yul\":8439:8455   */\n  shr\n    /* \"#utility.yul\":8418:8455   */\n  swap1\n  pop\n    /* \"#utility.yul\":8345:8462   */\n  swap3\n  swap2\n  pop\n  pop\n  jump\t// out\n    /* \"#utility.yul\":8468:8637   */\ntag_50:\n    /* \"#utility.yul\":8512:8518   */\n  0x00\n    /* \"#utility.yul\":8545:8596   */\n  tag_152\n    /* \"#utility.yul\":8593:8594   */\n  0x00\n    /* \"#utility.yul\":8589:8595   */\n  not\n    /* \"#utility.yul\":8581:8586   */\n  dup5\n    /* \"#utility.yul\":8578:8579   */\n  0x08\n    /* \"#utility.yul\":8574:8587   */\n  mul\n    /* \"#utility.yul\":8545:8596   */\n  tag_49\n  jump\t// in\ntag_152:\n    /* \"#utility.yul\":8541:8597   */\n  not\n    /* \"#utility.yul\":8626:8630   */\n  dup1\n    /* \"#utility.yul\":8620:8624   */\n  dup4\n    /* \"#utility.yul\":8616:8631   */\n  and\n    /* \"#utility.yul\":8606:8631   */\n  swap2\n  pop\n    /* \"#utility.yul\":8519:8637   */\n  pop\n    /* \"#utility.yul\":8468:8637   */\n  swap3\n  swap2\n  pop\n  pop\n  jump\t// out\n    /* \"#utility.yul\":8642:8937   */\ntag_51:\n    /* \"#utility.yul\":8718:8722   */\n  0x00\n    /* \"#utility.yul\":8864:8893   */\n  tag_154\n    /* \"#utility.yul\":8889:8892   */\n  dup4\n    /* \"#utility.yul\":8883:8887   */\n  dup4\n    /* \"#utility.yul\":8864:8893   */\n  tag_50\n  jump\t// in\ntag_154:\n    /* \"#utility.yul\":8856:8893   */\n  swap2\n  pop\n    /* \"#utility.yul\":8926:8929   */\n  dup3\n    /* \"#utility.yul\":8923:8924   */\n  0x02\n    /* \"#utility.yul\":8919:8930   */\n  mul\n    /* \"#utility.yul\":8913:8917   */\n  dup3\n    /* \"#utility.yul\":8910:8931   */\n  or\n    /* \"#utility.yul\":8902:8931   */\n  swap1\n  pop\n    /* \"#utility.yul\":8642:8937   */\n  swap3\n  swap2\n  pop\n  pop\n  jump\t// out\n    /* \"#utility.yul\":8942:10337   */\ntag_14:\n    /* \"#utility.yul\":9059:9096   */\n  tag_156\n    /* \"#utility.yul\":9092:9095   */\n  dup3\n    /* \"#utility.yul\":9059:9096   */\n  tag_33\n  jump\t// in\ntag_156:\n    /* \"#utility.yul\":9161:9179   */\n  0xffffffffffffffff\n    /* \"#utility.yul\":9153:9159   */\n  dup2\n    /* \"#utility.yul\":9150:9180   */\n  gt\n    /* \"#utility.yul\":9147:9203   */\n  iszero\n  tag_157\n  jumpi\n    /* \"#utility.yul\":9183:9201   */\n  tag_158\n  tag_21\n  jump\t// in\ntag_158:\n    /* \"#utility.yul\":9147:9203   */\ntag_157:\n    /* \"#utility.yul\":9227:9265   */\n  tag_159\n    /* \"#utility.yul\":9259:9263   */\n  dup3\n    /* \"#utility.yul\":9253:9264   */\n  sload\n    /* \"#utility.yul\":9227:9265   */\n  tag_35\n  jump\t// in\ntag_159:\n    /* \"#utility.yul\":9312:9379   */\n  tag_160\n    /* \"#utility.yul\":9372:9378   */\n  dup3\n    /* \"#utility.yul\":9364:9370   */\n  dup3\n    /* \"#utility.yul\":9358:9362   */\n  dup6\n    /* \"#utility.yul\":9312:9379   */\n  tag_48\n  jump\t// in\ntag_160:\n    /* \"#utility.yul\":9406:9407   */\n  0x00\n    /* \"#utility.yul\":9430:9434   */\n  0x20\n    /* \"#utility.yul\":9417:9434   */\n  swap1\n  pop\n    /* \"#utility.yul\":9462:9464   */\n  0x1f\n    /* \"#utility.yul\":9454:9460   */\n  dup4\n    /* \"#utility.yul\":9451:9465   */\n  gt\n    /* \"#utility.yul\":9479:9480   */\n  0x01\n    /* \"#utility.yul\":9474:10092   */\n  dup2\n  eq\n  tag_162\n  jumpi\n    /* \"#utility.yul\":10136:10137   */\n  0x00\n    /* \"#utility.yul\":10153:10159   */\n  dup5\n    /* \"#utility.yul\":10150:10227   */\n  iszero\n  tag_163\n  jumpi\n    /* \"#utility.yul\":10202:10211   */\n  dup3\n    /* \"#utility.yul\":10197:10200   */\n  dup8\n    /* \"#utility.yul\":10193:10212   */\n  add\n    /* \"#utility.yul\":10187:10213   */\n  mload\n    /* \"#utility.yul\":10178:10213   */\n  swap1\n  pop\n    /* \"#utility.yul\":10150:10227   */\ntag_163:\n    /* \"#utility.yul\":10253:10320   */\n  tag_164\n    /* \"#utility.yul\":10313:10319   */\n  dup6\n    /* \"#utility.yul\":10306:10311   */\n  dup3\n    /* \"#utility.yul\":10253:10320   */\n  tag_51\n  jump\t// in\ntag_164:\n    /* \"#utility.yul\":10247:10251   */\n  dup7\n    /* \"#utility.yul\":10240:10321   */\n  sstore\n    /* \"#utility.yul\":10109:10331   */\n  pop\n    /* \"#utility.yul\":9444:10331   */\n  jump(tag_161)\n    /* \"#utility.yul\":9474:10092   */\ntag_162:\n    /* \"#utility.yul\":9526:9530   */\n  0x1f\n    /* \"#utility.yul\":9522:9531   */\n  not\n    /* \"#utility.yul\":9514:9520   */\n  dup5\n    /* \"#utility.yul\":9510:9532   */\n  and\n    /* \"#utility.yul\":9560:9597   */\n  tag_165\n    /* \"#utility.yul\":9592:9596   */\n  dup7\n    /* \"#utility.yul\":9560:9597   */\n  tag_36\n  jump\t// in\ntag_165:\n    /* \"#utility.yul\":9619:9620   */\n  0x00\n    /* \"#utility.yul\":9633:9841   */\ntag_166:\n    /* \"#utility.yul\":9647:9654   */\n  dup3\n    /* \"#utility.yul\":9644:9645   */\n  dup2\n    /* \"#utility.yul\":9641:9655   */\n  lt\n    /* \"#utility.yul\":9633:9841   */\n  iszero\n  tag_168\n  jumpi\n    /* \"#utility.yul\":9726:9735   */\n  dup5\n    /* \"#utility.yul\":9721:9724   */\n  dup10\n    /* \"#utility.yul\":9717:9736   */\n  add\n    /* \"#utility.yul\":9711:9737   */\n  mload\n    /* \"#utility.yul\":9703:9709   */\n  dup3\n    /* \"#utility.yul\":9696:9738   */\n  sstore\n    /* \"#utility.yul\":9777:9778   */\n  0x01\n    /* \"#utility.yul\":9769:9775   */\n  dup3\n    /* \"#utility.yul\":9765:9779   */\n  add\n    /* \"#utility.yul\":9755:9779   */\n  swap2\n  pop\n    /* \"#utility.yul\":9824:9826   */\n  0x20\n    /* \"#utility.yul\":9813:9822   */\n  dup6\n    /* \"#utility.yul\":9809:9827   */\n  add\n    /* \"#utility.yul\":9796:9827   */\n  swap5\n  pop\n    /* \"#utility.yul\":9670:9674   */\n  0x20\n    /* \"#utility.yul\":9667:9668   */\n  dup2\n    /* \"#utility.yul\":9663:9675   */\n  add\n    /* \"#utility.yul\":9658:9675   */\n  swap1\n  pop\n    /* \"#utility.yul\":9633:9841   */\n  jump(tag_166)\ntag_168:\n    /* \"#utility.yul\":9869:9875   */\n  dup7\n    /* \"#utility.yul\":9860:9867   */\n  dup4\n    /* \"#utility.yul\":9857:9876   */\n  lt\n    /* \"#utility.yul\":9854:10033   */\n  iszero\n  tag_169\n  jumpi\n    /* \"#utility.yul\":9927:9936   */\n  dup5\n    /* \"#utility.yul\":9922:9925   */\n  dup10\n    /* \"#utility.yul\":9918:9937   */\n  add\n    /* \"#utility.yul\":9912:9938   */\n  mload\n    /* \"#utility.yul\":9970:10018   */\n  tag_170\n    /* \"#utility.yul\":10012:10016   */\n  0x1f\n    /* \"#utility.yul\":10004:10010   */\n  dup10\n    /* \"#utility.yul\":10000:10017   */\n  and\n    /* \"#utility.yul\":9989:9998   */\n  dup3\n    /* \"#utility.yul\":9970:10018   */\n  tag_50\n  jump\t// in\ntag_170:\n    /* \"#utility.yul\":9962:9968   */\n  dup4\n    /* \"#utility.yul\":9955:10019   */\n  sstore\n    /* \"#utility.yul\":9877:10033   */\n  pop\n    /* \"#utility.yul\":9854:10033   */\ntag_169:\n    /* \"#utility.yul\":10079:10080   */\n  0x01\n    /* \"#utility.yul\":10075:10076   */\n  0x02\n    /* \"#utility.yul\":10067:10073   */\n  dup9\n    /* \"#utility.yul\":10063:10077   */\n  mul\n    /* \"#utility.yul\":10059:10081   */\n  add\n    /* \"#utility.yul\":10053:10057   */\n  dup9\n    /* \"#utility.yul\":10046:10082   */\n  sstore\n    /* \"#utility.yul\":9481:10092   */\n  pop\n  pop\n  pop\n    /* \"#utility.yul\":9444:10331   */\ntag_161:\n  pop\n    /* \"#utility.yul\":9034:10337   */\n  pop\n  pop\n  pop\n    /* \"#utility.yul\":8942:10337   */\n  pop\n  pop\n  jump\t// out\n    /* \"vote.sol\":63:3439  contract VotePlaces {... */\ntag_15:\n  dataSize(sub_0)\n  dup1\n  dataOffset(sub_0)\n  0x00\n  codecopy\n  0x00\n  return\nstop\n\nsub_0: assembly {\n        /* \"vote.sol\":63:3439  contract VotePlaces {... */\n      mstore(0x40, 0x80)\n      jumpi(tag_1, lt(calldatasize, 0x04))\n      shr(0xe0, calldataload(0x00))\n      dup1\n      0x4c0a6af0\n      gt\n      tag_15\n      jumpi\n      dup1\n      0x4c0a6af0\n      eq\n      tag_9\n      jumpi\n      dup1\n      0x746cd2ec\n      eq\n      tag_10\n      jumpi\n      dup1\n      0x8da5cb5b\n      eq\n      tag_11\n      jumpi\n      dup1\n      0xa580b195\n      eq\n      tag_12\n      jumpi\n      dup1\n      0xe2842d79\n      eq\n      tag_13\n      jumpi\n      dup1\n      0xe557bb4e\n      eq\n      tag_14\n      jumpi\n      jump(tag_2)\n    tag_15:\n      dup1\n      0x0121b93f\n      eq\n      tag_3\n      jumpi\n      dup1\n      0x09eef43e\n      eq\n      tag_4\n      jumpi\n      dup1\n      0x133fd549\n      eq\n      tag_5\n      jumpi\n      dup1\n      0x1b75f594\n      eq\n      tag_6\n      jumpi\n      dup1\n      0x2aebcbb6\n      eq\n      tag_7\n      jumpi\n      dup1\n      0x365b98b2\n      eq\n      tag_8\n      jumpi\n      jump(tag_2)\n    tag_1:\n      jumpi(tag_2, calldatasize)\n      stop\n    tag_2:\n      stop\n        /* \"vote.sol\":1797:2220  function vote(uint256 voteIndex) public isVotingActive isVoted payable {... */\n    tag_3:\n      tag_20\n      0x04\n      dup1\n      calldatasize\n      sub\n      dup2\n      add\n      swap1\n      tag_21\n      swap2\n      swap1\n      tag_22\n      jump\t// in\n    tag_21:\n      tag_23\n      jump\t// in\n    tag_20:\n      stop\n        /* \"vote.sol\":588:628  mapping(address => bool) public hasVoted */\n    tag_4:\n      callvalue\n      dup1\n      iszero\n      tag_24\n      jumpi\n      0x00\n      dup1\n      revert\n    tag_24:\n      pop\n      tag_25\n      0x04\n      dup1\n      calldatasize\n      sub\n      dup2\n      add\n      swap1\n      tag_26\n      swap2\n      swap1\n      tag_27\n      jump\t// in\n    tag_26:\n      tag_28\n      jump\t// in\n    tag_25:\n      mload(0x40)\n      tag_29\n      swap2\n      swap1\n      tag_30\n      jump\t// in\n    tag_29:\n      mload(0x40)\n      dup1\n      swap2\n      sub\n      swap1\n      return\n        /* \"vote.sol\":2275:2367  function getAllPlaces() public view returns(Place[] memory) {... */\n    tag_5:\n      callvalue\n      dup1\n      iszero\n      tag_31\n      jumpi\n      0x00\n      dup1\n      revert\n    tag_31:\n      pop\n      tag_32\n      tag_33\n      jump\t// in\n    tag_32:\n      mload(0x40)\n      tag_34\n      swap2\n      swap1\n      tag_35\n      jump\t// in\n    tag_34:\n      mload(0x40)\n      dup1\n      swap2\n      sub\n      swap1\n      return\n        /* \"vote.sol\":2422:2831  function getWinnerPlace() public view returns(Place memory) {... */\n    tag_6:\n      callvalue\n      dup1\n      iszero\n      tag_36\n      jumpi\n      0x00\n      dup1\n      revert\n    tag_36:\n      pop\n      tag_37\n      tag_38\n      jump\t// in\n    tag_37:\n      mload(0x40)\n      tag_39\n      swap2\n      swap1\n      tag_40\n      jump\t// in\n    tag_39:\n      mload(0x40)\n      dup1\n      swap2\n      sub\n      swap1\n      return\n        /* \"vote.sol\":3025:3191  function finishVote() public onlyOwner {... */\n    tag_7:\n      callvalue\n      dup1\n      iszero\n      tag_41\n      jumpi\n      0x00\n      dup1\n      revert\n    tag_41:\n      pop\n      tag_42\n      tag_43\n      jump\t// in\n    tag_42:\n      stop\n        /* \"vote.sol\":535:554  User[] public users */\n    tag_8:\n      callvalue\n      dup1\n      iszero\n      tag_44\n      jumpi\n      0x00\n      dup1\n      revert\n    tag_44:\n      pop\n      tag_45\n      0x04\n      dup1\n      calldatasize\n      sub\n      dup2\n      add\n      swap1\n      tag_46\n      swap2\n      swap1\n      tag_22\n      jump\t// in\n    tag_46:\n      tag_47\n      jump\t// in\n    tag_45:\n      mload(0x40)\n      tag_48\n      swap4\n      swap3\n      swap2\n      swap1\n      tag_49\n      jump\t// in\n    tag_48:\n      mload(0x40)\n      dup1\n      swap2\n      sub\n      swap1\n      return\n        /* \"vote.sol\":3199:3363  function startVote() public onlyOwner {... */\n    tag_9:\n      callvalue\n      dup1\n      iszero\n      tag_50\n      jumpi\n      0x00\n      dup1\n      revert\n    tag_50:\n      pop\n      tag_51\n      tag_52\n      jump\t// in\n    tag_51:\n      stop\n        /* \"vote.sol\":663:687  bool public isVoteActive */\n    tag_10:\n      callvalue\n      dup1\n      iszero\n      tag_53\n      jumpi\n      0x00\n      dup1\n      revert\n    tag_53:\n      pop\n      tag_54\n      tag_55\n      jump\t// in\n    tag_54:\n      mload(0x40)\n      tag_56\n      swap2\n      swap1\n      tag_30\n      jump\t// in\n    tag_56:\n      mload(0x40)\n      dup1\n      swap2\n      sub\n      swap1\n      return\n        /* \"vote.sol\":694:714  address public owner */\n    tag_11:\n      callvalue\n      dup1\n      iszero\n      tag_57\n      jumpi\n      0x00\n      dup1\n      revert\n    tag_57:\n      pop\n      tag_58\n      tag_59\n      jump\t// in\n    tag_58:\n      mload(0x40)\n      tag_60\n      swap2\n      swap1\n      tag_61\n      jump\t// in\n    tag_60:\n      mload(0x40)\n      dup1\n      swap2\n      sub\n      swap1\n      return\n        /* \"vote.sol\":92:190  address payable public constant moneyAddress = payable(0xc6E38C428C036A9824CD136137262dF3bEa00B1D) */\n    tag_12:\n      callvalue\n      dup1\n      iszero\n      tag_62\n      jumpi\n      0x00\n      dup1\n      revert\n    tag_62:\n      pop\n      tag_63\n      tag_64\n      jump\t// in\n    tag_63:\n      mload(0x40)\n      tag_65\n      swap2\n      swap1\n      tag_66\n      jump\t// in\n    tag_65:\n      mload(0x40)\n      dup1\n      swap2\n      sub\n      swap1\n      return\n        /* \"vote.sol\":2878:2967  function getAllUsers() public view returns(User[] memory) {... */\n    tag_13:\n      callvalue\n      dup1\n      iszero\n      tag_67\n      jumpi\n      0x00\n      dup1\n      revert\n    tag_67:\n      pop\n      tag_68\n      tag_69\n      jump\t// in\n    tag_68:\n      mload(0x40)\n      tag_70\n      swap2\n      swap1\n      tag_71\n      jump\t// in\n    tag_70:\n      mload(0x40)\n      dup1\n      swap2\n      sub\n      swap1\n      return\n        /* \"vote.sol\":482:503  Place[] public places */\n    tag_14:\n      callvalue\n      dup1\n      iszero\n      tag_72\n      jumpi\n      0x00\n      dup1\n      revert\n    tag_72:\n      pop\n      tag_73\n      0x04\n      dup1\n      calldatasize\n      sub\n      dup2\n      add\n      swap1\n      tag_74\n      swap2\n      swap1\n      tag_22\n      jump\t// in\n    tag_74:\n      tag_75\n      jump\t// in\n    tag_73:\n      mload(0x40)\n      tag_76\n      swap3\n      swap2\n      swap1\n      tag_77\n      jump\t// in\n    tag_76:\n      mload(0x40)\n      dup1\n      swap2\n      sub\n      swap1\n      return\n        /* \"vote.sol\":1797:2220  function vote(uint256 voteIndex) public isVotingActive isVoted payable {... */\n    tag_23:\n        /* \"vote.sol\":1074:1078  true */\n      0x01\n        /* \"vote.sol\":1058:1078  isVoteActive == true */\n      iszero\n      iszero\n        /* \"vote.sol\":1058:1070  isVoteActive */\n      0x03\n      0x00\n      swap1\n      sload\n      swap1\n      0x0100\n      exp\n      swap1\n      div\n      0xff\n      and\n        /* \"vote.sol\":1058:1078  isVoteActive == true */\n      iszero\n      iszero\n      eq\n        /* \"vote.sol\":1050:1097  require(isVoteActive == true, \"voting is done\") */\n      tag_79\n      jumpi\n      mload(0x40)\n      0x08c379a000000000000000000000000000000000000000000000000000000000\n      dup2\n      mstore\n      0x04\n      add\n      tag_80\n      swap1\n      tag_81\n      jump\t// in\n    tag_80:\n      mload(0x40)\n      dup1\n      swap2\n      sub\n      swap1\n      revert\n    tag_79:\n        /* \"vote.sol\":926:931  false */\n      0x00\n        /* \"vote.sol\":902:931  hasVoted[msg.sender] == false */\n      iszero\n      iszero\n        /* \"vote.sol\":902:910  hasVoted */\n      0x02\n        /* \"vote.sol\":902:922  hasVoted[msg.sender] */\n      0x00\n        /* \"vote.sol\":911:921  msg.sender */\n      caller\n        /* \"vote.sol\":902:922  hasVoted[msg.sender] */\n      0xffffffffffffffffffffffffffffffffffffffff\n      and\n      0xffffffffffffffffffffffffffffffffffffffff\n      and\n      dup2\n      mstore\n      0x20\n      add\n      swap1\n      dup2\n      mstore\n      0x20\n      add\n      0x00\n      keccak256\n      0x00\n      swap1\n      sload\n      swap1\n      0x0100\n      exp\n      swap1\n      div\n      0xff\n      and\n        /* \"vote.sol\":902:931  hasVoted[msg.sender] == false */\n      iszero\n      iszero\n      eq\n        /* \"vote.sol\":894:953  require(hasVoted[msg.sender] == false, \"Already you voted\") */\n      tag_83\n      jumpi\n      mload(0x40)\n      0x08c379a000000000000000000000000000000000000000000000000000000000\n      dup2\n      mstore\n      0x04\n      add\n      tag_84\n      swap1\n      tag_85\n      jump\t// in\n    tag_84:\n      mload(0x40)\n      dup1\n      swap2\n      sub\n      swap1\n      revert\n    tag_83:\n        /* \"vote.sol\":1879:1890  bool isSent */\n      0x00\n        /* \"vote.sol\":147:189  0xc6E38C428C036A9824CD136137262dF3bEa00B1D */\n      0xc6e38c428c036a9824cd136137262df3bea00b1d\n        /* \"vote.sol\":1893:1910  moneyAddress.send */\n      0xffffffffffffffffffffffffffffffffffffffff\n      and\n        /* \"vote.sol\":1893:1921  moneyAddress.send(msg.value) */\n      0x08fc\n        /* \"vote.sol\":1911:1920  msg.value */\n      callvalue\n        /* \"vote.sol\":1893:1921  moneyAddress.send(msg.value) */\n      swap1\n      dup2\n      iszero\n      mul\n      swap1\n      mload(0x40)\n      0x00\n      mload(0x40)\n      dup1\n      dup4\n      sub\n      dup2\n      dup6\n      dup9\n      dup9\n      call\n      swap4\n      pop\n      pop\n      pop\n      pop\n        /* \"vote.sol\":1879:1921  bool isSent = moneyAddress.send(msg.value) */\n      swap1\n      pop\n        /* \"vote.sol\":1950:1954  true */\n      0x01\n        /* \"vote.sol\":1940:1954  isSent == true */\n      iszero\n      iszero\n        /* \"vote.sol\":1940:1946  isSent */\n      dup2\n        /* \"vote.sol\":1940:1954  isSent == true */\n      iszero\n      iszero\n      eq\n        /* \"vote.sol\":1932:1981  require(isSent == true, \"I cannot get the money\") */\n      tag_88\n      jumpi\n      mload(0x40)\n      0x08c379a000000000000000000000000000000000000000000000000000000000\n      dup2\n      mstore\n      0x04\n      add\n      tag_89\n      swap1\n      tag_90\n      jump\t// in\n    tag_89:\n      mload(0x40)\n      dup1\n      swap2\n      sub\n      swap1\n      revert\n    tag_88:\n        /* \"vote.sol\":1994:2013  Place storage place */\n      0x00\n        /* \"vote.sol\":2016:2022  places */\n      dup1\n        /* \"vote.sol\":2023:2032  voteIndex */\n      dup4\n        /* \"vote.sol\":2016:2033  places[voteIndex] */\n      dup2\n      sload\n      dup2\n      lt\n      tag_91\n      jumpi\n      tag_92\n      tag_93\n      jump\t// in\n    tag_92:\n    tag_91:\n      swap1\n      0x00\n      mstore\n      keccak256(0x00, 0x20)\n      swap1\n      0x02\n      mul\n      add\n        /* \"vote.sol\":1994:2033  Place storage place = places[voteIndex] */\n      swap1\n      pop\n        /* \"vote.sol\":2062:2063  1 */\n      0x01\n        /* \"vote.sol\":2044:2049  place */\n      dup2\n        /* \"vote.sol\":2044:2060  place.voteNumber */\n      0x01\n      add\n      0x00\n        /* \"vote.sol\":2044:2063  place.voteNumber+=1 */\n      dup3\n      dup3\n      sload\n      tag_95\n      swap2\n      swap1\n      tag_96\n      jump\t// in\n    tag_95:\n      swap3\n      pop\n      pop\n      dup2\n      swap1\n      sstore\n      pop\n        /* \"vote.sol\":2076:2081  users */\n      0x01\n        /* \"vote.sol\":2087:2116  User(msg.sender, true, place) */\n      mload(0x40)\n      dup1\n      0x60\n      add\n      0x40\n      mstore\n      dup1\n        /* \"vote.sol\":2092:2102  msg.sender */\n      caller\n        /* \"vote.sol\":2087:2116  User(msg.sender, true, place) */\n      0xffffffffffffffffffffffffffffffffffffffff\n      and\n      dup2\n      mstore\n      0x20\n      add\n        /* \"vote.sol\":2104:2108  true */\n      0x01\n        /* \"vote.sol\":2087:2116  User(msg.sender, true, place) */\n      iszero\n      iszero\n      dup2\n      mstore\n      0x20\n      add\n        /* \"vote.sol\":2110:2115  place */\n      dup4\n        /* \"vote.sol\":2087:2116  User(msg.sender, true, place) */\n      mload(0x40)\n      dup1\n      0x40\n      add\n      0x40\n      mstore\n      swap1\n      dup2\n      0x00\n      dup3\n      add\n      dup1\n      sload\n      tag_97\n      swap1\n      tag_98\n      jump\t// in\n    tag_97:\n      dup1\n      0x1f\n      add\n      0x20\n      dup1\n      swap2\n      div\n      mul\n      0x20\n      add\n      mload(0x40)\n      swap1\n      dup2\n      add\n      0x40\n      mstore\n      dup1\n      swap3\n      swap2\n      swap1\n      dup2\n      dup2\n      mstore\n      0x20\n      add\n      dup3\n      dup1\n      sload\n      tag_99\n      swap1\n      tag_98\n      jump\t// in\n    tag_99:\n      dup1\n      iszero\n      tag_100\n      jumpi\n      dup1\n      0x1f\n      lt\n      tag_101\n      jumpi\n      0x0100\n      dup1\n      dup4\n      sload\n      div\n      mul\n      dup4\n      mstore\n      swap2\n      0x20\n      add\n      swap2\n      jump(tag_100)\n    tag_101:\n      dup3\n      add\n      swap2\n      swap1\n      0x00\n      mstore\n      keccak256(0x00, 0x20)\n      swap1\n    tag_102:\n      dup2\n      sload\n      dup2\n      mstore\n      swap1\n      0x01\n      add\n      swap1\n      0x20\n      add\n      dup1\n      dup4\n      gt\n      tag_102\n      jumpi\n      dup3\n      swap1\n      sub\n      0x1f\n      and\n      dup3\n      add\n      swap2\n    tag_100:\n      pop\n      pop\n      pop\n      pop\n      pop\n      dup2\n      mstore\n      0x20\n      add\n      0x01\n      dup3\n      add\n      sload\n      dup2\n      mstore\n      pop\n      pop\n      dup2\n      mstore\n      pop\n        /* \"vote.sol\":2076:2117  users.push(User(msg.sender, true, place)) */\n      swap1\n      dup1\n      0x01\n      dup2\n      sload\n      add\n      dup1\n      dup3\n      sstore\n      dup1\n      swap2\n      pop\n      pop\n      0x01\n      swap1\n      sub\n      swap1\n      0x00\n      mstore\n      keccak256(0x00, 0x20)\n      swap1\n      0x03\n      mul\n      add\n      0x00\n      swap1\n      swap2\n      swap1\n      swap2\n      swap1\n      swap2\n      pop\n      0x00\n      dup3\n      add\n      mload\n      dup2\n      0x00\n      add\n      exp(0x0100, 0x00)\n      dup2\n      sload\n      dup2\n      0xffffffffffffffffffffffffffffffffffffffff\n      mul\n      not\n      and\n      swap1\n      dup4\n      0xffffffffffffffffffffffffffffffffffffffff\n      and\n      mul\n      or\n      swap1\n      sstore\n      pop\n      0x20\n      dup3\n      add\n      mload\n      dup2\n      0x00\n      add\n      exp(0x0100, 0x14)\n      dup2\n      sload\n      dup2\n      0xff\n      mul\n      not\n      and\n      swap1\n      dup4\n      iszero\n      iszero\n      mul\n      or\n      swap1\n      sstore\n      pop\n      0x40\n      dup3\n      add\n      mload\n      dup2\n      0x01\n      add\n      0x00\n      dup3\n      add\n      mload\n      dup2\n      0x00\n      add\n      swap1\n      dup2\n      tag_104\n      swap2\n      swap1\n      tag_105\n      jump\t// in\n    tag_104:\n      pop\n      0x20\n      dup3\n      add\n      mload\n      dup2\n      0x01\n      add\n      sstore\n      pop\n      pop\n      pop\n      pop\n        /* \"vote.sol\":2151:2155  true */\n      0x01\n        /* \"vote.sol\":2128:2136  hasVoted */\n      0x02\n        /* \"vote.sol\":2128:2148  hasVoted[msg.sender] */\n      0x00\n        /* \"vote.sol\":2137:2147  msg.sender */\n      caller\n        /* \"vote.sol\":2128:2148  hasVoted[msg.sender] */\n      0xffffffffffffffffffffffffffffffffffffffff\n      and\n      0xffffffffffffffffffffffffffffffffffffffff\n      and\n      dup2\n      mstore\n      0x20\n      add\n      swap1\n      dup2\n      mstore\n      0x20\n      add\n      0x00\n      keccak256\n      0x00\n        /* \"vote.sol\":2128:2155  hasVoted[msg.sender] = true */\n      0x0100\n      exp\n      dup2\n      sload\n      dup2\n      0xff\n      mul\n      not\n      and\n      swap1\n      dup4\n      iszero\n      iszero\n      mul\n      or\n      swap1\n      sstore\n      pop\n        /* \"vote.sol\":2173:2212  Voted(msg.sender, voteIndex, msg.value) */\n      0xea66f58e474bc09f580000e81f31b334d171db387d0c6098ba47bd897741679b\n        /* \"vote.sol\":2179:2189  msg.sender */\n      caller\n        /* \"vote.sol\":2191:2200  voteIndex */\n      dup5\n        /* \"vote.sol\":2202:2211  msg.value */\n      callvalue\n        /* \"vote.sol\":2173:2212  Voted(msg.sender, voteIndex, msg.value) */\n      mload(0x40)\n      tag_106\n      swap4\n      swap3\n      swap2\n      swap1\n      tag_107\n      jump\t// in\n    tag_106:\n      mload(0x40)\n      dup1\n      swap2\n      sub\n      swap1\n      log1\n        /* \"vote.sol\":1868:2220  {... */\n      pop\n      pop\n        /* \"vote.sol\":1797:2220  function vote(uint256 voteIndex) public isVotingActive isVoted payable {... */\n      pop\n      jump\t// out\n        /* \"vote.sol\":588:628  mapping(address => bool) public hasVoted */\n    tag_28:\n      mstore(0x20, 0x02)\n      dup1\n      0x00\n      mstore\n      keccak256(0x00, 0x40)\n      0x00\n      swap2\n      pop\n      sload\n      swap1\n      0x0100\n      exp\n      swap1\n      div\n      0xff\n      and\n      dup2\n      jump\t// out\n        /* \"vote.sol\":2275:2367  function getAllPlaces() public view returns(Place[] memory) {... */\n    tag_33:\n        /* \"vote.sol\":2319:2333  Place[] memory */\n      0x60\n        /* \"vote.sol\":2353:2359  places */\n      0x00\n        /* \"vote.sol\":2346:2359  return places */\n      dup1\n      sload\n      dup1\n      0x20\n      mul\n      0x20\n      add\n      mload(0x40)\n      swap1\n      dup2\n      add\n      0x40\n      mstore\n      dup1\n      swap3\n      swap2\n      swap1\n      dup2\n      dup2\n      mstore\n      0x20\n      add\n      0x00\n      swap1\n    tag_109:\n      dup3\n      dup3\n      lt\n      iszero\n      tag_110\n      jumpi\n      dup4\n      dup3\n      swap1\n      0x00\n      mstore\n      keccak256(0x00, 0x20)\n      swap1\n      0x02\n      mul\n      add\n      mload(0x40)\n      dup1\n      0x40\n      add\n      0x40\n      mstore\n      swap1\n      dup2\n      0x00\n      dup3\n      add\n      dup1\n      sload\n      tag_112\n      swap1\n      tag_98\n      jump\t// in\n    tag_112:\n      dup1\n      0x1f\n      add\n      0x20\n      dup1\n      swap2\n      div\n      mul\n      0x20\n      add\n      mload(0x40)\n      swap1\n      dup2\n      add\n      0x40\n      mstore\n      dup1\n      swap3\n      swap2\n      swap1\n      dup2\n      dup2\n      mstore\n      0x20\n      add\n      dup3\n      dup1\n      sload\n      tag_113\n      swap1\n      tag_98\n      jump\t// in\n    tag_113:\n      dup1\n      iszero\n      tag_114\n      jumpi\n      dup1\n      0x1f\n      lt\n      tag_115\n      jumpi\n      0x0100\n      dup1\n      dup4\n      sload\n      div\n      mul\n      dup4\n      mstore\n      swap2\n      0x20\n      add\n      swap2\n      jump(tag_114)\n    tag_115:\n      dup3\n      add\n      swap2\n      swap1\n      0x00\n      mstore\n      keccak256(0x00, 0x20)\n      swap1\n    tag_116:\n      dup2\n      sload\n      dup2\n      mstore\n      swap1\n      0x01\n      add\n      swap1\n      0x20\n      add\n      dup1\n      dup4\n      gt\n      tag_116\n      jumpi\n      dup3\n      swap1\n      sub\n      0x1f\n      and\n      dup3\n      add\n      swap2\n    tag_114:\n      pop\n      pop\n      pop\n      pop\n      pop\n      dup2\n      mstore\n      0x20\n      add\n      0x01\n      dup3\n      add\n      sload\n      dup2\n      mstore\n      pop\n      pop\n      dup2\n      mstore\n      0x20\n      add\n      swap1\n      0x01\n      add\n      swap1\n      jump(tag_109)\n    tag_110:\n      pop\n      pop\n      pop\n      pop\n      swap1\n      pop\n        /* \"vote.sol\":2275:2367  function getAllPlaces() public view returns(Place[] memory) {... */\n      swap1\n      jump\t// out\n        /* \"vote.sol\":2422:2831  function getWinnerPlace() public view returns(Place memory) {... */\n    tag_38:\n        /* \"vote.sol\":2468:2480  Place memory */\n      tag_117\n      tag_118\n      jump\t// in\n    tag_117:\n        /* \"vote.sol\":2493:2514  uint256 maxVoteNumber */\n      0x00\n        /* \"vote.sol\":2530:2550  uint256 maxVoteIndex */\n      dup1\n        /* \"vote.sol\":2572:2581  uint256 i */\n      0x00\n        /* \"vote.sol\":2568:2784  for(uint256 i = 0; i < places.length; i++) {... */\n    tag_120:\n        /* \"vote.sol\":2591:2597  places */\n      0x00\n        /* \"vote.sol\":2591:2604  places.length */\n      dup1\n      sload\n      swap1\n      pop\n        /* \"vote.sol\":2587:2588  i */\n      dup2\n        /* \"vote.sol\":2587:2604  i < places.length */\n      lt\n        /* \"vote.sol\":2568:2784  for(uint256 i = 0; i < places.length; i++) {... */\n      iszero\n      tag_121\n      jumpi\n        /* \"vote.sol\":2652:2665  maxVoteNumber */\n      dup3\n        /* \"vote.sol\":2629:2635  places */\n      0x00\n        /* \"vote.sol\":2636:2637  i */\n      dup3\n        /* \"vote.sol\":2629:2638  places[i] */\n      dup2\n      sload\n      dup2\n      lt\n      tag_123\n      jumpi\n      tag_124\n      tag_93\n      jump\t// in\n    tag_124:\n    tag_123:\n      swap1\n      0x00\n      mstore\n      keccak256(0x00, 0x20)\n      swap1\n      0x02\n      mul\n      add\n        /* \"vote.sol\":2629:2649  places[i].voteNumber */\n      0x01\n      add\n      sload\n        /* \"vote.sol\":2629:2665  places[i].voteNumber > maxVoteNumber */\n      gt\n        /* \"vote.sol\":2626:2773  if(places[i].voteNumber > maxVoteNumber) {... */\n      iszero\n      tag_126\n      jumpi\n        /* \"vote.sol\":2702:2708  places */\n      0x00\n        /* \"vote.sol\":2709:2710  i */\n      dup2\n        /* \"vote.sol\":2702:2711  places[i] */\n      dup2\n      sload\n      dup2\n      lt\n      tag_127\n      jumpi\n      tag_128\n      tag_93\n      jump\t// in\n    tag_128:\n    tag_127:\n      swap1\n      0x00\n      mstore\n      keccak256(0x00, 0x20)\n      swap1\n      0x02\n      mul\n      add\n        /* \"vote.sol\":2702:2722  places[i].voteNumber */\n      0x01\n      add\n      sload\n        /* \"vote.sol\":2686:2722  maxVoteNumber = places[i].voteNumber */\n      swap3\n      pop\n        /* \"vote.sol\":2756:2757  i */\n      dup1\n        /* \"vote.sol\":2741:2757  maxVoteIndex = i */\n      swap2\n      pop\n        /* \"vote.sol\":2626:2773  if(places[i].voteNumber > maxVoteNumber) {... */\n    tag_126:\n        /* \"vote.sol\":2606:2609  i++ */\n      dup1\n      dup1\n      0x01\n      add\n      swap2\n      pop\n      pop\n        /* \"vote.sol\":2568:2784  for(uint256 i = 0; i < places.length; i++) {... */\n      jump(tag_120)\n    tag_121:\n      pop\n        /* \"vote.sol\":2803:2809  places */\n      0x00\n        /* \"vote.sol\":2810:2822  maxVoteIndex */\n      dup2\n        /* \"vote.sol\":2803:2823  places[maxVoteIndex] */\n      dup2\n      sload\n      dup2\n      lt\n      tag_130\n      jumpi\n      tag_131\n      tag_93\n      jump\t// in\n    tag_131:\n    tag_130:\n      swap1\n      0x00\n      mstore\n      keccak256(0x00, 0x20)\n      swap1\n      0x02\n      mul\n      add\n        /* \"vote.sol\":2796:2823  return places[maxVoteIndex] */\n      mload(0x40)\n      dup1\n      0x40\n      add\n      0x40\n      mstore\n      swap1\n      dup2\n      0x00\n      dup3\n      add\n      dup1\n      sload\n      tag_133\n      swap1\n      tag_98\n      jump\t// in\n    tag_133:\n      dup1\n      0x1f\n      add\n      0x20\n      dup1\n      swap2\n      div\n      mul\n      0x20\n      add\n      mload(0x40)\n      swap1\n      dup2\n      add\n      0x40\n      mstore\n      dup1\n      swap3\n      swap2\n      swap1\n      dup2\n      dup2\n      mstore\n      0x20\n      add\n      dup3\n      dup1\n      sload\n      tag_134\n      swap1\n      tag_98\n      jump\t// in\n    tag_134:\n      dup1\n      iszero\n      tag_135\n      jumpi\n      dup1\n      0x1f\n      lt\n      tag_136\n      jumpi\n      0x0100\n      dup1\n      dup4\n      sload\n      div\n      mul\n      dup4\n      mstore\n      swap2\n      0x20\n      add\n      swap2\n      jump(tag_135)\n    tag_136:\n      dup3\n      add\n      swap2\n      swap1\n      0x00\n      mstore\n      keccak256(0x00, 0x20)\n      swap1\n    tag_137:\n      dup2\n      sload\n      dup2\n      mstore\n      swap1\n      0x01\n      add\n      swap1\n      0x20\n      add\n      dup1\n      dup4\n      gt\n      tag_137\n      jumpi\n      dup3\n      swap1\n      sub\n      0x1f\n      and\n      dup3\n      add\n      swap2\n    tag_135:\n      pop\n      pop\n      pop\n      pop\n      pop\n      dup2\n      mstore\n      0x20\n      add\n      0x01\n      dup3\n      add\n      sload\n      dup2\n      mstore\n      pop\n      pop\n      swap3\n      pop\n      pop\n      pop\n        /* \"vote.sol\":2422:2831  function getWinnerPlace() public view returns(Place memory) {... */\n      swap1\n      jump\t// out\n        /* \"vote.sol\":3025:3191  function finishVote() public onlyOwner {... */\n    tag_43:\n        /* \"vote.sol\":804:809  owner */\n      0x03\n      0x01\n      swap1\n      sload\n      swap1\n      0x0100\n      exp\n      swap1\n      div\n      0xffffffffffffffffffffffffffffffffffffffff\n      and\n        /* \"vote.sol\":790:809  msg.sender == owner */\n      0xffffffffffffffffffffffffffffffffffffffff\n      and\n        /* \"vote.sol\":790:800  msg.sender */\n      caller\n        /* \"vote.sol\":790:809  msg.sender == owner */\n      0xffffffffffffffffffffffffffffffffffffffff\n      and\n      eq\n        /* \"vote.sol\":782:836  require(msg.sender == owner, \"It's not owner address\") */\n      tag_139\n      jumpi\n      mload(0x40)\n      0x08c379a000000000000000000000000000000000000000000000000000000000\n      dup2\n      mstore\n      0x04\n      add\n      tag_140\n      swap1\n      tag_141\n      jump\t// in\n    tag_140:\n      mload(0x40)\n      dup1\n      swap2\n      sub\n      swap1\n      revert\n    tag_139:\n        /* \"vote.sol\":3092:3097  owner */\n      0x03\n      0x01\n      swap1\n      sload\n      swap1\n      0x0100\n      exp\n      swap1\n      div\n      0xffffffffffffffffffffffffffffffffffffffff\n      and\n        /* \"vote.sol\":3078:3097  msg.sender != owner */\n      0xffffffffffffffffffffffffffffffffffffffff\n      and\n        /* \"vote.sol\":3078:3088  msg.sender */\n      caller\n        /* \"vote.sol\":3078:3097  msg.sender != owner */\n      0xffffffffffffffffffffffffffffffffffffffff\n      and\n      eq\n        /* \"vote.sol\":3075:3153  if(msg.sender != owner) {... */\n      tag_143\n      jumpi\n        /* \"vote.sol\":3114:3141  revert(\"You are not owner\") */\n      mload(0x40)\n      0x08c379a000000000000000000000000000000000000000000000000000000000\n      dup2\n      mstore\n      0x04\n      add\n      tag_144\n      swap1\n      tag_145\n      jump\t// in\n    tag_144:\n      mload(0x40)\n      dup1\n      swap2\n      sub\n      swap1\n      revert\n        /* \"vote.sol\":3075:3153  if(msg.sender != owner) {... */\n    tag_143:\n        /* \"vote.sol\":3178:3183  false */\n      0x00\n        /* \"vote.sol\":3163:3175  isVoteActive */\n      0x03\n      0x00\n        /* \"vote.sol\":3163:3183  isVoteActive = false */\n      0x0100\n      exp\n      dup2\n      sload\n      dup2\n      0xff\n      mul\n      not\n      and\n      swap1\n      dup4\n      iszero\n      iszero\n      mul\n      or\n      swap1\n      sstore\n      pop\n        /* \"vote.sol\":3025:3191  function finishVote() public onlyOwner {... */\n      jump\t// out\n        /* \"vote.sol\":535:554  User[] public users */\n    tag_47:\n      0x01\n      dup2\n      dup2\n      sload\n      dup2\n      lt\n      tag_146\n      jumpi\n      0x00\n      dup1\n      revert\n    tag_146:\n      swap1\n      0x00\n      mstore\n      keccak256(0x00, 0x20)\n      swap1\n      0x03\n      mul\n      add\n      0x00\n      swap2\n      pop\n      swap1\n      pop\n      dup1\n      0x00\n      add\n      0x00\n      swap1\n      sload\n      swap1\n      0x0100\n      exp\n      swap1\n      div\n      0xffffffffffffffffffffffffffffffffffffffff\n      and\n      swap1\n      dup1\n      0x00\n      add\n      0x14\n      swap1\n      sload\n      swap1\n      0x0100\n      exp\n      swap1\n      div\n      0xff\n      and\n      swap1\n      dup1\n      0x01\n      add\n      mload(0x40)\n      dup1\n      0x40\n      add\n      0x40\n      mstore\n      swap1\n      dup2\n      0x00\n      dup3\n      add\n      dup1\n      sload\n      tag_148\n      swap1\n      tag_98\n      jump\t// in\n    tag_148:\n      dup1\n      0x1f\n      add\n      0x20\n      dup1\n      swap2\n      div\n      mul\n      0x20\n      add\n      mload(0x40)\n      swap1\n      dup2\n      add\n      0x40\n      mstore\n      dup1\n      swap3\n      swap2\n      swap1\n      dup2\n      dup2\n      mstore\n      0x20\n      add\n      dup3\n      dup1\n      sload\n      tag_149\n      swap1\n      tag_98\n      jump\t// in\n    tag_149:\n      dup1\n      iszero\n      tag_150\n      jumpi\n      dup1\n      0x1f\n      lt\n      tag_151\n      jumpi\n      0x0100\n      dup1\n      dup4\n      sload\n      div\n      mul\n      dup4\n      mstore\n      swap2\n      0x20\n      add\n      swap2\n      jump(tag_150)\n    tag_151:\n      dup3\n      add\n      swap2\n      swap1\n      0x00\n      mstore\n      keccak256(0x00, 0x20)\n      swap1\n    tag_152:\n      dup2\n      sload\n      dup2\n      mstore\n      swap1\n      0x01\n      add\n      swap1\n      0x20\n      add\n      dup1\n      dup4\n      gt\n      tag_152\n      jumpi\n      dup3\n      swap1\n      sub\n      0x1f\n      and\n      dup3\n      add\n      swap2\n    tag_150:\n      pop\n      pop\n      pop\n      pop\n      pop\n      dup2\n      mstore\n      0x20\n      add\n      0x01\n      dup3\n      add\n      sload\n      dup2\n      mstore\n      pop\n      pop\n      swap1\n      pop\n      dup4\n      jump\t// out\n        /* \"vote.sol\":3199:3363  function startVote() public onlyOwner {... */\n    tag_52:\n        /* \"vote.sol\":804:809  owner */\n      0x03\n      0x01\n      swap1\n      sload\n      swap1\n      0x0100\n      exp\n      swap1\n      div\n      0xffffffffffffffffffffffffffffffffffffffff\n      and\n        /* \"vote.sol\":790:809  msg.sender == owner */\n      0xffffffffffffffffffffffffffffffffffffffff\n      and\n        /* \"vote.sol\":790:800  msg.sender */\n      caller\n        /* \"vote.sol\":790:809  msg.sender == owner */\n      0xffffffffffffffffffffffffffffffffffffffff\n      and\n      eq\n        /* \"vote.sol\":782:836  require(msg.sender == owner, \"It's not owner address\") */\n      tag_154\n      jumpi\n      mload(0x40)\n      0x08c379a000000000000000000000000000000000000000000000000000000000\n      dup2\n      mstore\n      0x04\n      add\n      tag_155\n      swap1\n      tag_141\n      jump\t// in\n    tag_155:\n      mload(0x40)\n      dup1\n      swap2\n      sub\n      swap1\n      revert\n    tag_154:\n        /* \"vote.sol\":3265:3270  owner */\n      0x03\n      0x01\n      swap1\n      sload\n      swap1\n      0x0100\n      exp\n      swap1\n      div\n      0xffffffffffffffffffffffffffffffffffffffff\n      and\n        /* \"vote.sol\":3251:3270  msg.sender != owner */\n      0xffffffffffffffffffffffffffffffffffffffff\n      and\n        /* \"vote.sol\":3251:3261  msg.sender */\n      caller\n        /* \"vote.sol\":3251:3270  msg.sender != owner */\n      0xffffffffffffffffffffffffffffffffffffffff\n      and\n      eq\n        /* \"vote.sol\":3248:3326  if(msg.sender != owner) {... */\n      tag_157\n      jumpi\n        /* \"vote.sol\":3287:3314  revert(\"you are not owner\") */\n      mload(0x40)\n      0x08c379a000000000000000000000000000000000000000000000000000000000\n      dup2\n      mstore\n      0x04\n      add\n      tag_158\n      swap1\n      tag_159\n      jump\t// in\n    tag_158:\n      mload(0x40)\n      dup1\n      swap2\n      sub\n      swap1\n      revert\n        /* \"vote.sol\":3248:3326  if(msg.sender != owner) {... */\n    tag_157:\n        /* \"vote.sol\":3351:3355  true */\n      0x01\n        /* \"vote.sol\":3336:3348  isVoteActive */\n      0x03\n      0x00\n        /* \"vote.sol\":3336:3355  isVoteActive = true */\n      0x0100\n      exp\n      dup2\n      sload\n      dup2\n      0xff\n      mul\n      not\n      and\n      swap1\n      dup4\n      iszero\n      iszero\n      mul\n      or\n      swap1\n      sstore\n      pop\n        /* \"vote.sol\":3199:3363  function startVote() public onlyOwner {... */\n      jump\t// out\n        /* \"vote.sol\":663:687  bool public isVoteActive */\n    tag_55:\n      0x03\n      0x00\n      swap1\n      sload\n      swap1\n      0x0100\n      exp\n      swap1\n      div\n      0xff\n      and\n      dup2\n      jump\t// out\n        /* \"vote.sol\":694:714  address public owner */\n    tag_59:\n      0x03\n      0x01\n      swap1\n      sload\n      swap1\n      0x0100\n      exp\n      swap1\n      div\n      0xffffffffffffffffffffffffffffffffffffffff\n      and\n      dup2\n      jump\t// out\n        /* \"vote.sol\":92:190  address payable public constant moneyAddress = payable(0xc6E38C428C036A9824CD136137262dF3bEa00B1D) */\n    tag_64:\n        /* \"vote.sol\":147:189  0xc6E38C428C036A9824CD136137262dF3bEa00B1D */\n      0xc6e38c428c036a9824cd136137262df3bea00b1d\n        /* \"vote.sol\":92:190  address payable public constant moneyAddress = payable(0xc6E38C428C036A9824CD136137262dF3bEa00B1D) */\n      dup2\n      jump\t// out\n        /* \"vote.sol\":2878:2967  function getAllUsers() public view returns(User[] memory) {... */\n    tag_69:\n        /* \"vote.sol\":2921:2934  User[] memory */\n      0x60\n        /* \"vote.sol\":2954:2959  users */\n      0x01\n        /* \"vote.sol\":2947:2959  return users */\n      dup1\n      sload\n      dup1\n      0x20\n      mul\n      0x20\n      add\n      mload(0x40)\n      swap1\n      dup2\n      add\n      0x40\n      mstore\n      dup1\n      swap3\n      swap2\n      swap1\n      dup2\n      dup2\n      mstore\n      0x20\n      add\n      0x00\n      swap1\n    tag_161:\n      dup3\n      dup3\n      lt\n      iszero\n      tag_162\n      jumpi\n      dup4\n      dup3\n      swap1\n      0x00\n      mstore\n      keccak256(0x00, 0x20)\n      swap1\n      0x03\n      mul\n      add\n      mload(0x40)\n      dup1\n      0x60\n      add\n      0x40\n      mstore\n      swap1\n      dup2\n      0x00\n      dup3\n      add\n      0x00\n      swap1\n      sload\n      swap1\n      0x0100\n      exp\n      swap1\n      div\n      0xffffffffffffffffffffffffffffffffffffffff\n      and\n      0xffffffffffffffffffffffffffffffffffffffff\n      and\n      0xffffffffffffffffffffffffffffffffffffffff\n      and\n      dup2\n      mstore\n      0x20\n      add\n      0x00\n      dup3\n      add\n      0x14\n      swap1\n      sload\n      swap1\n      0x0100\n      exp\n      swap1\n      div\n      0xff\n      and\n      iszero\n      iszero\n      iszero\n      iszero\n      dup2\n      mstore\n      0x20\n      add\n      0x01\n      dup3\n      add\n      mload(0x40)\n      dup1\n      0x40\n      add\n      0x40\n      mstore\n      swap1\n      dup2\n      0x00\n      dup3\n      add\n      dup1\n      sload\n      tag_164\n      swap1\n      tag_98\n      jump\t// in\n    tag_164:\n      dup1\n      0x1f\n      add\n      0x20\n      dup1\n      swap2\n      div\n      mul\n      0x20\n      add\n      mload(0x40)\n      swap1\n      dup2\n      add\n      0x40\n      mstore\n      dup1\n      swap3\n      swap2\n      swap1\n      dup2\n      dup2\n      mstore\n      0x20\n      add\n      dup3\n      dup1\n      sload\n      tag_165\n      swap1\n      tag_98\n      jump\t// in\n    tag_165:\n      dup1\n      iszero\n      tag_166\n      jumpi\n      dup1\n      0x1f\n      lt\n      tag_167\n      jumpi\n      0x0100\n      dup1\n      dup4\n      sload\n      div\n      mul\n      dup4\n      mstore\n      swap2\n      0x20\n      add\n      swap2\n      jump(tag_166)\n    tag_167:\n      dup3\n      add\n      swap2\n      swap1\n      0x00\n      mstore\n      keccak256(0x00, 0x20)\n      swap1\n    tag_168:\n      dup2\n      sload\n      dup2\n      mstore\n      swap1\n      0x01\n      add\n      swap1\n      0x20\n      add\n      dup1\n      dup4\n      gt\n      tag_168\n      jumpi\n      dup3\n      swap1\n      sub\n      0x1f\n      and\n      dup3\n      add\n      swap2\n    tag_166:\n      pop\n      pop\n      pop\n      pop\n      pop\n      dup2\n      mstore\n      0x20\n      add\n      0x01\n      dup3\n      add\n      sload\n      dup2\n      mstore\n      pop\n      pop\n      dup2\n      mstore\n      pop\n      pop\n      dup2\n      mstore\n      0x20\n      add\n      swap1\n      0x01\n      add\n      swap1\n      jump(tag_161)\n    tag_162:\n      pop\n      pop\n      pop\n      pop\n      swap1\n      pop\n        /* \"vote.sol\":2878:2967  function getAllUsers() public view returns(User[] memory) {... */\n      swap1\n      jump\t// out\n        /* \"vote.sol\":482:503  Place[] public places */\n    tag_75:\n      0x00\n      dup2\n      dup2\n      sload\n      dup2\n      lt\n      tag_169\n      jumpi\n      0x00\n      dup1\n      revert\n    tag_169:\n      swap1\n      0x00\n      mstore\n      keccak256(0x00, 0x20)\n      swap1\n      0x02\n      mul\n      add\n      0x00\n      swap2\n      pop\n      swap1\n      pop\n      dup1\n      0x00\n      add\n      dup1\n      sload\n      tag_171\n      swap1\n      tag_98\n      jump\t// in\n    tag_171:\n      dup1\n      0x1f\n      add\n      0x20\n      dup1\n      swap2\n      div\n      mul\n      0x20\n      add\n      mload(0x40)\n      swap1\n      dup2\n      add\n      0x40\n      mstore\n      dup1\n      swap3\n      swap2\n      swap1\n      dup2\n      dup2\n      mstore\n      0x20\n      add\n      dup3\n      dup1\n      sload\n      tag_172\n      swap1\n      tag_98\n      jump\t// in\n    tag_172:\n      dup1\n      iszero\n      tag_173\n      jumpi\n      dup1\n      0x1f\n      lt\n      tag_174\n      jumpi\n      0x0100\n      dup1\n      dup4\n      sload\n      div\n      mul\n      dup4\n      mstore\n      swap2\n      0x20\n      add\n      swap2\n      jump(tag_173)\n    tag_174:\n      dup3\n      add\n      swap2\n      swap1\n      0x00\n      mstore\n      keccak256(0x00, 0x20)\n      swap1\n    tag_175:\n      dup2\n      sload\n      dup2\n      mstore\n      swap1\n      0x01\n      add\n      swap1\n      0x20\n      add\n      dup1\n      dup4\n      gt\n      tag_175\n      jumpi\n      dup3\n      swap1\n      sub\n      0x1f\n      and\n      dup3\n      add\n      swap2\n    tag_173:\n      pop\n      pop\n      pop\n      pop\n      pop\n      swap1\n      dup1\n      0x01\n      add\n      sload\n      swap1\n      pop\n      dup3\n      jump\t// out\n    tag_118:\n      mload(0x40)\n      dup1\n      0x40\n      add\n      0x40\n      mstore\n      dup1\n      0x60\n      dup2\n      mstore\n      0x20\n      add\n      0x00\n      dup2\n      mstore\n      pop\n      swap1\n      jump\t// out\n        /* \"#utility.yul\":88:205   */\n    tag_177:\n        /* \"#utility.yul\":197:198   */\n      0x00\n        /* \"#utility.yul\":194:195   */\n      dup1\n        /* \"#utility.yul\":187:199   */\n      revert\n        /* \"#utility.yul\":334:411   */\n    tag_179:\n        /* \"#utility.yul\":371:378   */\n      0x00\n        /* \"#utility.yul\":400:405   */\n      dup2\n        /* \"#utility.yul\":389:405   */\n      swap1\n      pop\n        /* \"#utility.yul\":334:411   */\n      swap2\n      swap1\n      pop\n      jump\t// out\n        /* \"#utility.yul\":417:539   */\n    tag_180:\n        /* \"#utility.yul\":490:514   */\n      tag_253\n        /* \"#utility.yul\":508:513   */\n      dup2\n        /* \"#utility.yul\":490:514   */\n      tag_179\n      jump\t// in\n    tag_253:\n        /* \"#utility.yul\":483:488   */\n      dup2\n        /* \"#utility.yul\":480:515   */\n      eq\n        /* \"#utility.yul\":470:533   */\n      tag_254\n      jumpi\n        /* \"#utility.yul\":529:530   */\n      0x00\n        /* \"#utility.yul\":526:527   */\n      dup1\n        /* \"#utility.yul\":519:531   */\n      revert\n        /* \"#utility.yul\":470:533   */\n    tag_254:\n        /* \"#utility.yul\":417:539   */\n      pop\n      jump\t// out\n        /* \"#utility.yul\":545:684   */\n    tag_181:\n        /* \"#utility.yul\":591:596   */\n      0x00\n        /* \"#utility.yul\":629:635   */\n      dup2\n        /* \"#utility.yul\":616:636   */\n      calldataload\n        /* \"#utility.yul\":607:636   */\n      swap1\n      pop\n        /* \"#utility.yul\":645:678   */\n      tag_256\n        /* \"#utility.yul\":672:677   */\n      dup2\n        /* \"#utility.yul\":645:678   */\n      tag_180\n      jump\t// in\n    tag_256:\n        /* \"#utility.yul\":545:684   */\n      swap3\n      swap2\n      pop\n      pop\n      jump\t// out\n        /* \"#utility.yul\":690:1019   */\n    tag_22:\n        /* \"#utility.yul\":749:755   */\n      0x00\n        /* \"#utility.yul\":798:800   */\n      0x20\n        /* \"#utility.yul\":786:795   */\n      dup3\n        /* \"#utility.yul\":777:784   */\n      dup5\n        /* \"#utility.yul\":773:796   */\n      sub\n        /* \"#utility.yul\":769:801   */\n      slt\n        /* \"#utility.yul\":766:885   */\n      iszero\n      tag_258\n      jumpi\n        /* \"#utility.yul\":804:883   */\n      tag_259\n      tag_177\n      jump\t// in\n    tag_259:\n        /* \"#utility.yul\":766:885   */\n    tag_258:\n        /* \"#utility.yul\":924:925   */\n      0x00\n        /* \"#utility.yul\":949:1002   */\n      tag_260\n        /* \"#utility.yul\":994:1001   */\n      dup5\n        /* \"#utility.yul\":985:991   */\n      dup3\n        /* \"#utility.yul\":974:983   */\n      dup6\n        /* \"#utility.yul\":970:992   */\n      add\n        /* \"#utility.yul\":949:1002   */\n      tag_181\n      jump\t// in\n    tag_260:\n        /* \"#utility.yul\":939:1002   */\n      swap2\n      pop\n        /* \"#utility.yul\":895:1012   */\n      pop\n        /* \"#utility.yul\":690:1019   */\n      swap3\n      swap2\n      pop\n      pop\n      jump\t// out\n        /* \"#utility.yul\":1025:1151   */\n    tag_182:\n        /* \"#utility.yul\":1062:1069   */\n      0x00\n        /* \"#utility.yul\":1102:1144   */\n      0xffffffffffffffffffffffffffffffffffffffff\n        /* \"#utility.yul\":1095:1100   */\n      dup3\n        /* \"#utility.yul\":1091:1145   */\n      and\n        /* \"#utility.yul\":1080:1145   */\n      swap1\n      pop\n        /* \"#utility.yul\":1025:1151   */\n      swap2\n      swap1\n      pop\n      jump\t// out\n        /* \"#utility.yul\":1157:1253   */\n    tag_183:\n        /* \"#utility.yul\":1194:1201   */\n      0x00\n        /* \"#utility.yul\":1223:1247   */\n      tag_263\n        /* \"#utility.yul\":1241:1246   */\n      dup3\n        /* \"#utility.yul\":1223:1247   */\n      tag_182\n      jump\t// in\n    tag_263:\n        /* \"#utility.yul\":1212:1247   */\n      swap1\n      pop\n        /* \"#utility.yul\":1157:1253   */\n      swap2\n      swap1\n      pop\n      jump\t// out\n        /* \"#utility.yul\":1259:1381   */\n    tag_184:\n        /* \"#utility.yul\":1332:1356   */\n      tag_265\n        /* \"#utility.yul\":1350:1355   */\n      dup2\n        /* \"#utility.yul\":1332:1356   */\n      tag_183\n      jump\t// in\n    tag_265:\n        /* \"#utility.yul\":1325:1330   */\n      dup2\n        /* \"#utility.yul\":1322:1357   */\n      eq\n        /* \"#utility.yul\":1312:1375   */\n      tag_266\n      jumpi\n        /* \"#utility.yul\":1371:1372   */\n      0x00\n        /* \"#utility.yul\":1368:1369   */\n      dup1\n        /* \"#utility.yul\":1361:1373   */\n      revert\n        /* \"#utility.yul\":1312:1375   */\n    tag_266:\n        /* \"#utility.yul\":1259:1381   */\n      pop\n      jump\t// out\n        /* \"#utility.yul\":1387:1526   */\n    tag_185:\n        /* \"#utility.yul\":1433:1438   */\n      0x00\n        /* \"#utility.yul\":1471:1477   */\n      dup2\n        /* \"#utility.yul\":1458:1478   */\n      calldataload\n        /* \"#utility.yul\":1449:1478   */\n      swap1\n      pop\n        /* \"#utility.yul\":1487:1520   */\n      tag_268\n        /* \"#utility.yul\":1514:1519   */\n      dup2\n        /* \"#utility.yul\":1487:1520   */\n      tag_184\n      jump\t// in\n    tag_268:\n        /* \"#utility.yul\":1387:1526   */\n      swap3\n      swap2\n      pop\n      pop\n      jump\t// out\n        /* \"#utility.yul\":1532:1861   */\n    tag_27:\n        /* \"#utility.yul\":1591:1597   */\n      0x00\n        /* \"#utility.yul\":1640:1642   */\n      0x20\n        /* \"#utility.yul\":1628:1637   */\n      dup3\n        /* \"#utility.yul\":1619:1626   */\n      dup5\n        /* \"#utility.yul\":1615:1638   */\n      sub\n        /* \"#utility.yul\":1611:1643   */\n      slt\n        /* \"#utility.yul\":1608:1727   */\n      iszero\n      tag_270\n      jumpi\n        /* \"#utility.yul\":1646:1725   */\n      tag_271\n      tag_177\n      jump\t// in\n    tag_271:\n        /* \"#utility.yul\":1608:1727   */\n    tag_270:\n        /* \"#utility.yul\":1766:1767   */\n      0x00\n        /* \"#utility.yul\":1791:1844   */\n      tag_272\n        /* \"#utility.yul\":1836:1843   */\n      dup5\n        /* \"#utility.yul\":1827:1833   */\n      dup3\n        /* \"#utility.yul\":1816:1825   */\n      dup6\n        /* \"#utility.yul\":1812:1834   */\n      add\n        /* \"#utility.yul\":1791:1844   */\n      tag_185\n      jump\t// in\n    tag_272:\n        /* \"#utility.yul\":1781:1844   */\n      swap2\n      pop\n        /* \"#utility.yul\":1737:1854   */\n      pop\n        /* \"#utility.yul\":1532:1861   */\n      swap3\n      swap2\n      pop\n      pop\n      jump\t// out\n        /* \"#utility.yul\":1867:1957   */\n    tag_186:\n        /* \"#utility.yul\":1901:1908   */\n      0x00\n        /* \"#utility.yul\":1944:1949   */\n      dup2\n        /* \"#utility.yul\":1937:1950   */\n      iszero\n        /* \"#utility.yul\":1930:1951   */\n      iszero\n        /* \"#utility.yul\":1919:1951   */\n      swap1\n      pop\n        /* \"#utility.yul\":1867:1957   */\n      swap2\n      swap1\n      pop\n      jump\t// out\n        /* \"#utility.yul\":1963:2072   */\n    tag_187:\n        /* \"#utility.yul\":2044:2065   */\n      tag_275\n        /* \"#utility.yul\":2059:2064   */\n      dup2\n        /* \"#utility.yul\":2044:2065   */\n      tag_186\n      jump\t// in\n    tag_275:\n        /* \"#utility.yul\":2039:2042   */\n      dup3\n        /* \"#utility.yul\":2032:2066   */\n      mstore\n        /* \"#utility.yul\":1963:2072   */\n      pop\n      pop\n      jump\t// out\n        /* \"#utility.yul\":2078:2288   */\n    tag_30:\n        /* \"#utility.yul\":2165:2169   */\n      0x00\n        /* \"#utility.yul\":2203:2205   */\n      0x20\n        /* \"#utility.yul\":2192:2201   */\n      dup3\n        /* \"#utility.yul\":2188:2206   */\n      add\n        /* \"#utility.yul\":2180:2206   */\n      swap1\n      pop\n        /* \"#utility.yul\":2216:2281   */\n      tag_277\n        /* \"#utility.yul\":2278:2279   */\n      0x00\n        /* \"#utility.yul\":2267:2276   */\n      dup4\n        /* \"#utility.yul\":2263:2280   */\n      add\n        /* \"#utility.yul\":2254:2260   */\n      dup5\n        /* \"#utility.yul\":2216:2281   */\n      tag_187\n      jump\t// in\n    tag_277:\n        /* \"#utility.yul\":2078:2288   */\n      swap3\n      swap2\n      pop\n      pop\n      jump\t// out\n        /* \"#utility.yul\":2294:2429   */\n    tag_188:\n        /* \"#utility.yul\":2382:2388   */\n      0x00\n        /* \"#utility.yul\":2416:2421   */\n      dup2\n        /* \"#utility.yul\":2410:2422   */\n      mload\n        /* \"#utility.yul\":2400:2422   */\n      swap1\n      pop\n        /* \"#utility.yul\":2294:2429   */\n      swap2\n      swap1\n      pop\n      jump\t// out\n        /* \"#utility.yul\":2435:2640   */\n    tag_189:\n        /* \"#utility.yul\":2555:2566   */\n      0x00\n        /* \"#utility.yul\":2589:2595   */\n      dup3\n        /* \"#utility.yul\":2584:2587   */\n      dup3\n        /* \"#utility.yul\":2577:2596   */\n      mstore\n        /* \"#utility.yul\":2629:2633   */\n      0x20\n        /* \"#utility.yul\":2624:2627   */\n      dup3\n        /* \"#utility.yul\":2620:2634   */\n      add\n        /* \"#utility.yul\":2605:2634   */\n      swap1\n      pop\n        /* \"#utility.yul\":2435:2640   */\n      swap3\n      swap2\n      pop\n      pop\n      jump\t// out\n        /* \"#utility.yul\":2646:2799   */\n    tag_190:\n        /* \"#utility.yul\":2734:2738   */\n      0x00\n        /* \"#utility.yul\":2757:2760   */\n      dup2\n        /* \"#utility.yul\":2749:2760   */\n      swap1\n      pop\n        /* \"#utility.yul\":2787:2791   */\n      0x20\n        /* \"#utility.yul\":2782:2785   */\n      dup3\n        /* \"#utility.yul\":2778:2792   */\n      add\n        /* \"#utility.yul\":2770:2792   */\n      swap1\n      pop\n        /* \"#utility.yul\":2646:2799   */\n      swap2\n      swap1\n      pop\n      jump\t// out\n        /* \"#utility.yul\":2805:2904   */\n    tag_191:\n        /* \"#utility.yul\":2857:2863   */\n      0x00\n        /* \"#utility.yul\":2891:2896   */\n      dup2\n        /* \"#utility.yul\":2885:2897   */\n      mload\n        /* \"#utility.yul\":2875:2897   */\n      swap1\n      pop\n        /* \"#utility.yul\":2805:2904   */\n      swap2\n      swap1\n      pop\n      jump\t// out\n        /* \"#utility.yul\":2910:3069   */\n    tag_192:\n        /* \"#utility.yul\":2984:2995   */\n      0x00\n        /* \"#utility.yul\":3018:3024   */\n      dup3\n        /* \"#utility.yul\":3013:3016   */\n      dup3\n        /* \"#utility.yul\":3006:3025   */\n      mstore\n        /* \"#utility.yul\":3058:3062   */\n      0x20\n        /* \"#utility.yul\":3053:3056   */\n      dup3\n        /* \"#utility.yul\":3049:3063   */\n      add\n        /* \"#utility.yul\":3034:3063   */\n      swap1\n      pop\n        /* \"#utility.yul\":2910:3069   */\n      swap3\n      swap2\n      pop\n      pop\n      jump\t// out\n        /* \"#utility.yul\":3075:3321   */\n    tag_193:\n        /* \"#utility.yul\":3156:3157   */\n      0x00\n        /* \"#utility.yul\":3166:3279   */\n    tag_284:\n        /* \"#utility.yul\":3180:3186   */\n      dup4\n        /* \"#utility.yul\":3177:3178   */\n      dup2\n        /* \"#utility.yul\":3174:3187   */\n      lt\n        /* \"#utility.yul\":3166:3279   */\n      iszero\n      tag_286\n      jumpi\n        /* \"#utility.yul\":3265:3266   */\n      dup1\n        /* \"#utility.yul\":3260:3263   */\n      dup3\n        /* \"#utility.yul\":3256:3267   */\n      add\n        /* \"#utility.yul\":3250:3268   */\n      mload\n        /* \"#utility.yul\":3246:3247   */\n      dup2\n        /* \"#utility.yul\":3241:3244   */\n      dup5\n        /* \"#utility.yul\":3237:3248   */\n      add\n        /* \"#utility.yul\":3230:3269   */\n      mstore\n        /* \"#utility.yul\":3202:3204   */\n      0x20\n        /* \"#utility.yul\":3199:3200   */\n      dup2\n        /* \"#utility.yul\":3195:3205   */\n      add\n        /* \"#utility.yul\":3190:3205   */\n      swap1\n      pop\n        /* \"#utility.yul\":3166:3279   */\n      jump(tag_284)\n    tag_286:\n        /* \"#utility.yul\":3313:3314   */\n      0x00\n        /* \"#utility.yul\":3304:3310   */\n      dup5\n        /* \"#utility.yul\":3299:3302   */\n      dup5\n        /* \"#utility.yul\":3295:3311   */\n      add\n        /* \"#utility.yul\":3288:3315   */\n      mstore\n        /* \"#utility.yul\":3137:3321   */\n      pop\n        /* \"#utility.yul\":3075:3321   */\n      pop\n      pop\n      pop\n      jump\t// out\n        /* \"#utility.yul\":3327:3429   */\n    tag_194:\n        /* \"#utility.yul\":3368:3374   */\n      0x00\n        /* \"#utility.yul\":3419:3421   */\n      0x1f\n        /* \"#utility.yul\":3415:3422   */\n      not\n        /* \"#utility.yul\":3410:3412   */\n      0x1f\n        /* \"#utility.yul\":3403:3408   */\n      dup4\n        /* \"#utility.yul\":3399:3413   */\n      add\n        /* \"#utility.yul\":3395:3423   */\n      and\n        /* \"#utility.yul\":3385:3423   */\n      swap1\n      pop\n        /* \"#utility.yul\":3327:3429   */\n      swap2\n      swap1\n      pop\n      jump\t// out\n        /* \"#utility.yul\":3435:3792   */\n    tag_195:\n        /* \"#utility.yul\":3513:3516   */\n      0x00\n        /* \"#utility.yul\":3541:3580   */\n      tag_289\n        /* \"#utility.yul\":3574:3579   */\n      dup3\n        /* \"#utility.yul\":3541:3580   */\n      tag_191\n      jump\t// in\n    tag_289:\n        /* \"#utility.yul\":3596:3657   */\n      tag_290\n        /* \"#utility.yul\":3650:3656   */\n      dup2\n        /* \"#utility.yul\":3645:3648   */\n      dup6\n        /* \"#utility.yul\":3596:3657   */\n      tag_192\n      jump\t// in\n    tag_290:\n        /* \"#utility.yul\":3589:3657   */\n      swap4\n      pop\n        /* \"#utility.yul\":3666:3731   */\n      tag_291\n        /* \"#utility.yul\":3724:3730   */\n      dup2\n        /* \"#utility.yul\":3719:3722   */\n      dup6\n        /* \"#utility.yul\":3712:3716   */\n      0x20\n        /* \"#utility.yul\":3705:3710   */\n      dup7\n        /* \"#utility.yul\":3701:3717   */\n      add\n        /* \"#utility.yul\":3666:3731   */\n      tag_193\n      jump\t// in\n    tag_291:\n        /* \"#utility.yul\":3756:3785   */\n      tag_292\n        /* \"#utility.yul\":3778:3784   */\n      dup2\n        /* \"#utility.yul\":3756:3785   */\n      tag_194\n      jump\t// in\n    tag_292:\n        /* \"#utility.yul\":3751:3754   */\n      dup5\n        /* \"#utility.yul\":3747:3786   */\n      add\n        /* \"#utility.yul\":3740:3786   */\n      swap2\n      pop\n        /* \"#utility.yul\":3517:3792   */\n      pop\n        /* \"#utility.yul\":3435:3792   */\n      swap3\n      swap2\n      pop\n      pop\n      jump\t// out\n        /* \"#utility.yul\":3798:3906   */\n    tag_196:\n        /* \"#utility.yul\":3875:3899   */\n      tag_294\n        /* \"#utility.yul\":3893:3898   */\n      dup2\n        /* \"#utility.yul\":3875:3899   */\n      tag_179\n      jump\t// in\n    tag_294:\n        /* \"#utility.yul\":3870:3873   */\n      dup3\n        /* \"#utility.yul\":3863:3900   */\n      mstore\n        /* \"#utility.yul\":3798:3906   */\n      pop\n      pop\n      jump\t// out\n        /* \"#utility.yul\":3970:4564   */\n    tag_197:\n        /* \"#utility.yul\":4071:4074   */\n      0x00\n        /* \"#utility.yul\":4107:4111   */\n      0x40\n        /* \"#utility.yul\":4102:4105   */\n      dup4\n        /* \"#utility.yul\":4098:4112   */\n      add\n        /* \"#utility.yul\":4194:4198   */\n      0x00\n        /* \"#utility.yul\":4187:4192   */\n      dup4\n        /* \"#utility.yul\":4183:4199   */\n      add\n        /* \"#utility.yul\":4177:4200   */\n      mload\n        /* \"#utility.yul\":4247:4250   */\n      dup5\n        /* \"#utility.yul\":4241:4245   */\n      dup3\n        /* \"#utility.yul\":4237:4251   */\n      sub\n        /* \"#utility.yul\":4230:4234   */\n      0x00\n        /* \"#utility.yul\":4225:4228   */\n      dup7\n        /* \"#utility.yul\":4221:4235   */\n      add\n        /* \"#utility.yul\":4214:4252   */\n      mstore\n        /* \"#utility.yul\":4273:4346   */\n      tag_296\n        /* \"#utility.yul\":4341:4345   */\n      dup3\n        /* \"#utility.yul\":4327:4339   */\n      dup3\n        /* \"#utility.yul\":4273:4346   */\n      tag_195\n      jump\t// in\n    tag_296:\n        /* \"#utility.yul\":4265:4346   */\n      swap2\n      pop\n        /* \"#utility.yul\":4122:4357   */\n      pop\n        /* \"#utility.yul\":4445:4449   */\n      0x20\n        /* \"#utility.yul\":4438:4443   */\n      dup4\n        /* \"#utility.yul\":4434:4450   */\n      add\n        /* \"#utility.yul\":4428:4451   */\n      mload\n        /* \"#utility.yul\":4464:4527   */\n      tag_297\n        /* \"#utility.yul\":4521:4525   */\n      0x20\n        /* \"#utility.yul\":4516:4519   */\n      dup7\n        /* \"#utility.yul\":4512:4526   */\n      add\n        /* \"#utility.yul\":4498:4510   */\n      dup3\n        /* \"#utility.yul\":4464:4527   */\n      tag_196\n      jump\t// in\n    tag_297:\n        /* \"#utility.yul\":4367:4537   */\n      pop\n        /* \"#utility.yul\":4554:4558   */\n      dup1\n        /* \"#utility.yul\":4547:4558   */\n      swap2\n      pop\n        /* \"#utility.yul\":4076:4564   */\n      pop\n        /* \"#utility.yul\":3970:4564   */\n      swap3\n      swap2\n      pop\n      pop\n      jump\t// out\n        /* \"#utility.yul\":4570:4810   */\n    tag_198:\n        /* \"#utility.yul\":4681:4691   */\n      0x00\n        /* \"#utility.yul\":4716:4804   */\n      tag_299\n        /* \"#utility.yul\":4800:4803   */\n      dup4\n        /* \"#utility.yul\":4792:4798   */\n      dup4\n        /* \"#utility.yul\":4716:4804   */\n      tag_197\n      jump\t// in\n    tag_299:\n        /* \"#utility.yul\":4702:4804   */\n      swap1\n      pop\n        /* \"#utility.yul\":4570:4810   */\n      swap3\n      swap2\n      pop\n      pop\n      jump\t// out\n        /* \"#utility.yul\":4816:4950   */\n    tag_199:\n        /* \"#utility.yul\":4907:4911   */\n      0x00\n        /* \"#utility.yul\":4939:4943   */\n      0x20\n        /* \"#utility.yul\":4934:4937   */\n      dup3\n        /* \"#utility.yul\":4930:4944   */\n      add\n        /* \"#utility.yul\":4922:4944   */\n      swap1\n      pop\n        /* \"#utility.yul\":4816:4950   */\n      swap2\n      swap1\n      pop\n      jump\t// out\n        /* \"#utility.yul\":5018:6097   */\n    tag_200:\n        /* \"#utility.yul\":5179:5182   */\n      0x00\n        /* \"#utility.yul\":5208:5283   */\n      tag_302\n        /* \"#utility.yul\":5277:5282   */\n      dup3\n        /* \"#utility.yul\":5208:5283   */\n      tag_188\n      jump\t// in\n    tag_302:\n        /* \"#utility.yul\":5299:5406   */\n      tag_303\n        /* \"#utility.yul\":5399:5405   */\n      dup2\n        /* \"#utility.yul\":5394:5397   */\n      dup6\n        /* \"#utility.yul\":5299:5406   */\n      tag_189\n      jump\t// in\n    tag_303:\n        /* \"#utility.yul\":5292:5406   */\n      swap4\n      pop\n        /* \"#utility.yul\":5432:5435   */\n      dup4\n        /* \"#utility.yul\":5477:5481   */\n      0x20\n        /* \"#utility.yul\":5469:5475   */\n      dup3\n        /* \"#utility.yul\":5465:5482   */\n      mul\n        /* \"#utility.yul\":5460:5463   */\n      dup6\n        /* \"#utility.yul\":5456:5483   */\n      add\n        /* \"#utility.yul\":5507:5584   */\n      tag_304\n        /* \"#utility.yul\":5578:5583   */\n      dup6\n        /* \"#utility.yul\":5507:5584   */\n      tag_190\n      jump\t// in\n    tag_304:\n        /* \"#utility.yul\":5607:5614   */\n      dup1\n        /* \"#utility.yul\":5638:5639   */\n      0x00\n        /* \"#utility.yul\":5623:6052   */\n    tag_305:\n        /* \"#utility.yul\":5648:5654   */\n      dup6\n        /* \"#utility.yul\":5645:5646   */\n      dup2\n        /* \"#utility.yul\":5642:5655   */\n      lt\n        /* \"#utility.yul\":5623:6052   */\n      iszero\n      tag_307\n      jumpi\n        /* \"#utility.yul\":5719:5728   */\n      dup5\n        /* \"#utility.yul\":5713:5717   */\n      dup5\n        /* \"#utility.yul\":5709:5729   */\n      sub\n        /* \"#utility.yul\":5704:5707   */\n      dup10\n        /* \"#utility.yul\":5697:5730   */\n      mstore\n        /* \"#utility.yul\":5770:5776   */\n      dup2\n        /* \"#utility.yul\":5764:5777   */\n      mload\n        /* \"#utility.yul\":5798:5904   */\n      tag_308\n        /* \"#utility.yul\":5899:5903   */\n      dup6\n        /* \"#utility.yul\":5884:5897   */\n      dup3\n        /* \"#utility.yul\":5798:5904   */\n      tag_198\n      jump\t// in\n    tag_308:\n        /* \"#utility.yul\":5790:5904   */\n      swap5\n      pop\n        /* \"#utility.yul\":5927:6008   */\n      tag_309\n        /* \"#utility.yul\":6001:6007   */\n      dup4\n        /* \"#utility.yul\":5927:6008   */\n      tag_199\n      jump\t// in\n    tag_309:\n        /* \"#utility.yul\":5917:6008   */\n      swap3\n      pop\n        /* \"#utility.yul\":6037:6041   */\n      0x20\n        /* \"#utility.yul\":6032:6035   */\n      dup11\n        /* \"#utility.yul\":6028:6042   */\n      add\n        /* \"#utility.yul\":6021:6042   */\n      swap10\n      pop\n        /* \"#utility.yul\":5683:6052   */\n      pop\n        /* \"#utility.yul\":5670:5671   */\n      0x01\n        /* \"#utility.yul\":5667:5668   */\n      dup2\n        /* \"#utility.yul\":5663:5672   */\n      add\n        /* \"#utility.yul\":5658:5672   */\n      swap1\n      pop\n        /* \"#utility.yul\":5623:6052   */\n      jump(tag_305)\n    tag_307:\n        /* \"#utility.yul\":5627:5641   */\n      pop\n        /* \"#utility.yul\":6068:6072   */\n      dup3\n        /* \"#utility.yul\":6061:6072   */\n      swap8\n      pop\n        /* \"#utility.yul\":6088:6091   */\n      dup8\n        /* \"#utility.yul\":6081:6091   */\n      swap6\n      pop\n        /* \"#utility.yul\":5184:6097   */\n      pop\n      pop\n      pop\n      pop\n      pop\n        /* \"#utility.yul\":5018:6097   */\n      swap3\n      swap2\n      pop\n      pop\n      jump\t// out\n        /* \"#utility.yul\":6103:6560   */\n    tag_35:\n        /* \"#utility.yul\":6288:6292   */\n      0x00\n        /* \"#utility.yul\":6326:6328   */\n      0x20\n        /* \"#utility.yul\":6315:6324   */\n      dup3\n        /* \"#utility.yul\":6311:6329   */\n      add\n        /* \"#utility.yul\":6303:6329   */\n      swap1\n      pop\n        /* \"#utility.yul\":6375:6384   */\n      dup2\n        /* \"#utility.yul\":6369:6373   */\n      dup2\n        /* \"#utility.yul\":6365:6385   */\n      sub\n        /* \"#utility.yul\":6361:6362   */\n      0x00\n        /* \"#utility.yul\":6350:6359   */\n      dup4\n        /* \"#utility.yul\":6346:6363   */\n      add\n        /* \"#utility.yul\":6339:6386   */\n      mstore\n        /* \"#utility.yul\":6403:6553   */\n      tag_311\n        /* \"#utility.yul\":6548:6552   */\n      dup2\n        /* \"#utility.yul\":6539:6545   */\n      dup5\n        /* \"#utility.yul\":6403:6553   */\n      tag_200\n      jump\t// in\n    tag_311:\n        /* \"#utility.yul\":6395:6553   */\n      swap1\n      pop\n        /* \"#utility.yul\":6103:6560   */\n      swap3\n      swap2\n      pop\n      pop\n      jump\t// out\n        /* \"#utility.yul\":6624:7228   */\n    tag_201:\n        /* \"#utility.yul\":6735:6738   */\n      0x00\n        /* \"#utility.yul\":6771:6775   */\n      0x40\n        /* \"#utility.yul\":6766:6769   */\n      dup4\n        /* \"#utility.yul\":6762:6776   */\n      add\n        /* \"#utility.yul\":6858:6862   */\n      0x00\n        /* \"#utility.yul\":6851:6856   */\n      dup4\n        /* \"#utility.yul\":6847:6863   */\n      add\n        /* \"#utility.yul\":6841:6864   */\n      mload\n        /* \"#utility.yul\":6911:6914   */\n      dup5\n        /* \"#utility.yul\":6905:6909   */\n      dup3\n        /* \"#utility.yul\":6901:6915   */\n      sub\n        /* \"#utility.yul\":6894:6898   */\n      0x00\n        /* \"#utility.yul\":6889:6892   */\n      dup7\n        /* \"#utility.yul\":6885:6899   */\n      add\n        /* \"#utility.yul\":6878:6916   */\n      mstore\n        /* \"#utility.yul\":6937:7010   */\n      tag_313\n        /* \"#utility.yul\":7005:7009   */\n      dup3\n        /* \"#utility.yul\":6991:7003   */\n      dup3\n        /* \"#utility.yul\":6937:7010   */\n      tag_195\n      jump\t// in\n    tag_313:\n        /* \"#utility.yul\":6929:7010   */\n      swap2\n      pop\n        /* \"#utility.yul\":6786:7021   */\n      pop\n        /* \"#utility.yul\":7109:7113   */\n      0x20\n        /* \"#utility.yul\":7102:7107   */\n      dup4\n        /* \"#utility.yul\":7098:7114   */\n      add\n        /* \"#utility.yul\":7092:7115   */\n      mload\n        /* \"#utility.yul\":7128:7191   */\n      tag_314\n        /* \"#utility.yul\":7185:7189   */\n      0x20\n        /* \"#utility.yul\":7180:7183   */\n      dup7\n        /* \"#utility.yul\":7176:7190   */\n      add\n        /* \"#utility.yul\":7162:7174   */\n      dup3\n        /* \"#utility.yul\":7128:7191   */\n      tag_196\n      jump\t// in\n    tag_314:\n        /* \"#utility.yul\":7031:7201   */\n      pop\n        /* \"#utility.yul\":7218:7222   */\n      dup1\n        /* \"#utility.yul\":7211:7222   */\n      swap2\n      pop\n        /* \"#utility.yul\":6740:7228   */\n      pop\n        /* \"#utility.yul\":6624:7228   */\n      swap3\n      swap2\n      pop\n      pop\n      jump\t// out\n        /* \"#utility.yul\":7234:7591   */\n    tag_40:\n        /* \"#utility.yul\":7369:7373   */\n      0x00\n        /* \"#utility.yul\":7407:7409   */\n      0x20\n        /* \"#utility.yul\":7396:7405   */\n      dup3\n        /* \"#utility.yul\":7392:7410   */\n      add\n        /* \"#utility.yul\":7384:7410   */\n      swap1\n      pop\n        /* \"#utility.yul\":7456:7465   */\n      dup2\n        /* \"#utility.yul\":7450:7454   */\n      dup2\n        /* \"#utility.yul\":7446:7466   */\n      sub\n        /* \"#utility.yul\":7442:7443   */\n      0x00\n        /* \"#utility.yul\":7431:7440   */\n      dup4\n        /* \"#utility.yul\":7427:7444   */\n      add\n        /* \"#utility.yul\":7420:7467   */\n      mstore\n        /* \"#utility.yul\":7484:7584   */\n      tag_316\n        /* \"#utility.yul\":7579:7583   */\n      dup2\n        /* \"#utility.yul\":7570:7576   */\n      dup5\n        /* \"#utility.yul\":7484:7584   */\n      tag_201\n      jump\t// in\n    tag_316:\n        /* \"#utility.yul\":7476:7584   */\n      swap1\n      pop\n        /* \"#utility.yul\":7234:7591   */\n      swap3\n      swap2\n      pop\n      pop\n      jump\t// out\n        /* \"#utility.yul\":7597:7715   */\n    tag_202:\n        /* \"#utility.yul\":7684:7708   */\n      tag_318\n        /* \"#utility.yul\":7702:7707   */\n      dup2\n        /* \"#utility.yul\":7684:7708   */\n      tag_183\n      jump\t// in\n    tag_318:\n        /* \"#utility.yul\":7679:7682   */\n      dup3\n        /* \"#utility.yul\":7672:7709   */\n      mstore\n        /* \"#utility.yul\":7597:7715   */\n      pop\n      pop\n      jump\t// out\n        /* \"#utility.yul\":7721:8286   */\n    tag_49:\n        /* \"#utility.yul\":7906:7910   */\n      0x00\n        /* \"#utility.yul\":7944:7946   */\n      0x60\n        /* \"#utility.yul\":7933:7942   */\n      dup3\n        /* \"#utility.yul\":7929:7947   */\n      add\n        /* \"#utility.yul\":7921:7947   */\n      swap1\n      pop\n        /* \"#utility.yul\":7957:8028   */\n      tag_320\n        /* \"#utility.yul\":8025:8026   */\n      0x00\n        /* \"#utility.yul\":8014:8023   */\n      dup4\n        /* \"#utility.yul\":8010:8027   */\n      add\n        /* \"#utility.yul\":8001:8007   */\n      dup7\n        /* \"#utility.yul\":7957:8028   */\n      tag_202\n      jump\t// in\n    tag_320:\n        /* \"#utility.yul\":8038:8104   */\n      tag_321\n        /* \"#utility.yul\":8100:8102   */\n      0x20\n        /* \"#utility.yul\":8089:8098   */\n      dup4\n        /* \"#utility.yul\":8085:8103   */\n      add\n        /* \"#utility.yul\":8076:8082   */\n      dup6\n        /* \"#utility.yul\":8038:8104   */\n      tag_187\n      jump\t// in\n    tag_321:\n        /* \"#utility.yul\":8151:8160   */\n      dup2\n        /* \"#utility.yul\":8145:8149   */\n      dup2\n        /* \"#utility.yul\":8141:8161   */\n      sub\n        /* \"#utility.yul\":8136:8138   */\n      0x40\n        /* \"#utility.yul\":8125:8134   */\n      dup4\n        /* \"#utility.yul\":8121:8139   */\n      add\n        /* \"#utility.yul\":8114:8162   */\n      mstore\n        /* \"#utility.yul\":8179:8279   */\n      tag_322\n        /* \"#utility.yul\":8274:8278   */\n      dup2\n        /* \"#utility.yul\":8265:8271   */\n      dup5\n        /* \"#utility.yul\":8179:8279   */\n      tag_201\n      jump\t// in\n    tag_322:\n        /* \"#utility.yul\":8171:8279   */\n      swap1\n      pop\n        /* \"#utility.yul\":7721:8286   */\n      swap5\n      swap4\n      pop\n      pop\n      pop\n      pop\n      jump\t// out\n        /* \"#utility.yul\":8292:8514   */\n    tag_61:\n        /* \"#utility.yul\":8385:8389   */\n      0x00\n        /* \"#utility.yul\":8423:8425   */\n      0x20\n        /* \"#utility.yul\":8412:8421   */\n      dup3\n        /* \"#utility.yul\":8408:8426   */\n      add\n        /* \"#utility.yul\":8400:8426   */\n      swap1\n      pop\n        /* \"#utility.yul\":8436:8507   */\n      tag_324\n        /* \"#utility.yul\":8504:8505   */\n      0x00\n        /* \"#utility.yul\":8493:8502   */\n      dup4\n        /* \"#utility.yul\":8489:8506   */\n      add\n        /* \"#utility.yul\":8480:8486   */\n      dup5\n        /* \"#utility.yul\":8436:8507   */\n      tag_202\n      jump\t// in\n    tag_324:\n        /* \"#utility.yul\":8292:8514   */\n      swap3\n      swap2\n      pop\n      pop\n      jump\t// out\n        /* \"#utility.yul\":8520:8624   */\n    tag_203:\n        /* \"#utility.yul\":8565:8572   */\n      0x00\n        /* \"#utility.yul\":8594:8618   */\n      tag_326\n        /* \"#utility.yul\":8612:8617   */\n      dup3\n        /* \"#utility.yul\":8594:8618   */\n      tag_182\n      jump\t// in\n    tag_326:\n        /* \"#utility.yul\":8583:8618   */\n      swap1\n      pop\n        /* \"#utility.yul\":8520:8624   */\n      swap2\n      swap1\n      pop\n      jump\t// out\n        /* \"#utility.yul\":8630:8772   */\n    tag_204:\n        /* \"#utility.yul\":8733:8765   */\n      tag_328\n        /* \"#utility.yul\":8759:8764   */\n      dup2\n        /* \"#utility.yul\":8733:8765   */\n      tag_203\n      jump\t// in\n    tag_328:\n        /* \"#utility.yul\":8728:8731   */\n      dup3\n        /* \"#utility.yul\":8721:8766   */\n      mstore\n        /* \"#utility.yul\":8630:8772   */\n      pop\n      pop\n      jump\t// out\n        /* \"#utility.yul\":8778:9032   */\n    tag_66:\n        /* \"#utility.yul\":8887:8891   */\n      0x00\n        /* \"#utility.yul\":8925:8927   */\n      0x20\n        /* \"#utility.yul\":8914:8923   */\n      dup3\n        /* \"#utility.yul\":8910:8928   */\n      add\n        /* \"#utility.yul\":8902:8928   */\n      swap1\n      pop\n        /* \"#utility.yul\":8938:9025   */\n      tag_330\n        /* \"#utility.yul\":9022:9023   */\n      0x00\n        /* \"#utility.yul\":9011:9020   */\n      dup4\n        /* \"#utility.yul\":9007:9024   */\n      add\n        /* \"#utility.yul\":8998:9004   */\n      dup5\n        /* \"#utility.yul\":8938:9025   */\n      tag_204\n      jump\t// in\n    tag_330:\n        /* \"#utility.yul\":8778:9032   */\n      swap3\n      swap2\n      pop\n      pop\n      jump\t// out\n        /* \"#utility.yul\":9038:9172   */\n    tag_205:\n        /* \"#utility.yul\":9125:9131   */\n      0x00\n        /* \"#utility.yul\":9159:9164   */\n      dup2\n        /* \"#utility.yul\":9153:9165   */\n      mload\n        /* \"#utility.yul\":9143:9165   */\n      swap1\n      pop\n        /* \"#utility.yul\":9038:9172   */\n      swap2\n      swap1\n      pop\n      jump\t// out\n        /* \"#utility.yul\":9178:9382   */\n    tag_206:\n        /* \"#utility.yul\":9297:9308   */\n      0x00\n        /* \"#utility.yul\":9331:9337   */\n      dup3\n        /* \"#utility.yul\":9326:9329   */\n      dup3\n        /* \"#utility.yul\":9319:9338   */\n      mstore\n        /* \"#utility.yul\":9371:9375   */\n      0x20\n        /* \"#utility.yul\":9366:9369   */\n      dup3\n        /* \"#utility.yul\":9362:9376   */\n      add\n        /* \"#utility.yul\":9347:9376   */\n      swap1\n      pop\n        /* \"#utility.yul\":9178:9382   */\n      swap3\n      swap2\n      pop\n      pop\n      jump\t// out\n        /* \"#utility.yul\":9388:9540   */\n    tag_207:\n        /* \"#utility.yul\":9475:9479   */\n      0x00\n        /* \"#utility.yul\":9498:9501   */\n      dup2\n        /* \"#utility.yul\":9490:9501   */\n      swap1\n      pop\n        /* \"#utility.yul\":9528:9532   */\n      0x20\n        /* \"#utility.yul\":9523:9526   */\n      dup3\n        /* \"#utility.yul\":9519:9533   */\n      add\n        /* \"#utility.yul\":9511:9533   */\n      swap1\n      pop\n        /* \"#utility.yul\":9388:9540   */\n      swap2\n      swap1\n      pop\n      jump\t// out\n        /* \"#utility.yul\":9546:9654   */\n    tag_208:\n        /* \"#utility.yul\":9623:9647   */\n      tag_335\n        /* \"#utility.yul\":9641:9646   */\n      dup2\n        /* \"#utility.yul\":9623:9647   */\n      tag_183\n      jump\t// in\n    tag_335:\n        /* \"#utility.yul\":9618:9621   */\n      dup3\n        /* \"#utility.yul\":9611:9648   */\n      mstore\n        /* \"#utility.yul\":9546:9654   */\n      pop\n      pop\n      jump\t// out\n        /* \"#utility.yul\":9660:9759   */\n    tag_209:\n        /* \"#utility.yul\":9731:9752   */\n      tag_337\n        /* \"#utility.yul\":9746:9751   */\n      dup2\n        /* \"#utility.yul\":9731:9752   */\n      tag_186\n      jump\t// in\n    tag_337:\n        /* \"#utility.yul\":9726:9729   */\n      dup3\n        /* \"#utility.yul\":9719:9753   */\n      mstore\n        /* \"#utility.yul\":9660:9759   */\n      pop\n      pop\n      jump\t// out\n        /* \"#utility.yul\":9821:10614   */\n    tag_210:\n        /* \"#utility.yul\":9920:9923   */\n      0x00\n        /* \"#utility.yul\":9956:9960   */\n      0x60\n        /* \"#utility.yul\":9951:9954   */\n      dup4\n        /* \"#utility.yul\":9947:9961   */\n      add\n        /* \"#utility.yul\":10050:10054   */\n      0x00\n        /* \"#utility.yul\":10043:10048   */\n      dup4\n        /* \"#utility.yul\":10039:10055   */\n      add\n        /* \"#utility.yul\":10033:10056   */\n      mload\n        /* \"#utility.yul\":10069:10132   */\n      tag_339\n        /* \"#utility.yul\":10126:10130   */\n      0x00\n        /* \"#utility.yul\":10121:10124   */\n      dup7\n        /* \"#utility.yul\":10117:10131   */\n      add\n        /* \"#utility.yul\":10103:10115   */\n      dup3\n        /* \"#utility.yul\":10069:10132   */\n      tag_208\n      jump\t// in\n    tag_339:\n        /* \"#utility.yul\":9971:10142   */\n      pop\n        /* \"#utility.yul\":10228:10232   */\n      0x20\n        /* \"#utility.yul\":10221:10226   */\n      dup4\n        /* \"#utility.yul\":10217:10233   */\n      add\n        /* \"#utility.yul\":10211:10234   */\n      mload\n        /* \"#utility.yul\":10247:10304   */\n      tag_340\n        /* \"#utility.yul\":10298:10302   */\n      0x20\n        /* \"#utility.yul\":10293:10296   */\n      dup7\n        /* \"#utility.yul\":10289:10303   */\n      add\n        /* \"#utility.yul\":10275:10287   */\n      dup3\n        /* \"#utility.yul\":10247:10304   */\n      tag_209\n      jump\t// in\n    tag_340:\n        /* \"#utility.yul\":10152:10314   */\n      pop\n        /* \"#utility.yul\":10402:10406   */\n      0x40\n        /* \"#utility.yul\":10395:10400   */\n      dup4\n        /* \"#utility.yul\":10391:10407   */\n      add\n        /* \"#utility.yul\":10385:10408   */\n      mload\n        /* \"#utility.yul\":10455:10458   */\n      dup5\n        /* \"#utility.yul\":10449:10453   */\n      dup3\n        /* \"#utility.yul\":10445:10459   */\n      sub\n        /* \"#utility.yul\":10438:10442   */\n      0x40\n        /* \"#utility.yul\":10433:10436   */\n      dup7\n        /* \"#utility.yul\":10429:10443   */\n      add\n        /* \"#utility.yul\":10422:10460   */\n      mstore\n        /* \"#utility.yul\":10481:10576   */\n      tag_341\n        /* \"#utility.yul\":10571:10575   */\n      dup3\n        /* \"#utility.yul\":10557:10569   */\n      dup3\n        /* \"#utility.yul\":10481:10576   */\n      tag_197\n      jump\t// in\n    tag_341:\n        /* \"#utility.yul\":10473:10576   */\n      swap2\n      pop\n        /* \"#utility.yul\":10324:10587   */\n      pop\n        /* \"#utility.yul\":10604:10608   */\n      dup1\n        /* \"#utility.yul\":10597:10608   */\n      swap2\n      pop\n        /* \"#utility.yul\":9925:10614   */\n      pop\n        /* \"#utility.yul\":9821:10614   */\n      swap3\n      swap2\n      pop\n      pop\n      jump\t// out\n        /* \"#utility.yul\":10620:10856   */\n    tag_211:\n        /* \"#utility.yul\":10729:10739   */\n      0x00\n        /* \"#utility.yul\":10764:10850   */\n      tag_343\n        /* \"#utility.yul\":10846:10849   */\n      dup4\n        /* \"#utility.yul\":10838:10844   */\n      dup4\n        /* \"#utility.yul\":10764:10850   */\n      tag_210\n      jump\t// in\n    tag_343:\n        /* \"#utility.yul\":10750:10850   */\n      swap1\n      pop\n        /* \"#utility.yul\":10620:10856   */\n      swap3\n      swap2\n      pop\n      pop\n      jump\t// out\n        /* \"#utility.yul\":10862:10995   */\n    tag_212:\n        /* \"#utility.yul\":10952:10956   */\n      0x00\n        /* \"#utility.yul\":10984:10988   */\n      0x20\n        /* \"#utility.yul\":10979:10982   */\n      dup3\n        /* \"#utility.yul\":10975:10989   */\n      add\n        /* \"#utility.yul\":10967:10989   */\n      swap1\n      pop\n        /* \"#utility.yul\":10862:10995   */\n      swap2\n      swap1\n      pop\n      jump\t// out\n        /* \"#utility.yul\":11061:12132   */\n    tag_213:\n        /* \"#utility.yul\":11220:11223   */\n      0x00\n        /* \"#utility.yul\":11249:11323   */\n      tag_346\n        /* \"#utility.yul\":11317:11322   */\n      dup3\n        /* \"#utility.yul\":11249:11323   */\n      tag_205\n      jump\t// in\n    tag_346:\n        /* \"#utility.yul\":11339:11445   */\n      tag_347\n        /* \"#utility.yul\":11438:11444   */\n      dup2\n        /* \"#utility.yul\":11433:11436   */\n      dup6\n        /* \"#utility.yul\":11339:11445   */\n      tag_206\n      jump\t// in\n    tag_347:\n        /* \"#utility.yul\":11332:11445   */\n      swap4\n      pop\n        /* \"#utility.yul\":11471:11474   */\n      dup4\n        /* \"#utility.yul\":11516:11520   */\n      0x20\n        /* \"#utility.yul\":11508:11514   */\n      dup3\n        /* \"#utility.yul\":11504:11521   */\n      mul\n        /* \"#utility.yul\":11499:11502   */\n      dup6\n        /* \"#utility.yul\":11495:11522   */\n      add\n        /* \"#utility.yul\":11546:11622   */\n      tag_348\n        /* \"#utility.yul\":11616:11621   */\n      dup6\n        /* \"#utility.yul\":11546:11622   */\n      tag_207\n      jump\t// in\n    tag_348:\n        /* \"#utility.yul\":11645:11652   */\n      dup1\n        /* \"#utility.yul\":11676:11677   */\n      0x00\n        /* \"#utility.yul\":11661:12087   */\n    tag_349:\n        /* \"#utility.yul\":11686:11692   */\n      dup6\n        /* \"#utility.yul\":11683:11684   */\n      dup2\n        /* \"#utility.yul\":11680:11693   */\n      lt\n        /* \"#utility.yul\":11661:12087   */\n      iszero\n      tag_351\n      jumpi\n        /* \"#utility.yul\":11757:11766   */\n      dup5\n        /* \"#utility.yul\":11751:11755   */\n      dup5\n        /* \"#utility.yul\":11747:11767   */\n      sub\n        /* \"#utility.yul\":11742:11745   */\n      dup10\n        /* \"#utility.yul\":11735:11768   */\n      mstore\n        /* \"#utility.yul\":11808:11814   */\n      dup2\n        /* \"#utility.yul\":11802:11815   */\n      mload\n        /* \"#utility.yul\":11836:11940   */\n      tag_352\n        /* \"#utility.yul\":11935:11939   */\n      dup6\n        /* \"#utility.yul\":11920:11933   */\n      dup3\n        /* \"#utility.yul\":11836:11940   */\n      tag_211\n      jump\t// in\n    tag_352:\n        /* \"#utility.yul\":11828:11940   */\n      swap5\n      pop\n        /* \"#utility.yul\":11963:12043   */\n      tag_353\n        /* \"#utility.yul\":12036:12042   */\n      dup4\n        /* \"#utility.yul\":11963:12043   */\n      tag_212\n      jump\t// in\n    tag_353:\n        /* \"#utility.yul\":11953:12043   */\n      swap3\n      pop\n        /* \"#utility.yul\":12072:12076   */\n      0x20\n        /* \"#utility.yul\":12067:12070   */\n      dup11\n        /* \"#utility.yul\":12063:12077   */\n      add\n        /* \"#utility.yul\":12056:12077   */\n      swap10\n      pop\n        /* \"#utility.yul\":11721:12087   */\n      pop\n        /* \"#utility.yul\":11708:11709   */\n      0x01\n        /* \"#utility.yul\":11705:11706   */\n      dup2\n        /* \"#utility.yul\":11701:11710   */\n      add\n        /* \"#utility.yul\":11696:11710   */\n      swap1\n      pop\n        /* \"#utility.yul\":11661:12087   */\n      jump(tag_349)\n    tag_351:\n        /* \"#utility.yul\":11665:11679   */\n      pop\n        /* \"#utility.yul\":12103:12107   */\n      dup3\n        /* \"#utility.yul\":12096:12107   */\n      swap8\n      pop\n        /* \"#utility.yul\":12123:12126   */\n      dup8\n        /* \"#utility.yul\":12116:12126   */\n      swap6\n      pop\n        /* \"#utility.yul\":11225:12132   */\n      pop\n      pop\n      pop\n      pop\n      pop\n        /* \"#utility.yul\":11061:12132   */\n      swap3\n      swap2\n      pop\n      pop\n      jump\t// out\n        /* \"#utility.yul\":12138:12591   */\n    tag_71:\n        /* \"#utility.yul\":12321:12325   */\n      0x00\n        /* \"#utility.yul\":12359:12361   */\n      0x20\n        /* \"#utility.yul\":12348:12357   */\n      dup3\n        /* \"#utility.yul\":12344:12362   */\n      add\n        /* \"#utility.yul\":12336:12362   */\n      swap1\n      pop\n        /* \"#utility.yul\":12408:12417   */\n      dup2\n        /* \"#utility.yul\":12402:12406   */\n      dup2\n        /* \"#utility.yul\":12398:12418   */\n      sub\n        /* \"#utility.yul\":12394:12395   */\n      0x00\n        /* \"#utility.yul\":12383:12392   */\n      dup4\n        /* \"#utility.yul\":12379:12396   */\n      add\n        /* \"#utility.yul\":12372:12419   */\n      mstore\n        /* \"#utility.yul\":12436:12584   */\n      tag_355\n        /* \"#utility.yul\":12579:12583   */\n      dup2\n        /* \"#utility.yul\":12570:12576   */\n      dup5\n        /* \"#utility.yul\":12436:12584   */\n      tag_213\n      jump\t// in\n    tag_355:\n        /* \"#utility.yul\":12428:12584   */\n      swap1\n      pop\n        /* \"#utility.yul\":12138:12591   */\n      swap3\n      swap2\n      pop\n      pop\n      jump\t// out\n        /* \"#utility.yul\":12597:12766   */\n    tag_214:\n        /* \"#utility.yul\":12681:12692   */\n      0x00\n        /* \"#utility.yul\":12715:12721   */\n      dup3\n        /* \"#utility.yul\":12710:12713   */\n      dup3\n        /* \"#utility.yul\":12703:12722   */\n      mstore\n        /* \"#utility.yul\":12755:12759   */\n      0x20\n        /* \"#utility.yul\":12750:12753   */\n      dup3\n        /* \"#utility.yul\":12746:12760   */\n      add\n        /* \"#utility.yul\":12731:12760   */\n      swap1\n      pop\n        /* \"#utility.yul\":12597:12766   */\n      swap3\n      swap2\n      pop\n      pop\n      jump\t// out\n        /* \"#utility.yul\":12772:13149   */\n    tag_215:\n        /* \"#utility.yul\":12860:12863   */\n      0x00\n        /* \"#utility.yul\":12888:12927   */\n      tag_358\n        /* \"#utility.yul\":12921:12926   */\n      dup3\n        /* \"#utility.yul\":12888:12927   */\n      tag_191\n      jump\t// in\n    tag_358:\n        /* \"#utility.yul\":12943:13014   */\n      tag_359\n        /* \"#utility.yul\":13007:13013   */\n      dup2\n        /* \"#utility.yul\":13002:13005   */\n      dup6\n        /* \"#utility.yul\":12943:13014   */\n      tag_214\n      jump\t// in\n    tag_359:\n        /* \"#utility.yul\":12936:13014   */\n      swap4\n      pop\n        /* \"#utility.yul\":13023:13088   */\n      tag_360\n        /* \"#utility.yul\":13081:13087   */\n      dup2\n        /* \"#utility.yul\":13076:13079   */\n      dup6\n        /* \"#utility.yul\":13069:13073   */\n      0x20\n        /* \"#utility.yul\":13062:13067   */\n      dup7\n        /* \"#utility.yul\":13058:13074   */\n      add\n        /* \"#utility.yul\":13023:13088   */\n      tag_193\n      jump\t// in\n    tag_360:\n        /* \"#utility.yul\":13113:13142   */\n      tag_361\n        /* \"#utility.yul\":13135:13141   */\n      dup2\n        /* \"#utility.yul\":13113:13142   */\n      tag_194\n      jump\t// in\n    tag_361:\n        /* \"#utility.yul\":13108:13111   */\n      dup5\n        /* \"#utility.yul\":13104:13143   */\n      add\n        /* \"#utility.yul\":13097:13143   */\n      swap2\n      pop\n        /* \"#utility.yul\":12864:13149   */\n      pop\n        /* \"#utility.yul\":12772:13149   */\n      swap3\n      swap2\n      pop\n      pop\n      jump\t// out\n        /* \"#utility.yul\":13155:13273   */\n    tag_216:\n        /* \"#utility.yul\":13242:13266   */\n      tag_363\n        /* \"#utility.yul\":13260:13265   */\n      dup2\n        /* \"#utility.yul\":13242:13266   */\n      tag_179\n      jump\t// in\n    tag_363:\n        /* \"#utility.yul\":13237:13240   */\n      dup3\n        /* \"#utility.yul\":13230:13267   */\n      mstore\n        /* \"#utility.yul\":13155:13273   */\n      pop\n      pop\n      jump\t// out\n        /* \"#utility.yul\":13279:13702   */\n    tag_77:\n        /* \"#utility.yul\":13420:13424   */\n      0x00\n        /* \"#utility.yul\":13458:13460   */\n      0x40\n        /* \"#utility.yul\":13447:13456   */\n      dup3\n        /* \"#utility.yul\":13443:13461   */\n      add\n        /* \"#utility.yul\":13435:13461   */\n      swap1\n      pop\n        /* \"#utility.yul\":13507:13516   */\n      dup2\n        /* \"#utility.yul\":13501:13505   */\n      dup2\n        /* \"#utility.yul\":13497:13517   */\n      sub\n        /* \"#utility.yul\":13493:13494   */\n      0x00\n        /* \"#utility.yul\":13482:13491   */\n      dup4\n        /* \"#utility.yul\":13478:13495   */\n      add\n        /* \"#utility.yul\":13471:13518   */\n      mstore\n        /* \"#utility.yul\":13535:13613   */\n      tag_365\n        /* \"#utility.yul\":13608:13612   */\n      dup2\n        /* \"#utility.yul\":13599:13605   */\n      dup6\n        /* \"#utility.yul\":13535:13613   */\n      tag_215\n      jump\t// in\n    tag_365:\n        /* \"#utility.yul\":13527:13613   */\n      swap1\n      pop\n        /* \"#utility.yul\":13623:13695   */\n      tag_366\n        /* \"#utility.yul\":13691:13693   */\n      0x20\n        /* \"#utility.yul\":13680:13689   */\n      dup4\n        /* \"#utility.yul\":13676:13694   */\n      add\n        /* \"#utility.yul\":13667:13673   */\n      dup5\n        /* \"#utility.yul\":13623:13695   */\n      tag_216\n      jump\t// in\n    tag_366:\n        /* \"#utility.yul\":13279:13702   */\n      swap4\n      swap3\n      pop\n      pop\n      pop\n      jump\t// out\n        /* \"#utility.yul\":13708:13872   */\n    tag_217:\n        /* \"#utility.yul\":13848:13864   */\n      0x766f74696e6720697320646f6e65000000000000000000000000000000000000\n        /* \"#utility.yul\":13844:13845   */\n      0x00\n        /* \"#utility.yul\":13836:13842   */\n      dup3\n        /* \"#utility.yul\":13832:13846   */\n      add\n        /* \"#utility.yul\":13825:13865   */\n      mstore\n        /* \"#utility.yul\":13708:13872   */\n      pop\n      jump\t// out\n        /* \"#utility.yul\":13878:14244   */\n    tag_218:\n        /* \"#utility.yul\":14020:14023   */\n      0x00\n        /* \"#utility.yul\":14041:14108   */\n      tag_369\n        /* \"#utility.yul\":14105:14107   */\n      0x0e\n        /* \"#utility.yul\":14100:14103   */\n      dup4\n        /* \"#utility.yul\":14041:14108   */\n      tag_214\n      jump\t// in\n    tag_369:\n        /* \"#utility.yul\":14034:14108   */\n      swap2\n      pop\n        /* \"#utility.yul\":14117:14210   */\n      tag_370\n        /* \"#utility.yul\":14206:14209   */\n      dup3\n        /* \"#utility.yul\":14117:14210   */\n      tag_217\n      jump\t// in\n    tag_370:\n        /* \"#utility.yul\":14235:14237   */\n      0x20\n        /* \"#utility.yul\":14230:14233   */\n      dup3\n        /* \"#utility.yul\":14226:14238   */\n      add\n        /* \"#utility.yul\":14219:14238   */\n      swap1\n      pop\n        /* \"#utility.yul\":13878:14244   */\n      swap2\n      swap1\n      pop\n      jump\t// out\n        /* \"#utility.yul\":14250:14669   */\n    tag_81:\n        /* \"#utility.yul\":14416:14420   */\n      0x00\n        /* \"#utility.yul\":14454:14456   */\n      0x20\n        /* \"#utility.yul\":14443:14452   */\n      dup3\n        /* \"#utility.yul\":14439:14457   */\n      add\n        /* \"#utility.yul\":14431:14457   */\n      swap1\n      pop\n        /* \"#utility.yul\":14503:14512   */\n      dup2\n        /* \"#utility.yul\":14497:14501   */\n      dup2\n        /* \"#utility.yul\":14493:14513   */\n      sub\n        /* \"#utility.yul\":14489:14490   */\n      0x00\n        /* \"#utility.yul\":14478:14487   */\n      dup4\n        /* \"#utility.yul\":14474:14491   */\n      add\n        /* \"#utility.yul\":14467:14514   */\n      mstore\n        /* \"#utility.yul\":14531:14662   */\n      tag_372\n        /* \"#utility.yul\":14657:14661   */\n      dup2\n        /* \"#utility.yul\":14531:14662   */\n      tag_218\n      jump\t// in\n    tag_372:\n        /* \"#utility.yul\":14523:14662   */\n      swap1\n      pop\n        /* \"#utility.yul\":14250:14669   */\n      swap2\n      swap1\n      pop\n      jump\t// out\n        /* \"#utility.yul\":14675:14842   */\n    tag_219:\n        /* \"#utility.yul\":14815:14834   */\n      0x416c726561647920796f7520766f746564000000000000000000000000000000\n        /* \"#utility.yul\":14811:14812   */\n      0x00\n        /* \"#utility.yul\":14803:14809   */\n      dup3\n        /* \"#utility.yul\":14799:14813   */\n      add\n        /* \"#utility.yul\":14792:14835   */\n      mstore\n        /* \"#utility.yul\":14675:14842   */\n      pop\n      jump\t// out\n        /* \"#utility.yul\":14848:15214   */\n    tag_220:\n        /* \"#utility.yul\":14990:14993   */\n      0x00\n        /* \"#utility.yul\":15011:15078   */\n      tag_375\n        /* \"#utility.yul\":15075:15077   */\n      0x11\n        /* \"#utility.yul\":15070:15073   */\n      dup4\n        /* \"#utility.yul\":15011:15078   */\n      tag_214\n      jump\t// in\n    tag_375:\n        /* \"#utility.yul\":15004:15078   */\n      swap2\n      pop\n        /* \"#utility.yul\":15087:15180   */\n      tag_376\n        /* \"#utility.yul\":15176:15179   */\n      dup3\n        /* \"#utility.yul\":15087:15180   */\n      tag_219\n      jump\t// in\n    tag_376:\n        /* \"#utility.yul\":15205:15207   */\n      0x20\n        /* \"#utility.yul\":15200:15203   */\n      dup3\n        /* \"#utility.yul\":15196:15208   */\n      add\n        /* \"#utility.yul\":15189:15208   */\n      swap1\n      pop\n        /* \"#utility.yul\":14848:15214   */\n      swap2\n      swap1\n      pop\n      jump\t// out\n        /* \"#utility.yul\":15220:15639   */\n    tag_85:\n        /* \"#utility.yul\":15386:15390   */\n      0x00\n        /* \"#utility.yul\":15424:15426   */\n      0x20\n        /* \"#utility.yul\":15413:15422   */\n      dup3\n        /* \"#utility.yul\":15409:15427   */\n      add\n        /* \"#utility.yul\":15401:15427   */\n      swap1\n      pop\n        /* \"#utility.yul\":15473:15482   */\n      dup2\n        /* \"#utility.yul\":15467:15471   */\n      dup2\n        /* \"#utility.yul\":15463:15483   */\n      sub\n        /* \"#utility.yul\":15459:15460   */\n      0x00\n        /* \"#utility.yul\":15448:15457   */\n      dup4\n        /* \"#utility.yul\":15444:15461   */\n      add\n        /* \"#utility.yul\":15437:15484   */\n      mstore\n        /* \"#utility.yul\":15501:15632   */\n      tag_378\n        /* \"#utility.yul\":15627:15631   */\n      dup2\n        /* \"#utility.yul\":15501:15632   */\n      tag_220\n      jump\t// in\n    tag_378:\n        /* \"#utility.yul\":15493:15632   */\n      swap1\n      pop\n        /* \"#utility.yul\":15220:15639   */\n      swap2\n      swap1\n      pop\n      jump\t// out\n        /* \"#utility.yul\":15645:15817   */\n    tag_221:\n        /* \"#utility.yul\":15785:15809   */\n      0x492063616e6e6f742067657420746865206d6f6e657900000000000000000000\n        /* \"#utility.yul\":15781:15782   */\n      0x00\n        /* \"#utility.yul\":15773:15779   */\n      dup3\n        /* \"#utility.yul\":15769:15783   */\n      add\n        /* \"#utility.yul\":15762:15810   */\n      mstore\n        /* \"#utility.yul\":15645:15817   */\n      pop\n      jump\t// out\n        /* \"#utility.yul\":15823:16189   */\n    tag_222:\n        /* \"#utility.yul\":15965:15968   */\n      0x00\n        /* \"#utility.yul\":15986:16053   */\n      tag_381\n        /* \"#utility.yul\":16050:16052   */\n      0x16\n        /* \"#utility.yul\":16045:16048   */\n      dup4\n        /* \"#utility.yul\":15986:16053   */\n      tag_214\n      jump\t// in\n    tag_381:\n        /* \"#utility.yul\":15979:16053   */\n      swap2\n      pop\n        /* \"#utility.yul\":16062:16155   */\n      tag_382\n        /* \"#utility.yul\":16151:16154   */\n      dup3\n        /* \"#utility.yul\":16062:16155   */\n      tag_221\n      jump\t// in\n    tag_382:\n        /* \"#utility.yul\":16180:16182   */\n      0x20\n        /* \"#utility.yul\":16175:16178   */\n      dup3\n        /* \"#utility.yul\":16171:16183   */\n      add\n        /* \"#utility.yul\":16164:16183   */\n      swap1\n      pop\n        /* \"#utility.yul\":15823:16189   */\n      swap2\n      swap1\n      pop\n      jump\t// out\n        /* \"#utility.yul\":16195:16614   */\n    tag_90:\n        /* \"#utility.yul\":16361:16365   */\n      0x00\n        /* \"#utility.yul\":16399:16401   */\n      0x20\n        /* \"#utility.yul\":16388:16397   */\n      dup3\n        /* \"#utility.yul\":16384:16402   */\n      add\n        /* \"#utility.yul\":16376:16402   */\n      swap1\n      pop\n        /* \"#utility.yul\":16448:16457   */\n      dup2\n        /* \"#utility.yul\":16442:16446   */\n      dup2\n        /* \"#utility.yul\":16438:16458   */\n      sub\n        /* \"#utility.yul\":16434:16435   */\n      0x00\n        /* \"#utility.yul\":16423:16432   */\n      dup4\n        /* \"#utility.yul\":16419:16436   */\n      add\n        /* \"#utility.yul\":16412:16459   */\n      mstore\n        /* \"#utility.yul\":16476:16607   */\n      tag_384\n        /* \"#utility.yul\":16602:16606   */\n      dup2\n        /* \"#utility.yul\":16476:16607   */\n      tag_222\n      jump\t// in\n    tag_384:\n        /* \"#utility.yul\":16468:16607   */\n      swap1\n      pop\n        /* \"#utility.yul\":16195:16614   */\n      swap2\n      swap1\n      pop\n      jump\t// out\n        /* \"#utility.yul\":16620:16800   */\n    tag_93:\n        /* \"#utility.yul\":16668:16745   */\n      0x4e487b7100000000000000000000000000000000000000000000000000000000\n        /* \"#utility.yul\":16665:16666   */\n      0x00\n        /* \"#utility.yul\":16658:16746   */\n      mstore\n        /* \"#utility.yul\":16765:16769   */\n      0x32\n        /* \"#utility.yul\":16762:16763   */\n      0x04\n        /* \"#utility.yul\":16755:16770   */\n      mstore\n        /* \"#utility.yul\":16789:16793   */\n      0x24\n        /* \"#utility.yul\":16786:16787   */\n      0x00\n        /* \"#utility.yul\":16779:16794   */\n      revert\n        /* \"#utility.yul\":16806:16986   */\n    tag_223:\n        /* \"#utility.yul\":16854:16931   */\n      0x4e487b7100000000000000000000000000000000000000000000000000000000\n        /* \"#utility.yul\":16851:16852   */\n      0x00\n        /* \"#utility.yul\":16844:16932   */\n      mstore\n        /* \"#utility.yul\":16951:16955   */\n      0x11\n        /* \"#utility.yul\":16948:16949   */\n      0x04\n        /* \"#utility.yul\":16941:16956   */\n      mstore\n        /* \"#utility.yul\":16975:16979   */\n      0x24\n        /* \"#utility.yul\":16972:16973   */\n      0x00\n        /* \"#utility.yul\":16965:16980   */\n      revert\n        /* \"#utility.yul\":16992:17183   */\n    tag_96:\n        /* \"#utility.yul\":17032:17035   */\n      0x00\n        /* \"#utility.yul\":17051:17071   */\n      tag_388\n        /* \"#utility.yul\":17069:17070   */\n      dup3\n        /* \"#utility.yul\":17051:17071   */\n      tag_179\n      jump\t// in\n    tag_388:\n        /* \"#utility.yul\":17046:17071   */\n      swap2\n      pop\n        /* \"#utility.yul\":17085:17105   */\n      tag_389\n        /* \"#utility.yul\":17103:17104   */\n      dup4\n        /* \"#utility.yul\":17085:17105   */\n      tag_179\n      jump\t// in\n    tag_389:\n        /* \"#utility.yul\":17080:17105   */\n      swap3\n      pop\n        /* \"#utility.yul\":17128:17129   */\n      dup3\n        /* \"#utility.yul\":17125:17126   */\n      dup3\n        /* \"#utility.yul\":17121:17130   */\n      add\n        /* \"#utility.yul\":17114:17130   */\n      swap1\n      pop\n        /* \"#utility.yul\":17149:17152   */\n      dup1\n        /* \"#utility.yul\":17146:17147   */\n      dup3\n        /* \"#utility.yul\":17143:17153   */\n      gt\n        /* \"#utility.yul\":17140:17176   */\n      iszero\n      tag_390\n      jumpi\n        /* \"#utility.yul\":17156:17174   */\n      tag_391\n      tag_223\n      jump\t// in\n    tag_391:\n        /* \"#utility.yul\":17140:17176   */\n    tag_390:\n        /* \"#utility.yul\":16992:17183   */\n      swap3\n      swap2\n      pop\n      pop\n      jump\t// out\n        /* \"#utility.yul\":17189:17369   */\n    tag_224:\n        /* \"#utility.yul\":17237:17314   */\n      0x4e487b7100000000000000000000000000000000000000000000000000000000\n        /* \"#utility.yul\":17234:17235   */\n      0x00\n        /* \"#utility.yul\":17227:17315   */\n      mstore\n        /* \"#utility.yul\":17334:17338   */\n      0x22\n        /* \"#utility.yul\":17331:17332   */\n      0x04\n        /* \"#utility.yul\":17324:17339   */\n      mstore\n        /* \"#utility.yul\":17358:17362   */\n      0x24\n        /* \"#utility.yul\":17355:17356   */\n      0x00\n        /* \"#utility.yul\":17348:17363   */\n      revert\n        /* \"#utility.yul\":17375:17695   */\n    tag_98:\n        /* \"#utility.yul\":17419:17425   */\n      0x00\n        /* \"#utility.yul\":17456:17457   */\n      0x02\n        /* \"#utility.yul\":17450:17454   */\n      dup3\n        /* \"#utility.yul\":17446:17458   */\n      div\n        /* \"#utility.yul\":17436:17458   */\n      swap1\n      pop\n        /* \"#utility.yul\":17503:17504   */\n      0x01\n        /* \"#utility.yul\":17497:17501   */\n      dup3\n        /* \"#utility.yul\":17493:17505   */\n      and\n        /* \"#utility.yul\":17524:17542   */\n      dup1\n        /* \"#utility.yul\":17514:17595   */\n      tag_394\n      jumpi\n        /* \"#utility.yul\":17580:17584   */\n      0x7f\n        /* \"#utility.yul\":17572:17578   */\n      dup3\n        /* \"#utility.yul\":17568:17585   */\n      and\n        /* \"#utility.yul\":17558:17585   */\n      swap2\n      pop\n        /* \"#utility.yul\":17514:17595   */\n    tag_394:\n        /* \"#utility.yul\":17642:17644   */\n      0x20\n        /* \"#utility.yul\":17634:17640   */\n      dup3\n        /* \"#utility.yul\":17631:17645   */\n      lt\n        /* \"#utility.yul\":17611:17629   */\n      dup2\n        /* \"#utility.yul\":17608:17646   */\n      sub\n        /* \"#utility.yul\":17605:17689   */\n      tag_395\n      jumpi\n        /* \"#utility.yul\":17661:17679   */\n      tag_396\n      tag_224\n      jump\t// in\n    tag_396:\n        /* \"#utility.yul\":17605:17689   */\n    tag_395:\n        /* \"#utility.yul\":17426:17695   */\n      pop\n        /* \"#utility.yul\":17375:17695   */\n      swap2\n      swap1\n      pop\n      jump\t// out\n        /* \"#utility.yul\":17701:17881   */\n    tag_225:\n        /* \"#utility.yul\":17749:17826   */\n      0x4e487b7100000000000000000000000000000000000000000000000000000000\n        /* \"#utility.yul\":17746:17747   */\n      0x00\n        /* \"#utility.yul\":17739:17827   */\n      mstore\n        /* \"#utility.yul\":17846:17850   */\n      0x41\n        /* \"#utility.yul\":17843:17844   */\n      0x04\n        /* \"#utility.yul\":17836:17851   */\n      mstore\n        /* \"#utility.yul\":17870:17874   */\n      0x24\n        /* \"#utility.yul\":17867:17868   */\n      0x00\n        /* \"#utility.yul\":17860:17875   */\n      revert\n        /* \"#utility.yul\":17887:18028   */\n    tag_226:\n        /* \"#utility.yul\":17936:17940   */\n      0x00\n        /* \"#utility.yul\":17959:17962   */\n      dup2\n        /* \"#utility.yul\":17951:17962   */\n      swap1\n      pop\n        /* \"#utility.yul\":17982:17985   */\n      dup2\n        /* \"#utility.yul\":17979:17980   */\n      0x00\n        /* \"#utility.yul\":17972:17986   */\n      mstore\n        /* \"#utility.yul\":18016:18020   */\n      0x20\n        /* \"#utility.yul\":18013:18014   */\n      0x00\n        /* \"#utility.yul\":18003:18021   */\n      keccak256\n        /* \"#utility.yul\":17995:18021   */\n      swap1\n      pop\n        /* \"#utility.yul\":17887:18028   */\n      swap2\n      swap1\n      pop\n      jump\t// out\n        /* \"#utility.yul\":18034:18127   */\n    tag_227:\n        /* \"#utility.yul\":18071:18077   */\n      0x00\n        /* \"#utility.yul\":18118:18120   */\n      0x20\n        /* \"#utility.yul\":18113:18115   */\n      0x1f\n        /* \"#utility.yul\":18106:18111   */\n      dup4\n        /* \"#utility.yul\":18102:18116   */\n      add\n        /* \"#utility.yul\":18098:18121   */\n      div\n        /* \"#utility.yul\":18088:18121   */\n      swap1\n      pop\n        /* \"#utility.yul\":18034:18127   */\n      swap2\n      swap1\n      pop\n      jump\t// out\n        /* \"#utility.yul\":18133:18240   */\n    tag_228:\n        /* \"#utility.yul\":18177:18185   */\n      0x00\n        /* \"#utility.yul\":18227:18232   */\n      dup3\n        /* \"#utility.yul\":18221:18225   */\n      dup3\n        /* \"#utility.yul\":18217:18233   */\n      shl\n        /* \"#utility.yul\":18196:18233   */\n      swap1\n      pop\n        /* \"#utility.yul\":18133:18240   */\n      swap3\n      swap2\n      pop\n      pop\n      jump\t// out\n        /* \"#utility.yul\":18246:18639   */\n    tag_229:\n        /* \"#utility.yul\":18315:18321   */\n      0x00\n        /* \"#utility.yul\":18365:18366   */\n      0x08\n        /* \"#utility.yul\":18353:18363   */\n      dup4\n        /* \"#utility.yul\":18349:18367   */\n      mul\n        /* \"#utility.yul\":18388:18485   */\n      tag_402\n        /* \"#utility.yul\":18418:18484   */\n      0xffffffffffffffffffffffffffffffffffffffffffffffffffffffffffffffff\n        /* \"#utility.yul\":18407:18416   */\n      dup3\n        /* \"#utility.yul\":18388:18485   */\n      tag_228\n      jump\t// in\n    tag_402:\n        /* \"#utility.yul\":18506:18545   */\n      tag_403\n        /* \"#utility.yul\":18536:18544   */\n      dup7\n        /* \"#utility.yul\":18525:18534   */\n      dup4\n        /* \"#utility.yul\":18506:18545   */\n      tag_228\n      jump\t// in\n    tag_403:\n        /* \"#utility.yul\":18494:18545   */\n      swap6\n      pop\n        /* \"#utility.yul\":18578:18582   */\n      dup1\n        /* \"#utility.yul\":18574:18583   */\n      not\n        /* \"#utility.yul\":18567:18572   */\n      dup5\n        /* \"#utility.yul\":18563:18584   */\n      and\n        /* \"#utility.yul\":18554:18584   */\n      swap4\n      pop\n        /* \"#utility.yul\":18627:18631   */\n      dup1\n        /* \"#utility.yul\":18617:18625   */\n      dup7\n        /* \"#utility.yul\":18613:18632   */\n      and\n        /* \"#utility.yul\":18606:18611   */\n      dup5\n        /* \"#utility.yul\":18603:18633   */\n      or\n        /* \"#utility.yul\":18593:18633   */\n      swap3\n      pop\n        /* \"#utility.yul\":18322:18639   */\n      pop\n      pop\n        /* \"#utility.yul\":18246:18639   */\n      swap4\n      swap3\n      pop\n      pop\n      pop\n      jump\t// out\n        /* \"#utility.yul\":18645:18705   */\n    tag_230:\n        /* \"#utility.yul\":18673:18676   */\n      0x00\n        /* \"#utility.yul\":18694:18699   */\n      dup2\n        /* \"#utility.yul\":18687:18699   */\n      swap1\n      pop\n        /* \"#utility.yul\":18645:18705   */\n      swap2\n      swap1\n      pop\n      jump\t// out\n        /* \"#utility.yul\":18711:18853   */\n    tag_231:\n        /* \"#utility.yul\":18761:18770   */\n      0x00\n        /* \"#utility.yul\":18794:18847   */\n      tag_406\n        /* \"#utility.yul\":18812:18846   */\n      tag_407\n        /* \"#utility.yul\":18821:18845   */\n      tag_408\n        /* \"#utility.yul\":18839:18844   */\n      dup5\n        /* \"#utility.yul\":18821:18845   */\n      tag_179\n      jump\t// in\n    tag_408:\n        /* \"#utility.yul\":18812:18846   */\n      tag_230\n      jump\t// in\n    tag_407:\n        /* \"#utility.yul\":18794:18847   */\n      tag_179\n      jump\t// in\n    tag_406:\n        /* \"#utility.yul\":18781:18847   */\n      swap1\n      pop\n        /* \"#utility.yul\":18711:18853   */\n      swap2\n      swap1\n      pop\n      jump\t// out\n        /* \"#utility.yul\":18859:18934   */\n    tag_232:\n        /* \"#utility.yul\":18902:18905   */\n      0x00\n        /* \"#utility.yul\":18923:18928   */\n      dup2\n        /* \"#utility.yul\":18916:18928   */\n      swap1\n      pop\n        /* \"#utility.yul\":18859:18934   */\n      swap2\n      swap1\n      pop\n      jump\t// out\n        /* \"#utility.yul\":18940:19209   */\n    tag_233:\n        /* \"#utility.yul\":19050:19089   */\n      tag_411\n        /* \"#utility.yul\":19081:19088   */\n      dup4\n        /* \"#utility.yul\":19050:19089   */\n      tag_231\n      jump\t// in\n    tag_411:\n        /* \"#utility.yul\":19111:19202   */\n      tag_412\n        /* \"#utility.yul\":19160:19201   */\n      tag_413\n        /* \"#utility.yul\":19184:19200   */\n      dup3\n        /* \"#utility.yul\":19160:19201   */\n      tag_232\n      jump\t// in\n    tag_413:\n        /* \"#utility.yul\":19152:19158   */\n      dup5\n        /* \"#utility.yul\":19145:19149   */\n      dup5\n        /* \"#utility.yul\":19139:19150   */\n      sload\n        /* \"#utility.yul\":19111:19202   */\n      tag_229\n      jump\t// in\n    tag_412:\n        /* \"#utility.yul\":19105:19109   */\n      dup3\n        /* \"#utility.yul\":19098:19203   */\n      sstore\n        /* \"#utility.yul\":19016:19209   */\n      pop\n        /* \"#utility.yul\":18940:19209   */\n      pop\n      pop\n      pop\n      jump\t// out\n        /* \"#utility.yul\":19215:19288   */\n    tag_234:\n        /* \"#utility.yul\":19260:19263   */\n      0x00\n        /* \"#utility.yul\":19215:19288   */\n      swap1\n      jump\t// out\n        /* \"#utility.yul\":19294:19483   */\n    tag_235:\n        /* \"#utility.yul\":19371:19403   */\n      tag_416\n      tag_234\n      jump\t// in\n    tag_416:\n        /* \"#utility.yul\":19412:19477   */\n      tag_417\n        /* \"#utility.yul\":19470:19476   */\n      dup2\n        /* \"#utility.yul\":19462:19468   */\n      dup5\n        /* \"#utility.yul\":19456:19460   */\n      dup5\n        /* \"#utility.yul\":19412:19477   */\n      tag_233\n      jump\t// in\n    tag_417:\n        /* \"#utility.yul\":19347:19483   */\n      pop\n        /* \"#utility.yul\":19294:19483   */\n      pop\n      pop\n      jump\t// out\n        /* \"#utility.yul\":19489:19675   */\n    tag_236:\n        /* \"#utility.yul\":19549:19669   */\n    tag_419:\n        /* \"#utility.yul\":19566:19569   */\n      dup2\n        /* \"#utility.yul\":19559:19564   */\n      dup2\n        /* \"#utility.yul\":19556:19570   */\n      lt\n        /* \"#utility.yul\":19549:19669   */\n      iszero\n      tag_421\n      jumpi\n        /* \"#utility.yul\":19620:19659   */\n      tag_422\n        /* \"#utility.yul\":19657:19658   */\n      0x00\n        /* \"#utility.yul\":19650:19655   */\n      dup3\n        /* \"#utility.yul\":19620:19659   */\n      tag_235\n      jump\t// in\n    tag_422:\n        /* \"#utility.yul\":19593:19594   */\n      0x01\n        /* \"#utility.yul\":19586:19591   */\n      dup2\n        /* \"#utility.yul\":19582:19595   */\n      add\n        /* \"#utility.yul\":19573:19595   */\n      swap1\n      pop\n        /* \"#utility.yul\":19549:19669   */\n      jump(tag_419)\n    tag_421:\n        /* \"#utility.yul\":19489:19675   */\n      pop\n      pop\n      jump\t// out\n        /* \"#utility.yul\":19681:20224   */\n    tag_237:\n        /* \"#utility.yul\":19782:19784   */\n      0x1f\n        /* \"#utility.yul\":19777:19780   */\n      dup3\n        /* \"#utility.yul\":19774:19785   */\n      gt\n        /* \"#utility.yul\":19771:20217   */\n      iszero\n      tag_424\n      jumpi\n        /* \"#utility.yul\":19816:19854   */\n      tag_425\n        /* \"#utility.yul\":19848:19853   */\n      dup2\n        /* \"#utility.yul\":19816:19854   */\n      tag_226\n      jump\t// in\n    tag_425:\n        /* \"#utility.yul\":19900:19929   */\n      tag_426\n        /* \"#utility.yul\":19918:19928   */\n      dup5\n        /* \"#utility.yul\":19900:19929   */\n      tag_227\n      jump\t// in\n    tag_426:\n        /* \"#utility.yul\":19890:19898   */\n      dup2\n        /* \"#utility.yul\":19886:19930   */\n      add\n        /* \"#utility.yul\":20083:20085   */\n      0x20\n        /* \"#utility.yul\":20071:20081   */\n      dup6\n        /* \"#utility.yul\":20068:20086   */\n      lt\n        /* \"#utility.yul\":20065:20114   */\n      iszero\n      tag_427\n      jumpi\n        /* \"#utility.yul\":20104:20112   */\n      dup2\n        /* \"#utility.yul\":20089:20112   */\n      swap1\n      pop\n        /* \"#utility.yul\":20065:20114   */\n    tag_427:\n        /* \"#utility.yul\":20127:20207   */\n      tag_428\n        /* \"#utility.yul\":20183:20205   */\n      tag_429\n        /* \"#utility.yul\":20201:20204   */\n      dup6\n        /* \"#utility.yul\":20183:20205   */\n      tag_227\n      jump\t// in\n    tag_429:\n        /* \"#utility.yul\":20173:20181   */\n      dup4\n        /* \"#utility.yul\":20169:20206   */\n      add\n        /* \"#utility.yul\":20156:20167   */\n      dup3\n        /* \"#utility.yul\":20127:20207   */\n      tag_236\n      jump\t// in\n    tag_428:\n        /* \"#utility.yul\":19786:20217   */\n      pop\n      pop\n        /* \"#utility.yul\":19771:20217   */\n    tag_424:\n        /* \"#utility.yul\":19681:20224   */\n      pop\n      pop\n      pop\n      jump\t// out\n        /* \"#utility.yul\":20230:20347   */\n    tag_238:\n        /* \"#utility.yul\":20284:20292   */\n      0x00\n        /* \"#utility.yul\":20334:20339   */\n      dup3\n        /* \"#utility.yul\":20328:20332   */\n      dup3\n        /* \"#utility.yul\":20324:20340   */\n      shr\n        /* \"#utility.yul\":20303:20340   */\n      swap1\n      pop\n        /* \"#utility.yul\":20230:20347   */\n      swap3\n      swap2\n      pop\n      pop\n      jump\t// out\n        /* \"#utility.yul\":20353:20522   */\n    tag_239:\n        /* \"#utility.yul\":20397:20403   */\n      0x00\n        /* \"#utility.yul\":20430:20481   */\n      tag_432\n        /* \"#utility.yul\":20478:20479   */\n      0x00\n        /* \"#utility.yul\":20474:20480   */\n      not\n        /* \"#utility.yul\":20466:20471   */\n      dup5\n        /* \"#utility.yul\":20463:20464   */\n      0x08\n        /* \"#utility.yul\":20459:20472   */\n      mul\n        /* \"#utility.yul\":20430:20481   */\n      tag_238\n      jump\t// in\n    tag_432:\n        /* \"#utility.yul\":20426:20482   */\n      not\n        /* \"#utility.yul\":20511:20515   */\n      dup1\n        /* \"#utility.yul\":20505:20509   */\n      dup4\n        /* \"#utility.yul\":20501:20516   */\n      and\n        /* \"#utility.yul\":20491:20516   */\n      swap2\n      pop\n        /* \"#utility.yul\":20404:20522   */\n      pop\n        /* \"#utility.yul\":20353:20522   */\n      swap3\n      swap2\n      pop\n      pop\n      jump\t// out\n        /* \"#utility.yul\":20527:20822   */\n    tag_240:\n        /* \"#utility.yul\":20603:20607   */\n      0x00\n        /* \"#utility.yul\":20749:20778   */\n      tag_434\n        /* \"#utility.yul\":20774:20777   */\n      dup4\n        /* \"#utility.yul\":20768:20772   */\n      dup4\n        /* \"#utility.yul\":20749:20778   */\n      tag_239\n      jump\t// in\n    tag_434:\n        /* \"#utility.yul\":20741:20778   */\n      swap2\n      pop\n        /* \"#utility.yul\":20811:20814   */\n      dup3\n        /* \"#utility.yul\":20808:20809   */\n      0x02\n        /* \"#utility.yul\":20804:20815   */\n      mul\n        /* \"#utility.yul\":20798:20802   */\n      dup3\n        /* \"#utility.yul\":20795:20816   */\n      or\n        /* \"#utility.yul\":20787:20816   */\n      swap1\n      pop\n        /* \"#utility.yul\":20527:20822   */\n      swap3\n      swap2\n      pop\n      pop\n      jump\t// out\n        /* \"#utility.yul\":20827:22222   */\n    tag_105:\n        /* \"#utility.yul\":20944:20981   */\n      tag_436\n        /* \"#utility.yul\":20977:20980   */\n      dup3\n        /* \"#utility.yul\":20944:20981   */\n      tag_191\n      jump\t// in\n    tag_436:\n        /* \"#utility.yul\":21046:21064   */\n      0xffffffffffffffff\n        /* \"#utility.yul\":21038:21044   */\n      dup2\n        /* \"#utility.yul\":21035:21065   */\n      gt\n        /* \"#utility.yul\":21032:21088   */\n      iszero\n      tag_437\n      jumpi\n        /* \"#utility.yul\":21068:21086   */\n      tag_438\n      tag_225\n      jump\t// in\n    tag_438:\n        /* \"#utility.yul\":21032:21088   */\n    tag_437:\n        /* \"#utility.yul\":21112:21150   */\n      tag_439\n        /* \"#utility.yul\":21144:21148   */\n      dup3\n        /* \"#utility.yul\":21138:21149   */\n      sload\n        /* \"#utility.yul\":21112:21150   */\n      tag_98\n      jump\t// in\n    tag_439:\n        /* \"#utility.yul\":21197:21264   */\n      tag_440\n        /* \"#utility.yul\":21257:21263   */\n      dup3\n        /* \"#utility.yul\":21249:21255   */\n      dup3\n        /* \"#utility.yul\":21243:21247   */\n      dup6\n        /* \"#utility.yul\":21197:21264   */\n      tag_237\n      jump\t// in\n    tag_440:\n        /* \"#utility.yul\":21291:21292   */\n      0x00\n        /* \"#utility.yul\":21315:21319   */\n      0x20\n        /* \"#utility.yul\":21302:21319   */\n      swap1\n      pop\n        /* \"#utility.yul\":21347:21349   */\n      0x1f\n        /* \"#utility.yul\":21339:21345   */\n      dup4\n        /* \"#utility.yul\":21336:21350   */\n      gt\n        /* \"#utility.yul\":21364:21365   */\n      0x01\n        /* \"#utility.yul\":21359:21977   */\n      dup2\n      eq\n      tag_442\n      jumpi\n        /* \"#utility.yul\":22021:22022   */\n      0x00\n        /* \"#utility.yul\":22038:22044   */\n      dup5\n        /* \"#utility.yul\":22035:22112   */\n      iszero\n      tag_443\n      jumpi\n        /* \"#utility.yul\":22087:22096   */\n      dup3\n        /* \"#utility.yul\":22082:22085   */\n      dup8\n        /* \"#utility.yul\":22078:22097   */\n      add\n        /* \"#utility.yul\":22072:22098   */\n      mload\n        /* \"#utility.yul\":22063:22098   */\n      swap1\n      pop\n        /* \"#utility.yul\":22035:22112   */\n    tag_443:\n        /* \"#utility.yul\":22138:22205   */\n      tag_444\n        /* \"#utility.yul\":22198:22204   */\n      dup6\n        /* \"#utility.yul\":22191:22196   */\n      dup3\n        /* \"#utility.yul\":22138:22205   */\n      tag_240\n      jump\t// in\n    tag_444:\n        /* \"#utility.yul\":22132:22136   */\n      dup7\n        /* \"#utility.yul\":22125:22206   */\n      sstore\n        /* \"#utility.yul\":21994:22216   */\n      pop\n        /* \"#utility.yul\":21329:22216   */\n      jump(tag_441)\n        /* \"#utility.yul\":21359:21977   */\n    tag_442:\n        /* \"#utility.yul\":21411:21415   */\n      0x1f\n        /* \"#utility.yul\":21407:21416   */\n      not\n        /* \"#utility.yul\":21399:21405   */\n      dup5\n        /* \"#utility.yul\":21395:21417   */\n      and\n        /* \"#utility.yul\":21445:21482   */\n      tag_445\n        /* \"#utility.yul\":21477:21481   */\n      dup7\n        /* \"#utility.yul\":21445:21482   */\n      tag_226\n      jump\t// in\n    tag_445:\n        /* \"#utility.yul\":21504:21505   */\n      0x00\n        /* \"#utility.yul\":21518:21726   */\n    tag_446:\n        /* \"#utility.yul\":21532:21539   */\n      dup3\n        /* \"#utility.yul\":21529:21530   */\n      dup2\n        /* \"#utility.yul\":21526:21540   */\n      lt\n        /* \"#utility.yul\":21518:21726   */\n      iszero\n      tag_448\n      jumpi\n        /* \"#utility.yul\":21611:21620   */\n      dup5\n        /* \"#utility.yul\":21606:21609   */\n      dup10\n        /* \"#utility.yul\":21602:21621   */\n      add\n        /* \"#utility.yul\":21596:21622   */\n      mload\n        /* \"#utility.yul\":21588:21594   */\n      dup3\n        /* \"#utility.yul\":21581:21623   */\n      sstore\n        /* \"#utility.yul\":21662:21663   */\n      0x01\n        /* \"#utility.yul\":21654:21660   */\n      dup3\n        /* \"#utility.yul\":21650:21664   */\n      add\n        /* \"#utility.yul\":21640:21664   */\n      swap2\n      pop\n        /* \"#utility.yul\":21709:21711   */\n      0x20\n        /* \"#utility.yul\":21698:21707   */\n      dup6\n        /* \"#utility.yul\":21694:21712   */\n      add\n        /* \"#utility.yul\":21681:21712   */\n      swap5\n      pop\n        /* \"#utility.yul\":21555:21559   */\n      0x20\n        /* \"#utility.yul\":21552:21553   */\n      dup2\n        /* \"#utility.yul\":21548:21560   */\n      add\n        /* \"#utility.yul\":21543:21560   */\n      swap1\n      pop\n        /* \"#utility.yul\":21518:21726   */\n      jump(tag_446)\n    tag_448:\n        /* \"#utility.yul\":21754:21760   */\n      dup7\n        /* \"#utility.yul\":21745:21752   */\n      dup4\n        /* \"#utility.yul\":21742:21761   */\n      lt\n        /* \"#utility.yul\":21739:21918   */\n      iszero\n      tag_449\n      jumpi\n        /* \"#utility.yul\":21812:21821   */\n      dup5\n        /* \"#utility.yul\":21807:21810   */\n      dup10\n        /* \"#utility.yul\":21803:21822   */\n      add\n        /* \"#utility.yul\":21797:21823   */\n      mload\n        /* \"#utility.yul\":21855:21903   */\n      tag_450\n        /* \"#utility.yul\":21897:21901   */\n      0x1f\n        /* \"#utility.yul\":21889:21895   */\n      dup10\n        /* \"#utility.yul\":21885:21902   */\n      and\n        /* \"#utility.yul\":21874:21883   */\n      dup3\n        /* \"#utility.yul\":21855:21903   */\n      tag_239\n      jump\t// in\n    tag_450:\n        /* \"#utility.yul\":21847:21853   */\n      dup4\n        /* \"#utility.yul\":21840:21904   */\n      sstore\n        /* \"#utility.yul\":21762:21918   */\n      pop\n        /* \"#utility.yul\":21739:21918   */\n    tag_449:\n        /* \"#utility.yul\":21964:21965   */\n      0x01\n        /* \"#utility.yul\":21960:21961   */\n      0x02\n        /* \"#utility.yul\":21952:21958   */\n      dup9\n        /* \"#utility.yul\":21948:21962   */\n      mul\n        /* \"#utility.yul\":21944:21966   */\n      add\n        /* \"#utility.yul\":21938:21942   */\n      dup9\n        /* \"#utility.yul\":21931:21967   */\n      sstore\n        /* \"#utility.yul\":21366:21977   */\n      pop\n      pop\n      pop\n        /* \"#utility.yul\":21329:22216   */\n    tag_441:\n      pop\n        /* \"#utility.yul\":20919:22222   */\n      pop\n      pop\n      pop\n        /* \"#utility.yul\":20827:22222   */\n      pop\n      pop\n      jump\t// out\n        /* \"#utility.yul\":22228:22670   */\n    tag_107:\n        /* \"#utility.yul\":22377:22381   */\n      0x00\n        /* \"#utility.yul\":22415:22417   */\n      0x60\n        /* \"#utility.yul\":22404:22413   */\n      dup3\n        /* \"#utility.yul\":22400:22418   */\n      add\n        /* \"#utility.yul\":22392:22418   */\n      swap1\n      pop\n        /* \"#utility.yul\":22428:22499   */\n      tag_452\n        /* \"#utility.yul\":22496:22497   */\n      0x00\n        /* \"#utility.yul\":22485:22494   */\n      dup4\n        /* \"#utility.yul\":22481:22498   */\n      add\n        /* \"#utility.yul\":22472:22478   */\n      dup7\n        /* \"#utility.yul\":22428:22499   */\n      tag_202\n      jump\t// in\n    tag_452:\n        /* \"#utility.yul\":22509:22581   */\n      tag_453\n        /* \"#utility.yul\":22577:22579   */\n      0x20\n        /* \"#utility.yul\":22566:22575   */\n      dup4\n        /* \"#utility.yul\":22562:22580   */\n      add\n        /* \"#utility.yul\":22553:22559   */\n      dup6\n        /* \"#utility.yul\":22509:22581   */\n      tag_216\n      jump\t// in\n    tag_453:\n        /* \"#utility.yul\":22591:22663   */\n      tag_454\n        /* \"#utility.yul\":22659:22661   */\n      0x40\n        /* \"#utility.yul\":22648:22657   */\n      dup4\n        /* \"#utility.yul\":22644:22662   */\n      add\n        /* \"#utility.yul\":22635:22641   */\n      dup5\n        /* \"#utility.yul\":22591:22663   */\n      tag_216\n      jump\t// in\n    tag_454:\n        /* \"#utility.yul\":22228:22670   */\n      swap5\n      swap4\n      pop\n      pop\n      pop\n      pop\n      jump\t// out\n        /* \"#utility.yul\":22676:22848   */\n    tag_241:\n        /* \"#utility.yul\":22816:22840   */\n      0x49742773206e6f74206f776e6572206164647265737300000000000000000000\n        /* \"#utility.yul\":22812:22813   */\n      0x00\n        /* \"#utility.yul\":22804:22810   */\n      dup3\n        /* \"#utility.yul\":22800:22814   */\n      add\n        /* \"#utility.yul\":22793:22841   */\n      mstore\n        /* \"#utility.yul\":22676:22848   */\n      pop\n      jump\t// out\n        /* \"#utility.yul\":22854:23220   */\n    tag_242:\n        /* \"#utility.yul\":22996:22999   */\n      0x00\n        /* \"#utility.yul\":23017:23084   */\n      tag_457\n        /* \"#utility.yul\":23081:23083   */\n      0x16\n        /* \"#utility.yul\":23076:23079   */\n      dup4\n        /* \"#utility.yul\":23017:23084   */\n      tag_214\n      jump\t// in\n    tag_457:\n        /* \"#utility.yul\":23010:23084   */\n      swap2\n      pop\n        /* \"#utility.yul\":23093:23186   */\n      tag_458\n        /* \"#utility.yul\":23182:23185   */\n      dup3\n        /* \"#utility.yul\":23093:23186   */\n      tag_241\n      jump\t// in\n    tag_458:\n        /* \"#utility.yul\":23211:23213   */\n      0x20\n        /* \"#utility.yul\":23206:23209   */\n      dup3\n        /* \"#utility.yul\":23202:23214   */\n      add\n        /* \"#utility.yul\":23195:23214   */\n      swap1\n      pop\n        /* \"#utility.yul\":22854:23220   */\n      swap2\n      swap1\n      pop\n      jump\t// out\n        /* \"#utility.yul\":23226:23645   */\n    tag_141:\n        /* \"#utility.yul\":23392:23396   */\n      0x00\n        /* \"#utility.yul\":23430:23432   */\n      0x20\n        /* \"#utility.yul\":23419:23428   */\n      dup3\n        /* \"#utility.yul\":23415:23433   */\n      add\n        /* \"#utility.yul\":23407:23433   */\n      swap1\n      pop\n        /* \"#utility.yul\":23479:23488   */\n      dup2\n        /* \"#utility.yul\":23473:23477   */\n      dup2\n        /* \"#utility.yul\":23469:23489   */\n      sub\n        /* \"#utility.yul\":23465:23466   */\n      0x00\n        /* \"#utility.yul\":23454:23463   */\n      dup4\n        /* \"#utility.yul\":23450:23467   */\n      add\n        /* \"#utility.yul\":23443:23490   */\n      mstore\n        /* \"#utility.yul\":23507:23638   */\n      tag_460\n        /* \"#utility.yul\":23633:23637   */\n      dup2\n        /* \"#utility.yul\":23507:23638   */\n      tag_242\n      jump\t// in\n    tag_460:\n        /* \"#utility.yul\":23499:23638   */\n      swap1\n      pop\n        /* \"#utility.yul\":23226:23645   */\n      swap2\n      swap1\n      pop\n      jump\t// out\n        /* \"#utility.yul\":23651:23818   */\n    tag_243:\n        /* \"#utility.yul\":23791:23810   */\n      0x596f7520617265206e6f74206f776e6572000000000000000000000000000000\n        /* \"#utility.yul\":23787:23788   */\n      0x00\n        /* \"#utility.yul\":23779:23785   */\n      dup3\n        /* \"#utility.yul\":23775:23789   */\n      add\n        /* \"#utility.yul\":23768:23811   */\n      mstore\n        /* \"#utility.yul\":23651:23818   */\n      pop\n      jump\t// out\n        /* \"#utility.yul\":23824:24190   */\n    tag_244:\n        /* \"#utility.yul\":23966:23969   */\n      0x00\n        /* \"#utility.yul\":23987:24054   */\n      tag_463\n        /* \"#utility.yul\":24051:24053   */\n      0x11\n        /* \"#utility.yul\":24046:24049   */\n      dup4\n        /* \"#utility.yul\":23987:24054   */\n      tag_214\n      jump\t// in\n    tag_463:\n        /* \"#utility.yul\":23980:24054   */\n      swap2\n      pop\n        /* \"#utility.yul\":24063:24156   */\n      tag_464\n        /* \"#utility.yul\":24152:24155   */\n      dup3\n        /* \"#utility.yul\":24063:24156   */\n      tag_243\n      jump\t// in\n    tag_464:\n        /* \"#utility.yul\":24181:24183   */\n      0x20\n        /* \"#utility.yul\":24176:24179   */\n      dup3\n        /* \"#utility.yul\":24172:24184   */\n      add\n        /* \"#utility.yul\":24165:24184   */\n      swap1\n      pop\n        /* \"#utility.yul\":23824:24190   */\n      swap2\n      swap1\n      pop\n      jump\t// out\n        /* \"#utility.yul\":24196:24615   */\n    tag_145:\n        /* \"#utility.yul\":24362:24366   */\n      0x00\n        /* \"#utility.yul\":24400:24402   */\n      0x20\n        /* \"#utility.yul\":24389:24398   */\n      dup3\n        /* \"#utility.yul\":24385:24403   */\n      add\n        /* \"#utility.yul\":24377:24403   */\n      swap1\n      pop\n        /* \"#utility.yul\":24449:24458   */\n      dup2\n        /* \"#utility.yul\":24443:24447   */\n      dup2\n        /* \"#utility.yul\":24439:24459   */\n      sub\n        /* \"#utility.yul\":24435:24436   */\n      0x00\n        /* \"#utility.yul\":24424:24433   */\n      dup4\n        /* \"#utility.yul\":24420:24437   */\n      add\n        /* \"#utility.yul\":24413:24460   */\n      mstore\n        /* \"#utility.yul\":24477:24608   */\n      tag_466\n        /* \"#utility.yul\":24603:24607   */\n      dup2\n        /* \"#utility.yul\":24477:24608   */\n      tag_244\n      jump\t// in\n    tag_466:\n        /* \"#utility.yul\":24469:24608   */\n      swap1\n      pop\n        /* \"#utility.yul\":24196:24615   */\n      swap2\n      swap1\n      pop\n      jump\t// out\n        /* \"#utility.yul\":24621:24788   */\n    tag_245:\n        /* \"#utility.yul\":24761:24780   */\n      0x796f7520617265206e6f74206f776e6572000000000000000000000000000000\n        /* \"#utility.yul\":24757:24758   */\n      0x00\n        /* \"#utility.yul\":24749:24755   */\n      dup3\n        /* \"#utility.yul\":24745:24759   */\n      add\n        /* \"#utility.yul\":24738:24781   */\n      mstore\n        /* \"#utility.yul\":24621:24788   */\n      pop\n      jump\t// out\n        /* \"#utility.yul\":24794:25160   */\n    tag_246:\n        /* \"#utility.yul\":24936:24939   */\n      0x00\n        /* \"#utility.yul\":24957:25024   */\n      tag_469\n        /* \"#utility.yul\":25021:25023   */\n      0x11\n        /* \"#utility.yul\":25016:25019   */\n      dup4\n        /* \"#utility.yul\":24957:25024   */\n      tag_214\n      jump\t// in\n    tag_469:\n        /* \"#utility.yul\":24950:25024   */\n      swap2\n      pop\n        /* \"#utility.yul\":25033:25126   */\n      tag_470\n        /* \"#utility.yul\":25122:25125   */\n      dup3\n        /* \"#utility.yul\":25033:25126   */\n      tag_245\n      jump\t// in\n    tag_470:\n        /* \"#utility.yul\":25151:25153   */\n      0x20\n        /* \"#utility.yul\":25146:25149   */\n      dup3\n        /* \"#utility.yul\":25142:25154   */\n      add\n        /* \"#utility.yul\":25135:25154   */\n      swap1\n      pop\n        /* \"#utility.yul\":24794:25160   */\n      swap2\n      swap1\n      pop\n      jump\t// out\n        /* \"#utility.yul\":25166:25585   */\n    tag_159:\n        /* \"#utility.yul\":25332:25336   */\n      0x00\n        /* \"#utility.yul\":25370:25372   */\n      0x20\n        /* \"#utility.yul\":25359:25368   */\n      dup3\n        /* \"#utility.yul\":25355:25373   */\n      add\n        /* \"#utility.yul\":25347:25373   */\n      swap1\n      pop\n        /* \"#utility.yul\":25419:25428   */\n      dup2\n        /* \"#utility.yul\":25413:25417   */\n      dup2\n        /* \"#utility.yul\":25409:25429   */\n      sub\n        /* \"#utility.yul\":25405:25406   */\n      0x00\n        /* \"#utility.yul\":25394:25403   */\n      dup4\n        /* \"#utility.yul\":25390:25407   */\n      add\n        /* \"#utility.yul\":25383:25430   */\n      mstore\n        /* \"#utility.yul\":25447:25578   */\n      tag_472\n        /* \"#utility.yul\":25573:25577   */\n      dup2\n        /* \"#utility.yul\":25447:25578   */\n      tag_246\n      jump\t// in\n    tag_472:\n        /* \"#utility.yul\":25439:25578   */\n      swap1\n      pop\n        /* \"#utility.yul\":25166:25585   */\n      swap2\n      swap1\n      pop\n      jump\t// out\n\n    auxdata: 0xa2646970667358221220f1e1a9357cf8f0fcb58b45775bea3b5ed8706d08ef846b161850639b1c9b374164736f6c63430008180033\n}\n",
				"bytecode": {
					"linkReferences": {},
					"object": "608060405234801562000010575f80fd5b506040516200221e3803806200221e8339818101604052810190620000369190620003ab565b33600360016101000a81548173ffffffffffffffffffffffffffffffffffffffff021916908373ffffffffffffffffffffffffffffffffffffffff160217905550600160035f6101000a81548160ff0219169083151502179055505f5b815181101562000126575f6040518060400160405280848481518110620000bf57620000be620003fa565b5b602002602001015181526020015f815250908060018154018082558091505060019003905f5260205f2090600202015f909190919091505f820151815f0190816200010b91906200065e565b50602082015181600101555050808060010191505062000093565b505062000742565b5f604051905090565b5f80fd5b5f80fd5b5f80fd5b5f601f19601f8301169050919050565b7f4e487b71000000000000000000000000000000000000000000000000000000005f52604160045260245ffd5b6200018b8262000143565b810181811067ffffffffffffffff82111715620001ad57620001ac62000153565b5b80604052505050565b5f620001c16200012e565b9050620001cf828262000180565b919050565b5f67ffffffffffffffff821115620001f157620001f062000153565b5b602082029050602081019050919050565b5f80fd5b5f80fd5b5f67ffffffffffffffff82111562000227576200022662000153565b5b620002328262000143565b9050602081019050919050565b5f5b838110156200025e57808201518184015260208101905062000241565b5f8484015250505050565b5f6200027f62000279846200020a565b620001b6565b9050828152602081018484840111156200029e576200029d62000206565b5b620002ab8482856200023f565b509392505050565b5f82601f830112620002ca57620002c96200013f565b5b8151620002dc84826020860162000269565b91505092915050565b5f620002fb620002f584620001d4565b620001b6565b9050808382526020820190506020840283018581111562000321576200032062000202565b5b835b818110156200036f57805167ffffffffffffffff8111156200034a57620003496200013f565b5b808601620003598982620002b3565b8552602085019450505060208101905062000323565b5050509392505050565b5f82601f83011262000390576200038f6200013f565b5b8151620003a2848260208601620002e5565b91505092915050565b5f60208284031215620003c357620003c262000137565b5b5f82015167ffffffffffffffff811115620003e357620003e26200013b565b5b620003f18482850162000379565b91505092915050565b7f4e487b71000000000000000000000000000000000000000000000000000000005f52603260045260245ffd5b5f81519050919050565b7f4e487b71000000000000000000000000000000000000000000000000000000005f52602260045260245ffd5b5f60028204905060018216806200047657607f821691505b6020821081036200048c576200048b62000431565b5b50919050565b5f819050815f5260205f209050919050565b5f6020601f8301049050919050565b5f82821b905092915050565b5f60088302620004f07fffffffffffffffffffffffffffffffffffffffffffffffffffffffffffffffff82620004b3565b620004fc8683620004b3565b95508019841693508086168417925050509392505050565b5f819050919050565b5f819050919050565b5f62000546620005406200053a8462000514565b6200051d565b62000514565b9050919050565b5f819050919050565b620005618362000526565b6200057962000570826200054d565b848454620004bf565b825550505050565b5f90565b6200058f62000581565b6200059c81848462000556565b505050565b5b81811015620005c357620005b75f8262000585565b600181019050620005a2565b5050565b601f8211156200061257620005dc8162000492565b620005e784620004a4565b81016020851015620005f7578190505b6200060f6200060685620004a4565b830182620005a1565b50505b505050565b5f82821c905092915050565b5f620006345f198460080262000617565b1980831691505092915050565b5f6200064e838362000623565b9150826002028217905092915050565b620006698262000427565b67ffffffffffffffff81111562000685576200068462000153565b5b6200069182546200045e565b6200069e828285620005c7565b5f60209050601f831160018114620006d4575f8415620006bf578287015190505b620006cb858262000641565b8655506200073a565b601f198416620006e48662000492565b5f5b828110156200070d57848901518255600182019150602085019450602081019050620006e6565b868310156200072d578489015162000729601f89168262000623565b8355505b6001600288020188555050505b505050505050565b611ace80620007505f395ff3fe6080604052600436106100aa575f3560e01c80634c0a6af0116100635780634c0a6af0146101b3578063746cd2ec146101c95780638da5cb5b146101f3578063a580b1951461021d578063e2842d7914610247578063e557bb4e14610271576100b1565b80630121b93f146100b357806309eef43e146100cf578063133fd5491461010b5780631b75f594146101355780632aebcbb61461015f578063365b98b214610175576100b1565b366100b157005b005b6100cd60048036038101906100c89190610f1d565b6102ae565b005b3480156100da575f80fd5b506100f560048036038101906100f09190610fa2565b610684565b6040516101029190610fe7565b60405180910390f35b348015610116575f80fd5b5061011f6106a1565b60405161012c919061118e565b60405180910390f35b348015610140575f80fd5b50610149610795565b60405161015691906111e8565b60405180910390f35b34801561016a575f80fd5b506101736108d8565b005b348015610180575f80fd5b5061019b60048036038101906101969190610f1d565b610a13565b6040516101aa93929190611217565b60405180910390f35b3480156101be575f80fd5b506101c7610b16565b005b3480156101d4575f80fd5b506101dd610c52565b6040516101ea9190610fe7565b60405180910390f35b3480156101fe575f80fd5b50610207610c64565b6040516102149190611253565b60405180910390f35b348015610228575f80fd5b50610231610c8a565b60405161023e919061128c565b60405180910390f35b348015610252575f80fd5b5061025b610ca2565b60405161026891906113cb565b60405180910390f35b34801561027c575f80fd5b5061029760048036038101906102929190610f1d565b610e19565b6040516102a5929190611442565b60405180910390f35b6001151560035f9054906101000a900460ff16151514610303576040517f08c379a00000000000000000000000000000000000000000000000000000000081526004016102fa906114ba565b60405180910390fd5b5f151560025f3373ffffffffffffffffffffffffffffffffffffffff1673ffffffffffffffffffffffffffffffffffffffff1681526020019081526020015f205f9054906101000a900460ff16151514610392576040517f08c379a000000000000000000000000000000000000000000000000000000000815260040161038990611522565b60405180910390fd5b5f73c6e38c428c036a9824cd136137262df3bea00b1d73ffffffffffffffffffffffffffffffffffffffff166108fc3490811502906040515f60405180830381858888f1935050505090506001151581151514610424576040517f08c379a000000000000000000000000000000000000000000000000000000000815260040161041b9061158a565b60405180910390fd5b5f808381548110610438576104376115a8565b5b905f5260205f20906002020190506001816001015f82825461045a9190611602565b92505081905550600160405180606001604052803373ffffffffffffffffffffffffffffffffffffffff168152602001600115158152602001836040518060400160405290815f820180546104ae90611662565b80601f01602080910402602001604051908101604052809291908181526020018280546104da90611662565b80156105255780601f106104fc57610100808354040283529160200191610525565b820191905f5260205f20905b81548152906001019060200180831161050857829003601f168201915b50505050508152602001600182015481525050815250908060018154018082558091505060019003905f5260205f2090600302015f909190919091505f820151815f015f6101000a81548173ffffffffffffffffffffffffffffffffffffffff021916908373ffffffffffffffffffffffffffffffffffffffff1602179055506020820151815f0160146101000a81548160ff0219169083151502179055506040820151816001015f820151815f0190816105e0919061185c565b506020820151816001015550505050600160025f3373ffffffffffffffffffffffffffffffffffffffff1673ffffffffffffffffffffffffffffffffffffffff1681526020019081526020015f205f6101000a81548160ff0219169083151502179055507fea66f58e474bc09f580000e81f31b334d171db387d0c6098ba47bd897741679b3384346040516106779392919061192b565b60405180910390a1505050565b6002602052805f5260405f205f915054906101000a900460ff1681565b60605f805480602002602001604051908101604052809291908181526020015f905b8282101561078c578382905f5260205f2090600202016040518060400160405290815f820180546106f390611662565b80601f016020809104026020016040519081016040528092919081815260200182805461071f90611662565b801561076a5780601f106107415761010080835404028352916020019161076a565b820191905f5260205f20905b81548152906001019060200180831161074d57829003601f168201915b50505050508152602001600182015481525050815260200190600101906106c3565b50505050905090565b61079d610ecd565b5f805f5b5f8054905081101561080d57825f82815481106107c1576107c06115a8565b5b905f5260205f209060020201600101541115610800575f81815481106107ea576107e96115a8565b5b905f5260205f2090600202016001015492508091505b80806001019150506107a1565b505f8181548110610821576108206115a8565b5b905f5260205f2090600202016040518060400160405290815f8201805461084790611662565b80601f016020809104026020016040519081016040528092919081815260200182805461087390611662565b80156108be5780601f10610895576101008083540402835291602001916108be565b820191905f5260205f20905b8154815290600101906020018083116108a157829003601f168201915b505050505081526020016001820154815250509250505090565b600360019054906101000a900473ffffffffffffffffffffffffffffffffffffffff1673ffffffffffffffffffffffffffffffffffffffff163373ffffffffffffffffffffffffffffffffffffffff1614610968576040517f08c379a000000000000000000000000000000000000000000000000000000000815260040161095f906119aa565b60405180910390fd5b600360019054906101000a900473ffffffffffffffffffffffffffffffffffffffff1673ffffffffffffffffffffffffffffffffffffffff163373ffffffffffffffffffffffffffffffffffffffff16146109f8576040517f08c379a00000000000000000000000000000000000000000000000000000000081526004016109ef90611a12565b60405180910390fd5b5f60035f6101000a81548160ff021916908315150217905550565b60018181548110610a22575f80fd5b905f5260205f2090600302015f91509050805f015f9054906101000a900473ffffffffffffffffffffffffffffffffffffffff1690805f0160149054906101000a900460ff1690806001016040518060400160405290815f82018054610a8790611662565b80601f0160208091040260200160405190810160405280929190818152602001828054610ab390611662565b8015610afe5780601f10610ad557610100808354040283529160200191610afe565b820191905f5260205f20905b815481529060010190602001808311610ae157829003601f168201915b50505050508152602001600182015481525050905083565b600360019054906101000a900473ffffffffffffffffffffffffffffffffffffffff1673ffffffffffffffffffffffffffffffffffffffff163373ffffffffffffffffffffffffffffffffffffffff1614610ba6576040517f08c379a0000000000000000000000000000000000000000000000000000000008152600401610b9d906119aa565b60405180910390fd5b600360019054906101000a900473ffffffffffffffffffffffffffffffffffffffff1673ffffffffffffffffffffffffffffffffffffffff163373ffffffffffffffffffffffffffffffffffffffff1614610c36576040517f08c379a0000000000000000000000000000000000000000000000000000000008152600401610c2d90611a7a565b60405180910390fd5b600160035f6101000a81548160ff021916908315150217905550565b60035f9054906101000a900460ff1681565b600360019054906101000a900473ffffffffffffffffffffffffffffffffffffffff1681565b73c6e38c428c036a9824cd136137262df3bea00b1d81565b60606001805480602002602001604051908101604052809291908181526020015f905b82821015610e10578382905f5260205f2090600302016040518060600160405290815f82015f9054906101000a900473ffffffffffffffffffffffffffffffffffffffff1673ffffffffffffffffffffffffffffffffffffffff1673ffffffffffffffffffffffffffffffffffffffff1681526020015f820160149054906101000a900460ff16151515158152602001600182016040518060400160405290815f82018054610d7390611662565b80601f0160208091040260200160405190810160405280929190818152602001828054610d9f90611662565b8015610dea5780601f10610dc157610100808354040283529160200191610dea565b820191905f5260205f20905b815481529060010190602001808311610dcd57829003601f168201915b505050505081526020016001820154815250508152505081526020019060010190610cc5565b50505050905090565b5f8181548110610e27575f80fd5b905f5260205f2090600202015f91509050805f018054610e4690611662565b80601f0160208091040260200160405190810160405280929190818152602001828054610e7290611662565b8015610ebd5780601f10610e9457610100808354040283529160200191610ebd565b820191905f5260205f20905b815481529060010190602001808311610ea057829003601f168201915b5050505050908060010154905082565b6040518060400160405280606081526020015f81525090565b5f80fd5b5f819050919050565b610efc81610eea565b8114610f06575f80fd5b50565b5f81359050610f1781610ef3565b92915050565b5f60208284031215610f3257610f31610ee6565b5b5f610f3f84828501610f09565b91505092915050565b5f73ffffffffffffffffffffffffffffffffffffffff82169050919050565b5f610f7182610f48565b9050919050565b610f8181610f67565b8114610f8b575f80fd5b50565b5f81359050610f9c81610f78565b92915050565b5f60208284031215610fb757610fb6610ee6565b5b5f610fc484828501610f8e565b91505092915050565b5f8115159050919050565b610fe181610fcd565b82525050565b5f602082019050610ffa5f830184610fd8565b92915050565b5f81519050919050565b5f82825260208201905092915050565b5f819050602082019050919050565b5f81519050919050565b5f82825260208201905092915050565b5f5b83811015611060578082015181840152602081019050611045565b5f8484015250505050565b5f601f19601f8301169050919050565b5f61108582611029565b61108f8185611033565b935061109f818560208601611043565b6110a88161106b565b840191505092915050565b6110bc81610eea565b82525050565b5f604083015f8301518482035f8601526110dc828261107b565b91505060208301516110f160208601826110b3565b508091505092915050565b5f61110783836110c2565b905092915050565b5f602082019050919050565b5f61112582611000565b61112f818561100a565b9350836020820285016111418561101a565b805f5b8581101561117c578484038952815161115d85826110fc565b94506111688361110f565b925060208a01995050600181019050611144565b50829750879550505050505092915050565b5f6020820190508181035f8301526111a6818461111b565b905092915050565b5f604083015f8301518482035f8601526111c8828261107b565b91505060208301516111dd60208601826110b3565b508091505092915050565b5f6020820190508181035f83015261120081846111ae565b905092915050565b61121181610f67565b82525050565b5f60608201905061122a5f830186611208565b6112376020830185610fd8565b818103604083015261124981846111ae565b9050949350505050565b5f6020820190506112665f830184611208565b92915050565b5f61127682610f48565b9050919050565b6112868161126c565b82525050565b5f60208201905061129f5f83018461127d565b92915050565b5f81519050919050565b5f82825260208201905092915050565b5f819050602082019050919050565b6112d781610f67565b82525050565b6112e681610fcd565b82525050565b5f606083015f8301516113015f8601826112ce565b50602083015161131460208601826112dd565b506040830151848203604086015261132c82826110c2565b9150508091505092915050565b5f61134483836112ec565b905092915050565b5f602082019050919050565b5f611362826112a5565b61136c81856112af565b93508360208202850161137e856112bf565b805f5b858110156113b9578484038952815161139a8582611339565b94506113a58361134c565b925060208a01995050600181019050611381565b50829750879550505050505092915050565b5f6020820190508181035f8301526113e38184611358565b905092915050565b5f82825260208201905092915050565b5f61140582611029565b61140f81856113eb565b935061141f818560208601611043565b6114288161106b565b840191505092915050565b61143c81610eea565b82525050565b5f6040820190508181035f83015261145a81856113fb565b90506114696020830184611433565b9392505050565b7f766f74696e6720697320646f6e650000000000000000000000000000000000005f82015250565b5f6114a4600e836113eb565b91506114af82611470565b602082019050919050565b5f6020820190508181035f8301526114d181611498565b9050919050565b7f416c726561647920796f7520766f7465640000000000000000000000000000005f82015250565b5f61150c6011836113eb565b9150611517826114d8565b602082019050919050565b5f6020820190508181035f83015261153981611500565b9050919050565b7f492063616e6e6f742067657420746865206d6f6e6579000000000000000000005f82015250565b5f6115746016836113eb565b915061157f82611540565b602082019050919050565b5f6020820190508181035f8301526115a181611568565b9050919050565b7f4e487b71000000000000000000000000000000000000000000000000000000005f52603260045260245ffd5b7f4e487b71000000000000000000000000000000000000000000000000000000005f52601160045260245ffd5b5f61160c82610eea565b915061161783610eea565b925082820190508082111561162f5761162e6115d5565b5b92915050565b7f4e487b71000000000000000000000000000000000000000000000000000000005f52602260045260245ffd5b5f600282049050600182168061167957607f821691505b60208210810361168c5761168b611635565b5b50919050565b7f4e487b71000000000000000000000000000000000000000000000000000000005f52604160045260245ffd5b5f819050815f5260205f209050919050565b5f6020601f8301049050919050565b5f82821b905092915050565b5f6008830261171b7fffffffffffffffffffffffffffffffffffffffffffffffffffffffffffffffff826116e0565b61172586836116e0565b95508019841693508086168417925050509392505050565b5f819050919050565b5f61176061175b61175684610eea565b61173d565b610eea565b9050919050565b5f819050919050565b61177983611746565b61178d61178582611767565b8484546116ec565b825550505050565b5f90565b6117a1611795565b6117ac818484611770565b505050565b5b818110156117cf576117c45f82611799565b6001810190506117b2565b5050565b601f821115611814576117e5816116bf565b6117ee846116d1565b810160208510156117fd578190505b611811611809856116d1565b8301826117b1565b50505b505050565b5f82821c905092915050565b5f6118345f1984600802611819565b1980831691505092915050565b5f61184c8383611825565b9150826002028217905092915050565b61186582611029565b67ffffffffffffffff81111561187e5761187d611692565b5b6118888254611662565b6118938282856117d3565b5f60209050601f8311600181146118c4575f84156118b2578287015190505b6118bc8582611841565b865550611923565b601f1984166118d2866116bf565b5f5b828110156118f9578489015182556001820191506020850194506020810190506118d4565b868310156119165784890151611912601f891682611825565b8355505b6001600288020188555050505b505050505050565b5f60608201905061193e5f830186611208565b61194b6020830185611433565b6119586040830184611433565b949350505050565b7f49742773206e6f74206f776e65722061646472657373000000000000000000005f82015250565b5f6119946016836113eb565b915061199f82611960565b602082019050919050565b5f6020820190508181035f8301526119c181611988565b9050919050565b7f596f7520617265206e6f74206f776e65720000000000000000000000000000005f82015250565b5f6119fc6011836113eb565b9150611a07826119c8565b602082019050919050565b5f6020820190508181035f830152611a29816119f0565b9050919050565b7f796f7520617265206e6f74206f776e65720000000000000000000000000000005f82015250565b5f611a646011836113eb565b9150611a6f82611a30565b602082019050919050565b5f6020820190508181035f830152611a9181611a58565b905091905056fea2646970667358221220f1e1a9357cf8f0fcb58b45775bea3b5ed8706d08ef846b161850639b1c9b374164736f6c63430008180033",
					"opcodes": "PUSH1 0x80 PUSH1 0x40 MSTORE CALLVALUE DUP1 ISZERO PUSH3 0x10 JUMPI PUSH0 DUP1 REVERT JUMPDEST POP PUSH1 0x40 MLOAD PUSH3 0x221E CODESIZE SUB DUP1 PUSH3 0x221E DUP4 CODECOPY DUP2 DUP2 ADD PUSH1 0x40 MSTORE DUP2 ADD SWAP1 PUSH3 0x36 SWAP2 SWAP1 PUSH3 0x3AB JUMP JUMPDEST CALLER PUSH1 0x3 PUSH1 0x1 PUSH2 0x100 EXP DUP2 SLOAD DUP2 PUSH20 0xFFFFFFFFFFFFFFFFFFFFFFFFFFFFFFFFFFFFFFFF MUL NOT AND SWAP1 DUP4 PUSH20 0xFFFFFFFFFFFFFFFFFFFFFFFFFFFFFFFFFFFFFFFF AND MUL OR SWAP1 SSTORE POP PUSH1 0x1 PUSH1 0x3 PUSH0 PUSH2 0x100 EXP DUP2 SLOAD DUP2 PUSH1 0xFF MUL NOT AND SWAP1 DUP4 ISZERO ISZERO MUL OR SWAP1 SSTORE POP PUSH0 JUMPDEST DUP2 MLOAD DUP2 LT ISZERO PUSH3 0x126 JUMPI PUSH0 PUSH1 0x40 MLOAD DUP1 PUSH1 0x40 ADD PUSH1 0x40 MSTORE DUP1 DUP5 DUP5 DUP2 MLOAD DUP2 LT PUSH3 0xBF JUMPI PUSH3 0xBE PUSH3 0x3FA JUMP JUMPDEST JUMPDEST PUSH1 0x20 MUL PUSH1 0x20 ADD ADD MLOAD DUP2 MSTORE PUSH1 0x20 ADD PUSH0 DUP2 MSTORE POP SWAP1 DUP1 PUSH1 0x1 DUP2 SLOAD ADD DUP1 DUP3 SSTORE DUP1 SWAP2 POP POP PUSH1 0x1 SWAP1 SUB SWAP1 PUSH0 MSTORE PUSH1 0x20 PUSH0 KECCAK256 SWAP1 PUSH1 0x2 MUL ADD PUSH0 SWAP1 SWAP2 SWAP1 SWAP2 SWAP1 SWAP2 POP PUSH0 DUP3 ADD MLOAD DUP2 PUSH0 ADD SWAP1 DUP2 PUSH3 0x10B SWAP2 SWAP1 PUSH3 0x65E JUMP JUMPDEST POP PUSH1 0x20 DUP3 ADD MLOAD DUP2 PUSH1 0x1 ADD SSTORE POP POP DUP1 DUP1 PUSH1 0x1 ADD SWAP2 POP POP PUSH3 0x93 JUMP JUMPDEST POP POP PUSH3 0x742 JUMP JUMPDEST PUSH0 PUSH1 0x40 MLOAD SWAP1 POP SWAP1 JUMP JUMPDEST PUSH0 DUP1 REVERT JUMPDEST PUSH0 DUP1 REVERT JUMPDEST PUSH0 DUP1 REVERT JUMPDEST PUSH0 PUSH1 0x1F NOT PUSH1 0x1F DUP4 ADD AND SWAP1 POP SWAP2 SWAP1 POP JUMP JUMPDEST PUSH32 0x4E487B7100000000000000000000000000000000000000000000000000000000 PUSH0 MSTORE PUSH1 0x41 PUSH1 0x4 MSTORE PUSH1 0x24 PUSH0 REVERT JUMPDEST PUSH3 0x18B DUP3 PUSH3 0x143 JUMP JUMPDEST DUP2 ADD DUP2 DUP2 LT PUSH8 0xFFFFFFFFFFFFFFFF DUP3 GT OR ISZERO PUSH3 0x1AD JUMPI PUSH3 0x1AC PUSH3 0x153 JUMP JUMPDEST JUMPDEST DUP1 PUSH1 0x40 MSTORE POP POP POP JUMP JUMPDEST PUSH0 PUSH3 0x1C1 PUSH3 0x12E JUMP JUMPDEST SWAP1 POP PUSH3 0x1CF DUP3 DUP3 PUSH3 0x180 JUMP JUMPDEST SWAP2 SWAP1 POP JUMP JUMPDEST PUSH0 PUSH8 0xFFFFFFFFFFFFFFFF DUP3 GT ISZERO PUSH3 0x1F1 JUMPI PUSH3 0x1F0 PUSH3 0x153 JUMP JUMPDEST JUMPDEST PUSH1 0x20 DUP3 MUL SWAP1 POP PUSH1 0x20 DUP2 ADD SWAP1 POP SWAP2 SWAP1 POP JUMP JUMPDEST PUSH0 DUP1 REVERT JUMPDEST PUSH0 DUP1 REVERT JUMPDEST PUSH0 PUSH8 0xFFFFFFFFFFFFFFFF DUP3 GT ISZERO PUSH3 0x227 JUMPI PUSH3 0x226 PUSH3 0x153 JUMP JUMPDEST JUMPDEST PUSH3 0x232 DUP3 PUSH3 0x143 JUMP JUMPDEST SWAP1 POP PUSH1 0x20 DUP2 ADD SWAP1 POP SWAP2 SWAP1 POP JUMP JUMPDEST PUSH0 JUMPDEST DUP4 DUP2 LT ISZERO PUSH3 0x25E JUMPI DUP1 DUP3 ADD MLOAD DUP2 DUP5 ADD MSTORE PUSH1 0x20 DUP2 ADD SWAP1 POP PUSH3 0x241 JUMP JUMPDEST PUSH0 DUP5 DUP5 ADD MSTORE POP POP POP POP JUMP JUMPDEST PUSH0 PUSH3 0x27F PUSH3 0x279 DUP5 PUSH3 0x20A JUMP JUMPDEST PUSH3 0x1B6 JUMP JUMPDEST SWAP1 POP DUP3 DUP2 MSTORE PUSH1 0x20 DUP2 ADD DUP5 DUP5 DUP5 ADD GT ISZERO PUSH3 0x29E JUMPI PUSH3 0x29D PUSH3 0x206 JUMP JUMPDEST JUMPDEST PUSH3 0x2AB DUP5 DUP3 DUP6 PUSH3 0x23F JUMP JUMPDEST POP SWAP4 SWAP3 POP POP POP JUMP JUMPDEST PUSH0 DUP3 PUSH1 0x1F DUP4 ADD SLT PUSH3 0x2CA JUMPI PUSH3 0x2C9 PUSH3 0x13F JUMP JUMPDEST JUMPDEST DUP2 MLOAD PUSH3 0x2DC DUP5 DUP3 PUSH1 0x20 DUP7 ADD PUSH3 0x269 JUMP JUMPDEST SWAP2 POP POP SWAP3 SWAP2 POP POP JUMP JUMPDEST PUSH0 PUSH3 0x2FB PUSH3 0x2F5 DUP5 PUSH3 0x1D4 JUMP JUMPDEST PUSH3 0x1B6 JUMP JUMPDEST SWAP1 POP DUP1 DUP4 DUP3 MSTORE PUSH1 0x20 DUP3 ADD SWAP1 POP PUSH1 0x20 DUP5 MUL DUP4 ADD DUP6 DUP2 GT ISZERO PUSH3 0x321 JUMPI PUSH3 0x320 PUSH3 0x202 JUMP JUMPDEST JUMPDEST DUP4 JUMPDEST DUP2 DUP2 LT ISZERO PUSH3 0x36F JUMPI DUP1 MLOAD PUSH8 0xFFFFFFFFFFFFFFFF DUP2 GT ISZERO PUSH3 0x34A JUMPI PUSH3 0x349 PUSH3 0x13F JUMP JUMPDEST JUMPDEST DUP1 DUP7 ADD PUSH3 0x359 DUP10 DUP3 PUSH3 0x2B3 JUMP JUMPDEST DUP6 MSTORE PUSH1 0x20 DUP6 ADD SWAP5 POP POP POP PUSH1 0x20 DUP2 ADD SWAP1 POP PUSH3 0x323 JUMP JUMPDEST POP POP POP SWAP4 SWAP3 POP POP POP JUMP JUMPDEST PUSH0 DUP3 PUSH1 0x1F DUP4 ADD SLT PUSH3 0x390 JUMPI PUSH3 0x38F PUSH3 0x13F JUMP JUMPDEST JUMPDEST DUP2 MLOAD PUSH3 0x3A2 DUP5 DUP3 PUSH1 0x20 DUP7 ADD PUSH3 0x2E5 JUMP JUMPDEST SWAP2 POP POP SWAP3 SWAP2 POP POP JUMP JUMPDEST PUSH0 PUSH1 0x20 DUP3 DUP5 SUB SLT ISZERO PUSH3 0x3C3 JUMPI PUSH3 0x3C2 PUSH3 0x137 JUMP JUMPDEST JUMPDEST PUSH0 DUP3 ADD MLOAD PUSH8 0xFFFFFFFFFFFFFFFF DUP2 GT ISZERO PUSH3 0x3E3 JUMPI PUSH3 0x3E2 PUSH3 0x13B JUMP JUMPDEST JUMPDEST PUSH3 0x3F1 DUP5 DUP3 DUP6 ADD PUSH3 0x379 JUMP JUMPDEST SWAP2 POP POP SWAP3 SWAP2 POP POP JUMP JUMPDEST PUSH32 0x4E487B7100000000000000000000000000000000000000000000000000000000 PUSH0 MSTORE PUSH1 0x32 PUSH1 0x4 MSTORE PUSH1 0x24 PUSH0 REVERT JUMPDEST PUSH0 DUP2 MLOAD SWAP1 POP SWAP2 SWAP1 POP JUMP JUMPDEST PUSH32 0x4E487B7100000000000000000000000000000000000000000000000000000000 PUSH0 MSTORE PUSH1 0x22 PUSH1 0x4 MSTORE PUSH1 0x24 PUSH0 REVERT JUMPDEST PUSH0 PUSH1 0x2 DUP3 DIV SWAP1 POP PUSH1 0x1 DUP3 AND DUP1 PUSH3 0x476 JUMPI PUSH1 0x7F DUP3 AND SWAP2 POP JUMPDEST PUSH1 0x20 DUP3 LT DUP2 SUB PUSH3 0x48C JUMPI PUSH3 0x48B PUSH3 0x431 JUMP JUMPDEST JUMPDEST POP SWAP2 SWAP1 POP JUMP JUMPDEST PUSH0 DUP2 SWAP1 POP DUP2 PUSH0 MSTORE PUSH1 0x20 PUSH0 KECCAK256 SWAP1 POP SWAP2 SWAP1 POP JUMP JUMPDEST PUSH0 PUSH1 0x20 PUSH1 0x1F DUP4 ADD DIV SWAP1 POP SWAP2 SWAP1 POP JUMP JUMPDEST PUSH0 DUP3 DUP3 SHL SWAP1 POP SWAP3 SWAP2 POP POP JUMP JUMPDEST PUSH0 PUSH1 0x8 DUP4 MUL PUSH3 0x4F0 PUSH32 0xFFFFFFFFFFFFFFFFFFFFFFFFFFFFFFFFFFFFFFFFFFFFFFFFFFFFFFFFFFFFFFFF DUP3 PUSH3 0x4B3 JUMP JUMPDEST PUSH3 0x4FC DUP7 DUP4 PUSH3 0x4B3 JUMP JUMPDEST SWAP6 POP DUP1 NOT DUP5 AND SWAP4 POP DUP1 DUP7 AND DUP5 OR SWAP3 POP POP POP SWAP4 SWAP3 POP POP POP JUMP JUMPDEST PUSH0 DUP2 SWAP1 POP SWAP2 SWAP1 POP JUMP JUMPDEST PUSH0 DUP2 SWAP1 POP SWAP2 SWAP1 POP JUMP JUMPDEST PUSH0 PUSH3 0x546 PUSH3 0x540 PUSH3 0x53A DUP5 PUSH3 0x514 JUMP JUMPDEST PUSH3 0x51D JUMP JUMPDEST PUSH3 0x514 JUMP JUMPDEST SWAP1 POP SWAP2 SWAP1 POP JUMP JUMPDEST PUSH0 DUP2 SWAP1 POP SWAP2 SWAP1 POP JUMP JUMPDEST PUSH3 0x561 DUP4 PUSH3 0x526 JUMP JUMPDEST PUSH3 0x579 PUSH3 0x570 DUP3 PUSH3 0x54D JUMP JUMPDEST DUP5 DUP5 SLOAD PUSH3 0x4BF JUMP JUMPDEST DUP3 SSTORE POP POP POP POP JUMP JUMPDEST PUSH0 SWAP1 JUMP JUMPDEST PUSH3 0x58F PUSH3 0x581 JUMP JUMPDEST PUSH3 0x59C DUP2 DUP5 DUP5 PUSH3 0x556 JUMP JUMPDEST POP POP POP JUMP JUMPDEST JUMPDEST DUP2 DUP2 LT ISZERO PUSH3 0x5C3 JUMPI PUSH3 0x5B7 PUSH0 DUP3 PUSH3 0x585 JUMP JUMPDEST PUSH1 0x1 DUP2 ADD SWAP1 POP PUSH3 0x5A2 JUMP JUMPDEST POP POP JUMP JUMPDEST PUSH1 0x1F DUP3 GT ISZERO PUSH3 0x612 JUMPI PUSH3 0x5DC DUP2 PUSH3 0x492 JUMP JUMPDEST PUSH3 0x5E7 DUP5 PUSH3 0x4A4 JUMP JUMPDEST DUP2 ADD PUSH1 0x20 DUP6 LT ISZERO PUSH3 0x5F7 JUMPI DUP2 SWAP1 POP JUMPDEST PUSH3 0x60F PUSH3 0x606 DUP6 PUSH3 0x4A4 JUMP JUMPDEST DUP4 ADD DUP3 PUSH3 0x5A1 JUMP JUMPDEST POP POP JUMPDEST POP POP POP JUMP JUMPDEST PUSH0 DUP3 DUP3 SHR SWAP1 POP SWAP3 SWAP2 POP POP JUMP JUMPDEST PUSH0 PUSH3 0x634 PUSH0 NOT DUP5 PUSH1 0x8 MUL PUSH3 0x617 JUMP JUMPDEST NOT DUP1 DUP4 AND SWAP2 POP POP SWAP3 SWAP2 POP POP JUMP JUMPDEST PUSH0 PUSH3 0x64E DUP4 DUP4 PUSH3 0x623 JUMP JUMPDEST SWAP2 POP DUP3 PUSH1 0x2 MUL DUP3 OR SWAP1 POP SWAP3 SWAP2 POP POP JUMP JUMPDEST PUSH3 0x669 DUP3 PUSH3 0x427 JUMP JUMPDEST PUSH8 0xFFFFFFFFFFFFFFFF DUP2 GT ISZERO PUSH3 0x685 JUMPI PUSH3 0x684 PUSH3 0x153 JUMP JUMPDEST JUMPDEST PUSH3 0x691 DUP3 SLOAD PUSH3 0x45E JUMP JUMPDEST PUSH3 0x69E DUP3 DUP3 DUP6 PUSH3 0x5C7 JUMP JUMPDEST PUSH0 PUSH1 0x20 SWAP1 POP PUSH1 0x1F DUP4 GT PUSH1 0x1 DUP2 EQ PUSH3 0x6D4 JUMPI PUSH0 DUP5 ISZERO PUSH3 0x6BF JUMPI DUP3 DUP8 ADD MLOAD SWAP1 POP JUMPDEST PUSH3 0x6CB DUP6 DUP3 PUSH3 0x641 JUMP JUMPDEST DUP7 SSTORE POP PUSH3 0x73A JUMP JUMPDEST PUSH1 0x1F NOT DUP5 AND PUSH3 0x6E4 DUP7 PUSH3 0x492 JUMP JUMPDEST PUSH0 JUMPDEST DUP3 DUP2 LT ISZERO PUSH3 0x70D JUMPI DUP5 DUP10 ADD MLOAD DUP3 SSTORE PUSH1 0x1 DUP3 ADD SWAP2 POP PUSH1 0x20 DUP6 ADD SWAP5 POP PUSH1 0x20 DUP2 ADD SWAP1 POP PUSH3 0x6E6 JUMP JUMPDEST DUP7 DUP4 LT ISZERO PUSH3 0x72D JUMPI DUP5 DUP10 ADD MLOAD PUSH3 0x729 PUSH1 0x1F DUP10 AND DUP3 PUSH3 0x623 JUMP JUMPDEST DUP4 SSTORE POP JUMPDEST PUSH1 0x1 PUSH1 0x2 DUP9 MUL ADD DUP9 SSTORE POP POP POP JUMPDEST POP POP POP POP POP POP JUMP JUMPDEST PUSH2 0x1ACE DUP1 PUSH3 0x750 PUSH0 CODECOPY PUSH0 RETURN INVALID PUSH1 0x80 PUSH1 0x40 MSTORE PUSH1 0x4 CALLDATASIZE LT PUSH2 0xAA JUMPI PUSH0 CALLDATALOAD PUSH1 0xE0 SHR DUP1 PUSH4 0x4C0A6AF0 GT PUSH2 0x63 JUMPI DUP1 PUSH4 0x4C0A6AF0 EQ PUSH2 0x1B3 JUMPI DUP1 PUSH4 0x746CD2EC EQ PUSH2 0x1C9 JUMPI DUP1 PUSH4 0x8DA5CB5B EQ PUSH2 0x1F3 JUMPI DUP1 PUSH4 0xA580B195 EQ PUSH2 0x21D JUMPI DUP1 PUSH4 0xE2842D79 EQ PUSH2 0x247 JUMPI DUP1 PUSH4 0xE557BB4E EQ PUSH2 0x271 JUMPI PUSH2 0xB1 JUMP JUMPDEST DUP1 PUSH4 0x121B93F EQ PUSH2 0xB3 JUMPI DUP1 PUSH4 0x9EEF43E EQ PUSH2 0xCF JUMPI DUP1 PUSH4 0x133FD549 EQ PUSH2 0x10B JUMPI DUP1 PUSH4 0x1B75F594 EQ PUSH2 0x135 JUMPI DUP1 PUSH4 0x2AEBCBB6 EQ PUSH2 0x15F JUMPI DUP1 PUSH4 0x365B98B2 EQ PUSH2 0x175 JUMPI PUSH2 0xB1 JUMP JUMPDEST CALLDATASIZE PUSH2 0xB1 JUMPI STOP JUMPDEST STOP JUMPDEST PUSH2 0xCD PUSH1 0x4 DUP1 CALLDATASIZE SUB DUP2 ADD SWAP1 PUSH2 0xC8 SWAP2 SWAP1 PUSH2 0xF1D JUMP JUMPDEST PUSH2 0x2AE JUMP JUMPDEST STOP JUMPDEST CALLVALUE DUP1 ISZERO PUSH2 0xDA JUMPI PUSH0 DUP1 REVERT JUMPDEST POP PUSH2 0xF5 PUSH1 0x4 DUP1 CALLDATASIZE SUB DUP2 ADD SWAP1 PUSH2 0xF0 SWAP2 SWAP1 PUSH2 0xFA2 JUMP JUMPDEST PUSH2 0x684 JUMP JUMPDEST PUSH1 0x40 MLOAD PUSH2 0x102 SWAP2 SWAP1 PUSH2 0xFE7 JUMP JUMPDEST PUSH1 0x40 MLOAD DUP1 SWAP2 SUB SWAP1 RETURN JUMPDEST CALLVALUE DUP1 ISZERO PUSH2 0x116 JUMPI PUSH0 DUP1 REVERT JUMPDEST POP PUSH2 0x11F PUSH2 0x6A1 JUMP JUMPDEST PUSH1 0x40 MLOAD PUSH2 0x12C SWAP2 SWAP1 PUSH2 0x118E JUMP JUMPDEST PUSH1 0x40 MLOAD DUP1 SWAP2 SUB SWAP1 RETURN JUMPDEST CALLVALUE DUP1 ISZERO PUSH2 0x140 JUMPI PUSH0 DUP1 REVERT JUMPDEST POP PUSH2 0x149 PUSH2 0x795 JUMP JUMPDEST PUSH1 0x40 MLOAD PUSH2 0x156 SWAP2 SWAP1 PUSH2 0x11E8 JUMP JUMPDEST PUSH1 0x40 MLOAD DUP1 SWAP2 SUB SWAP1 RETURN JUMPDEST CALLVALUE DUP1 ISZERO PUSH2 0x16A JUMPI PUSH0 DUP1 REVERT JUMPDEST POP PUSH2 0x173 PUSH2 0x8D8 JUMP JUMPDEST STOP JUMPDEST CALLVALUE DUP1 ISZERO PUSH2 0x180 JUMPI PUSH0 DUP1 REVERT JUMPDEST POP PUSH2 0x19B PUSH1 0x4 DUP1 CALLDATASIZE SUB DUP2 ADD SWAP1 PUSH2 0x196 SWAP2 SWAP1 PUSH2 0xF1D JUMP JUMPDEST PUSH2 0xA13 JUMP JUMPDEST PUSH1 0x40 MLOAD PUSH2 0x1AA SWAP4 SWAP3 SWAP2 SWAP1 PUSH2 0x1217 JUMP JUMPDEST PUSH1 0x40 MLOAD DUP1 SWAP2 SUB SWAP1 RETURN JUMPDEST CALLVALUE DUP1 ISZERO PUSH2 0x1BE JUMPI PUSH0 DUP1 REVERT JUMPDEST POP PUSH2 0x1C7 PUSH2 0xB16 JUMP JUMPDEST STOP JUMPDEST CALLVALUE DUP1 ISZERO PUSH2 0x1D4 JUMPI PUSH0 DUP1 REVERT JUMPDEST POP PUSH2 0x1DD PUSH2 0xC52 JUMP JUMPDEST PUSH1 0x40 MLOAD PUSH2 0x1EA SWAP2 SWAP1 PUSH2 0xFE7 JUMP JUMPDEST PUSH1 0x40 MLOAD DUP1 SWAP2 SUB SWAP1 RETURN JUMPDEST CALLVALUE DUP1 ISZERO PUSH2 0x1FE JUMPI PUSH0 DUP1 REVERT JUMPDEST POP PUSH2 0x207 PUSH2 0xC64 JUMP JUMPDEST PUSH1 0x40 MLOAD PUSH2 0x214 SWAP2 SWAP1 PUSH2 0x1253 JUMP JUMPDEST PUSH1 0x40 MLOAD DUP1 SWAP2 SUB SWAP1 RETURN JUMPDEST CALLVALUE DUP1 ISZERO PUSH2 0x228 JUMPI PUSH0 DUP1 REVERT JUMPDEST POP PUSH2 0x231 PUSH2 0xC8A JUMP JUMPDEST PUSH1 0x40 MLOAD PUSH2 0x23E SWAP2 SWAP1 PUSH2 0x128C JUMP JUMPDEST PUSH1 0x40 MLOAD DUP1 SWAP2 SUB SWAP1 RETURN JUMPDEST CALLVALUE DUP1 ISZERO PUSH2 0x252 JUMPI PUSH0 DUP1 REVERT JUMPDEST POP PUSH2 0x25B PUSH2 0xCA2 JUMP JUMPDEST PUSH1 0x40 MLOAD PUSH2 0x268 SWAP2 SWAP1 PUSH2 0x13CB JUMP JUMPDEST PUSH1 0x40 MLOAD DUP1 SWAP2 SUB SWAP1 RETURN JUMPDEST CALLVALUE DUP1 ISZERO PUSH2 0x27C JUMPI PUSH0 DUP1 REVERT JUMPDEST POP PUSH2 0x297 PUSH1 0x4 DUP1 CALLDATASIZE SUB DUP2 ADD SWAP1 PUSH2 0x292 SWAP2 SWAP1 PUSH2 0xF1D JUMP JUMPDEST PUSH2 0xE19 JUMP JUMPDEST PUSH1 0x40 MLOAD PUSH2 0x2A5 SWAP3 SWAP2 SWAP1 PUSH2 0x1442 JUMP JUMPDEST PUSH1 0x40 MLOAD DUP1 SWAP2 SUB SWAP1 RETURN JUMPDEST PUSH1 0x1 ISZERO ISZERO PUSH1 0x3 PUSH0 SWAP1 SLOAD SWAP1 PUSH2 0x100 EXP SWAP1 DIV PUSH1 0xFF AND ISZERO ISZERO EQ PUSH2 0x303 JUMPI PUSH1 0x40 MLOAD PUSH32 0x8C379A000000000000000000000000000000000000000000000000000000000 DUP2 MSTORE PUSH1 0x4 ADD PUSH2 0x2FA SWAP1 PUSH2 0x14BA JUMP JUMPDEST PUSH1 0x40 MLOAD DUP1 SWAP2 SUB SWAP1 REVERT JUMPDEST PUSH0 ISZERO ISZERO PUSH1 0x2 PUSH0 CALLER PUSH20 0xFFFFFFFFFFFFFFFFFFFFFFFFFFFFFFFFFFFFFFFF AND PUSH20 0xFFFFFFFFFFFFFFFFFFFFFFFFFFFFFFFFFFFFFFFF AND DUP2 MSTORE PUSH1 0x20 ADD SWAP1 DUP2 MSTORE PUSH1 0x20 ADD PUSH0 KECCAK256 PUSH0 SWAP1 SLOAD SWAP1 PUSH2 0x100 EXP SWAP1 DIV PUSH1 0xFF AND ISZERO ISZERO EQ PUSH2 0x392 JUMPI PUSH1 0x40 MLOAD PUSH32 0x8C379A000000000000000000000000000000000000000000000000000000000 DUP2 MSTORE PUSH1 0x4 ADD PUSH2 0x389 SWAP1 PUSH2 0x1522 JUMP JUMPDEST PUSH1 0x40 MLOAD DUP1 SWAP2 SUB SWAP1 REVERT JUMPDEST PUSH0 PUSH20 0xC6E38C428C036A9824CD136137262DF3BEA00B1D PUSH20 0xFFFFFFFFFFFFFFFFFFFFFFFFFFFFFFFFFFFFFFFF AND PUSH2 0x8FC CALLVALUE SWAP1 DUP2 ISZERO MUL SWAP1 PUSH1 0x40 MLOAD PUSH0 PUSH1 0x40 MLOAD DUP1 DUP4 SUB DUP2 DUP6 DUP9 DUP9 CALL SWAP4 POP POP POP POP SWAP1 POP PUSH1 0x1 ISZERO ISZERO DUP2 ISZERO ISZERO EQ PUSH2 0x424 JUMPI PUSH1 0x40 MLOAD PUSH32 0x8C379A000000000000000000000000000000000000000000000000000000000 DUP2 MSTORE PUSH1 0x4 ADD PUSH2 0x41B SWAP1 PUSH2 0x158A JUMP JUMPDEST PUSH1 0x40 MLOAD DUP1 SWAP2 SUB SWAP1 REVERT JUMPDEST PUSH0 DUP1 DUP4 DUP2 SLOAD DUP2 LT PUSH2 0x438 JUMPI PUSH2 0x437 PUSH2 0x15A8 JUMP JUMPDEST JUMPDEST SWAP1 PUSH0 MSTORE PUSH1 0x20 PUSH0 KECCAK256 SWAP1 PUSH1 0x2 MUL ADD SWAP1 POP PUSH1 0x1 DUP2 PUSH1 0x1 ADD PUSH0 DUP3 DUP3 SLOAD PUSH2 0x45A SWAP2 SWAP1 PUSH2 0x1602 JUMP JUMPDEST SWAP3 POP POP DUP2 SWAP1 SSTORE POP PUSH1 0x1 PUSH1 0x40 MLOAD DUP1 PUSH1 0x60 ADD PUSH1 0x40 MSTORE DUP1 CALLER PUSH20 0xFFFFFFFFFFFFFFFFFFFFFFFFFFFFFFFFFFFFFFFF AND DUP2 MSTORE PUSH1 0x20 ADD PUSH1 0x1 ISZERO ISZERO DUP2 MSTORE PUSH1 0x20 ADD DUP4 PUSH1 0x40 MLOAD DUP1 PUSH1 0x40 ADD PUSH1 0x40 MSTORE SWAP1 DUP2 PUSH0 DUP3 ADD DUP1 SLOAD PUSH2 0x4AE SWAP1 PUSH2 0x1662 JUMP JUMPDEST DUP1 PUSH1 0x1F ADD PUSH1 0x20 DUP1 SWAP2 DIV MUL PUSH1 0x20 ADD PUSH1 0x40 MLOAD SWAP1 DUP2 ADD PUSH1 0x40 MSTORE DUP1 SWAP3 SWAP2 SWAP1 DUP2 DUP2 MSTORE PUSH1 0x20 ADD DUP3 DUP1 SLOAD PUSH2 0x4DA SWAP1 PUSH2 0x1662 JUMP JUMPDEST DUP1 ISZERO PUSH2 0x525 JUMPI DUP1 PUSH1 0x1F LT PUSH2 0x4FC JUMPI PUSH2 0x100 DUP1 DUP4 SLOAD DIV MUL DUP4 MSTORE SWAP2 PUSH1 0x20 ADD SWAP2 PUSH2 0x525 JUMP JUMPDEST DUP3 ADD SWAP2 SWAP1 PUSH0 MSTORE PUSH1 0x20 PUSH0 KECCAK256 SWAP1 JUMPDEST DUP2 SLOAD DUP2 MSTORE SWAP1 PUSH1 0x1 ADD SWAP1 PUSH1 0x20 ADD DUP1 DUP4 GT PUSH2 0x508 JUMPI DUP3 SWAP1 SUB PUSH1 0x1F AND DUP3 ADD SWAP2 JUMPDEST POP POP POP POP POP DUP2 MSTORE PUSH1 0x20 ADD PUSH1 0x1 DUP3 ADD SLOAD DUP2 MSTORE POP POP DUP2 MSTORE POP SWAP1 DUP1 PUSH1 0x1 DUP2 SLOAD ADD DUP1 DUP3 SSTORE DUP1 SWAP2 POP POP PUSH1 0x1 SWAP1 SUB SWAP1 PUSH0 MSTORE PUSH1 0x20 PUSH0 KECCAK256 SWAP1 PUSH1 0x3 MUL ADD PUSH0 SWAP1 SWAP2 SWAP1 SWAP2 SWAP1 SWAP2 POP PUSH0 DUP3 ADD MLOAD DUP2 PUSH0 ADD PUSH0 PUSH2 0x100 EXP DUP2 SLOAD DUP2 PUSH20 0xFFFFFFFFFFFFFFFFFFFFFFFFFFFFFFFFFFFFFFFF MUL NOT AND SWAP1 DUP4 PUSH20 0xFFFFFFFFFFFFFFFFFFFFFFFFFFFFFFFFFFFFFFFF AND MUL OR SWAP1 SSTORE POP PUSH1 0x20 DUP3 ADD MLOAD DUP2 PUSH0 ADD PUSH1 0x14 PUSH2 0x100 EXP DUP2 SLOAD DUP2 PUSH1 0xFF MUL NOT AND SWAP1 DUP4 ISZERO ISZERO MUL OR SWAP1 SSTORE POP PUSH1 0x40 DUP3 ADD MLOAD DUP2 PUSH1 0x1 ADD PUSH0 DUP3 ADD MLOAD DUP2 PUSH0 ADD SWAP1 DUP2 PUSH2 0x5E0 SWAP2 SWAP1 PUSH2 0x185C JUMP JUMPDEST POP PUSH1 0x20 DUP3 ADD MLOAD DUP2 PUSH1 0x1 ADD SSTORE POP POP POP POP PUSH1 0x1 PUSH1 0x2 PUSH0 CALLER PUSH20 0xFFFFFFFFFFFFFFFFFFFFFFFFFFFFFFFFFFFFFFFF AND PUSH20 0xFFFFFFFFFFFFFFFFFFFFFFFFFFFFFFFFFFFFFFFF AND DUP2 MSTORE PUSH1 0x20 ADD SWAP1 DUP2 MSTORE PUSH1 0x20 ADD PUSH0 KECCAK256 PUSH0 PUSH2 0x100 EXP DUP2 SLOAD DUP2 PUSH1 0xFF MUL NOT AND SWAP1 DUP4 ISZERO ISZERO MUL OR SWAP1 SSTORE POP PUSH32 0xEA66F58E474BC09F580000E81F31B334D171DB387D0C6098BA47BD897741679B CALLER DUP5 CALLVALUE PUSH1 0x40 MLOAD PUSH2 0x677 SWAP4 SWAP3 SWAP2 SWAP1 PUSH2 0x192B JUMP JUMPDEST PUSH1 0x40 MLOAD DUP1 SWAP2 SUB SWAP1 LOG1 POP POP POP JUMP JUMPDEST PUSH1 0x2 PUSH1 0x20 MSTORE DUP1 PUSH0 MSTORE PUSH1 0x40 PUSH0 KECCAK256 PUSH0 SWAP2 POP SLOAD SWAP1 PUSH2 0x100 EXP SWAP1 DIV PUSH1 0xFF AND DUP2 JUMP JUMPDEST PUSH1 0x60 PUSH0 DUP1 SLOAD DUP1 PUSH1 0x20 MUL PUSH1 0x20 ADD PUSH1 0x40 MLOAD SWAP1 DUP2 ADD PUSH1 0x40 MSTORE DUP1 SWAP3 SWAP2 SWAP1 DUP2 DUP2 MSTORE PUSH1 0x20 ADD PUSH0 SWAP1 JUMPDEST DUP3 DUP3 LT ISZERO PUSH2 0x78C JUMPI DUP4 DUP3 SWAP1 PUSH0 MSTORE PUSH1 0x20 PUSH0 KECCAK256 SWAP1 PUSH1 0x2 MUL ADD PUSH1 0x40 MLOAD DUP1 PUSH1 0x40 ADD PUSH1 0x40 MSTORE SWAP1 DUP2 PUSH0 DUP3 ADD DUP1 SLOAD PUSH2 0x6F3 SWAP1 PUSH2 0x1662 JUMP JUMPDEST DUP1 PUSH1 0x1F ADD PUSH1 0x20 DUP1 SWAP2 DIV MUL PUSH1 0x20 ADD PUSH1 0x40 MLOAD SWAP1 DUP2 ADD PUSH1 0x40 MSTORE DUP1 SWAP3 SWAP2 SWAP1 DUP2 DUP2 MSTORE PUSH1 0x20 ADD DUP3 DUP1 SLOAD PUSH2 0x71F SWAP1 PUSH2 0x1662 JUMP JUMPDEST DUP1 ISZERO PUSH2 0x76A JUMPI DUP1 PUSH1 0x1F LT PUSH2 0x741 JUMPI PUSH2 0x100 DUP1 DUP4 SLOAD DIV MUL DUP4 MSTORE SWAP2 PUSH1 0x20 ADD SWAP2 PUSH2 0x76A JUMP JUMPDEST DUP3 ADD SWAP2 SWAP1 PUSH0 MSTORE PUSH1 0x20 PUSH0 KECCAK256 SWAP1 JUMPDEST DUP2 SLOAD DUP2 MSTORE SWAP1 PUSH1 0x1 ADD SWAP1 PUSH1 0x20 ADD DUP1 DUP4 GT PUSH2 0x74D JUMPI DUP3 SWAP1 SUB PUSH1 0x1F AND DUP3 ADD SWAP2 JUMPDEST POP POP POP POP POP DUP2 MSTORE PUSH1 0x20 ADD PUSH1 0x1 DUP3 ADD SLOAD DUP2 MSTORE POP POP DUP2 MSTORE PUSH1 0x20 ADD SWAP1 PUSH1 0x1 ADD SWAP1 PUSH2 0x6C3 JUMP JUMPDEST POP POP POP POP SWAP1 POP SWAP1 JUMP JUMPDEST PUSH2 0x79D PUSH2 0xECD JUMP JUMPDEST PUSH0 DUP1 PUSH0 JUMPDEST PUSH0 DUP1 SLOAD SWAP1 POP DUP2 LT ISZERO PUSH2 0x80D JUMPI DUP3 PUSH0 DUP3 DUP2 SLOAD DUP2 LT PUSH2 0x7C1 JUMPI PUSH2 0x7C0 PUSH2 0x15A8 JUMP JUMPDEST JUMPDEST SWAP1 PUSH0 MSTORE PUSH1 0x20 PUSH0 KECCAK256 SWAP1 PUSH1 0x2 MUL ADD PUSH1 0x1 ADD SLOAD GT ISZERO PUSH2 0x800 JUMPI PUSH0 DUP2 DUP2 SLOAD DUP2 LT PUSH2 0x7EA JUMPI PUSH2 0x7E9 PUSH2 0x15A8 JUMP JUMPDEST JUMPDEST SWAP1 PUSH0 MSTORE PUSH1 0x20 PUSH0 KECCAK256 SWAP1 PUSH1 0x2 MUL ADD PUSH1 0x1 ADD SLOAD SWAP3 POP DUP1 SWAP2 POP JUMPDEST DUP1 DUP1 PUSH1 0x1 ADD SWAP2 POP POP PUSH2 0x7A1 JUMP JUMPDEST POP PUSH0 DUP2 DUP2 SLOAD DUP2 LT PUSH2 0x821 JUMPI PUSH2 0x820 PUSH2 0x15A8 JUMP JUMPDEST JUMPDEST SWAP1 PUSH0 MSTORE PUSH1 0x20 PUSH0 KECCAK256 SWAP1 PUSH1 0x2 MUL ADD PUSH1 0x40 MLOAD DUP1 PUSH1 0x40 ADD PUSH1 0x40 MSTORE SWAP1 DUP2 PUSH0 DUP3 ADD DUP1 SLOAD PUSH2 0x847 SWAP1 PUSH2 0x1662 JUMP JUMPDEST DUP1 PUSH1 0x1F ADD PUSH1 0x20 DUP1 SWAP2 DIV MUL PUSH1 0x20 ADD PUSH1 0x40 MLOAD SWAP1 DUP2 ADD PUSH1 0x40 MSTORE DUP1 SWAP3 SWAP2 SWAP1 DUP2 DUP2 MSTORE PUSH1 0x20 ADD DUP3 DUP1 SLOAD PUSH2 0x873 SWAP1 PUSH2 0x1662 JUMP JUMPDEST DUP1 ISZERO PUSH2 0x8BE JUMPI DUP1 PUSH1 0x1F LT PUSH2 0x895 JUMPI PUSH2 0x100 DUP1 DUP4 SLOAD DIV MUL DUP4 MSTORE SWAP2 PUSH1 0x20 ADD SWAP2 PUSH2 0x8BE JUMP JUMPDEST DUP3 ADD SWAP2 SWAP1 PUSH0 MSTORE PUSH1 0x20 PUSH0 KECCAK256 SWAP1 JUMPDEST DUP2 SLOAD DUP2 MSTORE SWAP1 PUSH1 0x1 ADD SWAP1 PUSH1 0x20 ADD DUP1 DUP4 GT PUSH2 0x8A1 JUMPI DUP3 SWAP1 SUB PUSH1 0x1F AND DUP3 ADD SWAP2 JUMPDEST POP POP POP POP POP DUP2 MSTORE PUSH1 0x20 ADD PUSH1 0x1 DUP3 ADD SLOAD DUP2 MSTORE POP POP SWAP3 POP POP POP SWAP1 JUMP JUMPDEST PUSH1 0x3 PUSH1 0x1 SWAP1 SLOAD SWAP1 PUSH2 0x100 EXP SWAP1 DIV PUSH20 0xFFFFFFFFFFFFFFFFFFFFFFFFFFFFFFFFFFFFFFFF AND PUSH20 0xFFFFFFFFFFFFFFFFFFFFFFFFFFFFFFFFFFFFFFFF AND CALLER PUSH20 0xFFFFFFFFFFFFFFFFFFFFFFFFFFFFFFFFFFFFFFFF AND EQ PUSH2 0x968 JUMPI PUSH1 0x40 MLOAD PUSH32 0x8C379A000000000000000000000000000000000000000000000000000000000 DUP2 MSTORE PUSH1 0x4 ADD PUSH2 0x95F SWAP1 PUSH2 0x19AA JUMP JUMPDEST PUSH1 0x40 MLOAD DUP1 SWAP2 SUB SWAP1 REVERT JUMPDEST PUSH1 0x3 PUSH1 0x1 SWAP1 SLOAD SWAP1 PUSH2 0x100 EXP SWAP1 DIV PUSH20 0xFFFFFFFFFFFFFFFFFFFFFFFFFFFFFFFFFFFFFFFF AND PUSH20 0xFFFFFFFFFFFFFFFFFFFFFFFFFFFFFFFFFFFFFFFF AND CALLER PUSH20 0xFFFFFFFFFFFFFFFFFFFFFFFFFFFFFFFFFFFFFFFF AND EQ PUSH2 0x9F8 JUMPI PUSH1 0x40 MLOAD PUSH32 0x8C379A000000000000000000000000000000000000000000000000000000000 DUP2 MSTORE PUSH1 0x4 ADD PUSH2 0x9EF SWAP1 PUSH2 0x1A12 JUMP JUMPDEST PUSH1 0x40 MLOAD DUP1 SWAP2 SUB SWAP1 REVERT JUMPDEST PUSH0 PUSH1 0x3 PUSH0 PUSH2 0x100 EXP DUP2 SLOAD DUP2 PUSH1 0xFF MUL NOT AND SWAP1 DUP4 ISZERO ISZERO MUL OR SWAP1 SSTORE POP JUMP JUMPDEST PUSH1 0x1 DUP2 DUP2 SLOAD DUP2 LT PUSH2 0xA22 JUMPI PUSH0 DUP1 REVERT JUMPDEST SWAP1 PUSH0 MSTORE PUSH1 0x20 PUSH0 KECCAK256 SWAP1 PUSH1 0x3 MUL ADD PUSH0 SWAP2 POP SWAP1 POP DUP1 PUSH0 ADD PUSH0 SWAP1 SLOAD SWAP1 PUSH2 0x100 EXP SWAP1 DIV PUSH20 0xFFFFFFFFFFFFFFFFFFFFFFFFFFFFFFFFFFFFFFFF AND SWAP1 DUP1 PUSH0 ADD PUSH1 0x14 SWAP1 SLOAD SWAP1 PUSH2 0x100 EXP SWAP1 DIV PUSH1 0xFF AND SWAP1 DUP1 PUSH1 0x1 ADD PUSH1 0x40 MLOAD DUP1 PUSH1 0x40 ADD PUSH1 0x40 MSTORE SWAP1 DUP2 PUSH0 DUP3 ADD DUP1 SLOAD PUSH2 0xA87 SWAP1 PUSH2 0x1662 JUMP JUMPDEST DUP1 PUSH1 0x1F ADD PUSH1 0x20 DUP1 SWAP2 DIV MUL PUSH1 0x20 ADD PUSH1 0x40 MLOAD SWAP1 DUP2 ADD PUSH1 0x40 MSTORE DUP1 SWAP3 SWAP2 SWAP1 DUP2 DUP2 MSTORE PUSH1 0x20 ADD DUP3 DUP1 SLOAD PUSH2 0xAB3 SWAP1 PUSH2 0x1662 JUMP JUMPDEST DUP1 ISZERO PUSH2 0xAFE JUMPI DUP1 PUSH1 0x1F LT PUSH2 0xAD5 JUMPI PUSH2 0x100 DUP1 DUP4 SLOAD DIV MUL DUP4 MSTORE SWAP2 PUSH1 0x20 ADD SWAP2 PUSH2 0xAFE JUMP JUMPDEST DUP3 ADD SWAP2 SWAP1 PUSH0 MSTORE PUSH1 0x20 PUSH0 KECCAK256 SWAP1 JUMPDEST DUP2 SLOAD DUP2 MSTORE SWAP1 PUSH1 0x1 ADD SWAP1 PUSH1 0x20 ADD DUP1 DUP4 GT PUSH2 0xAE1 JUMPI DUP3 SWAP1 SUB PUSH1 0x1F AND DUP3 ADD SWAP2 JUMPDEST POP POP POP POP POP DUP2 MSTORE PUSH1 0x20 ADD PUSH1 0x1 DUP3 ADD SLOAD DUP2 MSTORE POP POP SWAP1 POP DUP4 JUMP JUMPDEST PUSH1 0x3 PUSH1 0x1 SWAP1 SLOAD SWAP1 PUSH2 0x100 EXP SWAP1 DIV PUSH20 0xFFFFFFFFFFFFFFFFFFFFFFFFFFFFFFFFFFFFFFFF AND PUSH20 0xFFFFFFFFFFFFFFFFFFFFFFFFFFFFFFFFFFFFFFFF AND CALLER PUSH20 0xFFFFFFFFFFFFFFFFFFFFFFFFFFFFFFFFFFFFFFFF AND EQ PUSH2 0xBA6 JUMPI PUSH1 0x40 MLOAD PUSH32 0x8C379A000000000000000000000000000000000000000000000000000000000 DUP2 MSTORE PUSH1 0x4 ADD PUSH2 0xB9D SWAP1 PUSH2 0x19AA JUMP JUMPDEST PUSH1 0x40 MLOAD DUP1 SWAP2 SUB SWAP1 REVERT JUMPDEST PUSH1 0x3 PUSH1 0x1 SWAP1 SLOAD SWAP1 PUSH2 0x100 EXP SWAP1 DIV PUSH20 0xFFFFFFFFFFFFFFFFFFFFFFFFFFFFFFFFFFFFFFFF AND PUSH20 0xFFFFFFFFFFFFFFFFFFFFFFFFFFFFFFFFFFFFFFFF AND CALLER PUSH20 0xFFFFFFFFFFFFFFFFFFFFFFFFFFFFFFFFFFFFFFFF AND EQ PUSH2 0xC36 JUMPI PUSH1 0x40 MLOAD PUSH32 0x8C379A000000000000000000000000000000000000000000000000000000000 DUP2 MSTORE PUSH1 0x4 ADD PUSH2 0xC2D SWAP1 PUSH2 0x1A7A JUMP JUMPDEST PUSH1 0x40 MLOAD DUP1 SWAP2 SUB SWAP1 REVERT JUMPDEST PUSH1 0x1 PUSH1 0x3 PUSH0 PUSH2 0x100 EXP DUP2 SLOAD DUP2 PUSH1 0xFF MUL NOT AND SWAP1 DUP4 ISZERO ISZERO MUL OR SWAP1 SSTORE POP JUMP JUMPDEST PUSH1 0x3 PUSH0 SWAP1 SLOAD SWAP1 PUSH2 0x100 EXP SWAP1 DIV PUSH1 0xFF AND DUP2 JUMP JUMPDEST PUSH1 0x3 PUSH1 0x1 SWAP1 SLOAD SWAP1 PUSH2 0x100 EXP SWAP1 DIV PUSH20 0xFFFFFFFFFFFFFFFFFFFFFFFFFFFFFFFFFFFFFFFF AND DUP2 JUMP JUMPDEST PUSH20 0xC6E38C428C036A9824CD136137262DF3BEA00B1D DUP2 JUMP JUMPDEST PUSH1 0x60 PUSH1 0x1 DUP1 SLOAD DUP1 PUSH1 0x20 MUL PUSH1 0x20 ADD PUSH1 0x40 MLOAD SWAP1 DUP2 ADD PUSH1 0x40 MSTORE DUP1 SWAP3 SWAP2 SWAP1 DUP2 DUP2 MSTORE PUSH1 0x20 ADD PUSH0 SWAP1 JUMPDEST DUP3 DUP3 LT ISZERO PUSH2 0xE10 JUMPI DUP4 DUP3 SWAP1 PUSH0 MSTORE PUSH1 0x20 PUSH0 KECCAK256 SWAP1 PUSH1 0x3 MUL ADD PUSH1 0x40 MLOAD DUP1 PUSH1 0x60 ADD PUSH1 0x40 MSTORE SWAP1 DUP2 PUSH0 DUP3 ADD PUSH0 SWAP1 SLOAD SWAP1 PUSH2 0x100 EXP SWAP1 DIV PUSH20 0xFFFFFFFFFFFFFFFFFFFFFFFFFFFFFFFFFFFFFFFF AND PUSH20 0xFFFFFFFFFFFFFFFFFFFFFFFFFFFFFFFFFFFFFFFF AND PUSH20 0xFFFFFFFFFFFFFFFFFFFFFFFFFFFFFFFFFFFFFFFF AND DUP2 MSTORE PUSH1 0x20 ADD PUSH0 DUP3 ADD PUSH1 0x14 SWAP1 SLOAD SWAP1 PUSH2 0x100 EXP SWAP1 DIV PUSH1 0xFF AND ISZERO ISZERO ISZERO ISZERO DUP2 MSTORE PUSH1 0x20 ADD PUSH1 0x1 DUP3 ADD PUSH1 0x40 MLOAD DUP1 PUSH1 0x40 ADD PUSH1 0x40 MSTORE SWAP1 DUP2 PUSH0 DUP3 ADD DUP1 SLOAD PUSH2 0xD73 SWAP1 PUSH2 0x1662 JUMP JUMPDEST DUP1 PUSH1 0x1F ADD PUSH1 0x20 DUP1 SWAP2 DIV MUL PUSH1 0x20 ADD PUSH1 0x40 MLOAD SWAP1 DUP2 ADD PUSH1 0x40 MSTORE DUP1 SWAP3 SWAP2 SWAP1 DUP2 DUP2 MSTORE PUSH1 0x20 ADD DUP3 DUP1 SLOAD PUSH2 0xD9F SWAP1 PUSH2 0x1662 JUMP JUMPDEST DUP1 ISZERO PUSH2 0xDEA JUMPI DUP1 PUSH1 0x1F LT PUSH2 0xDC1 JUMPI PUSH2 0x100 DUP1 DUP4 SLOAD DIV MUL DUP4 MSTORE SWAP2 PUSH1 0x20 ADD SWAP2 PUSH2 0xDEA JUMP JUMPDEST DUP3 ADD SWAP2 SWAP1 PUSH0 MSTORE PUSH1 0x20 PUSH0 KECCAK256 SWAP1 JUMPDEST DUP2 SLOAD DUP2 MSTORE SWAP1 PUSH1 0x1 ADD SWAP1 PUSH1 0x20 ADD DUP1 DUP4 GT PUSH2 0xDCD JUMPI DUP3 SWAP1 SUB PUSH1 0x1F AND DUP3 ADD SWAP2 JUMPDEST POP POP POP POP POP DUP2 MSTORE PUSH1 0x20 ADD PUSH1 0x1 DUP3 ADD SLOAD DUP2 MSTORE POP POP DUP2 MSTORE POP POP DUP2 MSTORE PUSH1 0x20 ADD SWAP1 PUSH1 0x1 ADD SWAP1 PUSH2 0xCC5 JUMP JUMPDEST POP POP POP POP SWAP1 POP SWAP1 JUMP JUMPDEST PUSH0 DUP2 DUP2 SLOAD DUP2 LT PUSH2 0xE27 JUMPI PUSH0 DUP1 REVERT JUMPDEST SWAP1 PUSH0 MSTORE PUSH1 0x20 PUSH0 KECCAK256 SWAP1 PUSH1 0x2 MUL ADD PUSH0 SWAP2 POP SWAP1 POP DUP1 PUSH0 ADD DUP1 SLOAD PUSH2 0xE46 SWAP1 PUSH2 0x1662 JUMP JUMPDEST DUP1 PUSH1 0x1F ADD PUSH1 0x20 DUP1 SWAP2 DIV MUL PUSH1 0x20 ADD PUSH1 0x40 MLOAD SWAP1 DUP2 ADD PUSH1 0x40 MSTORE DUP1 SWAP3 SWAP2 SWAP1 DUP2 DUP2 MSTORE PUSH1 0x20 ADD DUP3 DUP1 SLOAD PUSH2 0xE72 SWAP1 PUSH2 0x1662 JUMP JUMPDEST DUP1 ISZERO PUSH2 0xEBD JUMPI DUP1 PUSH1 0x1F LT PUSH2 0xE94 JUMPI PUSH2 0x100 DUP1 DUP4 SLOAD DIV MUL DUP4 MSTORE SWAP2 PUSH1 0x20 ADD SWAP2 PUSH2 0xEBD JUMP JUMPDEST DUP3 ADD SWAP2 SWAP1 PUSH0 MSTORE PUSH1 0x20 PUSH0 KECCAK256 SWAP1 JUMPDEST DUP2 SLOAD DUP2 MSTORE SWAP1 PUSH1 0x1 ADD SWAP1 PUSH1 0x20 ADD DUP1 DUP4 GT PUSH2 0xEA0 JUMPI DUP3 SWAP1 SUB PUSH1 0x1F AND DUP3 ADD SWAP2 JUMPDEST POP POP POP POP POP SWAP1 DUP1 PUSH1 0x1 ADD SLOAD SWAP1 POP DUP3 JUMP JUMPDEST PUSH1 0x40 MLOAD DUP1 PUSH1 0x40 ADD PUSH1 0x40 MSTORE DUP1 PUSH1 0x60 DUP2 MSTORE PUSH1 0x20 ADD PUSH0 DUP2 MSTORE POP SWAP1 JUMP JUMPDEST PUSH0 DUP1 REVERT JUMPDEST PUSH0 DUP2 SWAP1 POP SWAP2 SWAP1 POP JUMP JUMPDEST PUSH2 0xEFC DUP2 PUSH2 0xEEA JUMP JUMPDEST DUP2 EQ PUSH2 0xF06 JUMPI PUSH0 DUP1 REVERT JUMPDEST POP JUMP JUMPDEST PUSH0 DUP2 CALLDATALOAD SWAP1 POP PUSH2 0xF17 DUP2 PUSH2 0xEF3 JUMP JUMPDEST SWAP3 SWAP2 POP POP JUMP JUMPDEST PUSH0 PUSH1 0x20 DUP3 DUP5 SUB SLT ISZERO PUSH2 0xF32 JUMPI PUSH2 0xF31 PUSH2 0xEE6 JUMP JUMPDEST JUMPDEST PUSH0 PUSH2 0xF3F DUP5 DUP3 DUP6 ADD PUSH2 0xF09 JUMP JUMPDEST SWAP2 POP POP SWAP3 SWAP2 POP POP JUMP JUMPDEST PUSH0 PUSH20 0xFFFFFFFFFFFFFFFFFFFFFFFFFFFFFFFFFFFFFFFF DUP3 AND SWAP1 POP SWAP2 SWAP1 POP JUMP JUMPDEST PUSH0 PUSH2 0xF71 DUP3 PUSH2 0xF48 JUMP JUMPDEST SWAP1 POP SWAP2 SWAP1 POP JUMP JUMPDEST PUSH2 0xF81 DUP2 PUSH2 0xF67 JUMP JUMPDEST DUP2 EQ PUSH2 0xF8B JUMPI PUSH0 DUP1 REVERT JUMPDEST POP JUMP JUMPDEST PUSH0 DUP2 CALLDATALOAD SWAP1 POP PUSH2 0xF9C DUP2 PUSH2 0xF78 JUMP JUMPDEST SWAP3 SWAP2 POP POP JUMP JUMPDEST PUSH0 PUSH1 0x20 DUP3 DUP5 SUB SLT ISZERO PUSH2 0xFB7 JUMPI PUSH2 0xFB6 PUSH2 0xEE6 JUMP JUMPDEST JUMPDEST PUSH0 PUSH2 0xFC4 DUP5 DUP3 DUP6 ADD PUSH2 0xF8E JUMP JUMPDEST SWAP2 POP POP SWAP3 SWAP2 POP POP JUMP JUMPDEST PUSH0 DUP2 ISZERO ISZERO SWAP1 POP SWAP2 SWAP1 POP JUMP JUMPDEST PUSH2 0xFE1 DUP2 PUSH2 0xFCD JUMP JUMPDEST DUP3 MSTORE POP POP JUMP JUMPDEST PUSH0 PUSH1 0x20 DUP3 ADD SWAP1 POP PUSH2 0xFFA PUSH0 DUP4 ADD DUP5 PUSH2 0xFD8 JUMP JUMPDEST SWAP3 SWAP2 POP POP JUMP JUMPDEST PUSH0 DUP2 MLOAD SWAP1 POP SWAP2 SWAP1 POP JUMP JUMPDEST PUSH0 DUP3 DUP3 MSTORE PUSH1 0x20 DUP3 ADD SWAP1 POP SWAP3 SWAP2 POP POP JUMP JUMPDEST PUSH0 DUP2 SWAP1 POP PUSH1 0x20 DUP3 ADD SWAP1 POP SWAP2 SWAP1 POP JUMP JUMPDEST PUSH0 DUP2 MLOAD SWAP1 POP SWAP2 SWAP1 POP JUMP JUMPDEST PUSH0 DUP3 DUP3 MSTORE PUSH1 0x20 DUP3 ADD SWAP1 POP SWAP3 SWAP2 POP POP JUMP JUMPDEST PUSH0 JUMPDEST DUP4 DUP2 LT ISZERO PUSH2 0x1060 JUMPI DUP1 DUP3 ADD MLOAD DUP2 DUP5 ADD MSTORE PUSH1 0x20 DUP2 ADD SWAP1 POP PUSH2 0x1045 JUMP JUMPDEST PUSH0 DUP5 DUP5 ADD MSTORE POP POP POP POP JUMP JUMPDEST PUSH0 PUSH1 0x1F NOT PUSH1 0x1F DUP4 ADD AND SWAP1 POP SWAP2 SWAP1 POP JUMP JUMPDEST PUSH0 PUSH2 0x1085 DUP3 PUSH2 0x1029 JUMP JUMPDEST PUSH2 0x108F DUP2 DUP6 PUSH2 0x1033 JUMP JUMPDEST SWAP4 POP PUSH2 0x109F DUP2 DUP6 PUSH1 0x20 DUP7 ADD PUSH2 0x1043 JUMP JUMPDEST PUSH2 0x10A8 DUP2 PUSH2 0x106B JUMP JUMPDEST DUP5 ADD SWAP2 POP POP SWAP3 SWAP2 POP POP JUMP JUMPDEST PUSH2 0x10BC DUP2 PUSH2 0xEEA JUMP JUMPDEST DUP3 MSTORE POP POP JUMP JUMPDEST PUSH0 PUSH1 0x40 DUP4 ADD PUSH0 DUP4 ADD MLOAD DUP5 DUP3 SUB PUSH0 DUP7 ADD MSTORE PUSH2 0x10DC DUP3 DUP3 PUSH2 0x107B JUMP JUMPDEST SWAP2 POP POP PUSH1 0x20 DUP4 ADD MLOAD PUSH2 0x10F1 PUSH1 0x20 DUP7 ADD DUP3 PUSH2 0x10B3 JUMP JUMPDEST POP DUP1 SWAP2 POP POP SWAP3 SWAP2 POP POP JUMP JUMPDEST PUSH0 PUSH2 0x1107 DUP4 DUP4 PUSH2 0x10C2 JUMP JUMPDEST SWAP1 POP SWAP3 SWAP2 POP POP JUMP JUMPDEST PUSH0 PUSH1 0x20 DUP3 ADD SWAP1 POP SWAP2 SWAP1 POP JUMP JUMPDEST PUSH0 PUSH2 0x1125 DUP3 PUSH2 0x1000 JUMP JUMPDEST PUSH2 0x112F DUP2 DUP6 PUSH2 0x100A JUMP JUMPDEST SWAP4 POP DUP4 PUSH1 0x20 DUP3 MUL DUP6 ADD PUSH2 0x1141 DUP6 PUSH2 0x101A JUMP JUMPDEST DUP1 PUSH0 JUMPDEST DUP6 DUP2 LT ISZERO PUSH2 0x117C JUMPI DUP5 DUP5 SUB DUP10 MSTORE DUP2 MLOAD PUSH2 0x115D DUP6 DUP3 PUSH2 0x10FC JUMP JUMPDEST SWAP5 POP PUSH2 0x1168 DUP4 PUSH2 0x110F JUMP JUMPDEST SWAP3 POP PUSH1 0x20 DUP11 ADD SWAP10 POP POP PUSH1 0x1 DUP2 ADD SWAP1 POP PUSH2 0x1144 JUMP JUMPDEST POP DUP3 SWAP8 POP DUP8 SWAP6 POP POP POP POP POP POP SWAP3 SWAP2 POP POP JUMP JUMPDEST PUSH0 PUSH1 0x20 DUP3 ADD SWAP1 POP DUP2 DUP2 SUB PUSH0 DUP4 ADD MSTORE PUSH2 0x11A6 DUP2 DUP5 PUSH2 0x111B JUMP JUMPDEST SWAP1 POP SWAP3 SWAP2 POP POP JUMP JUMPDEST PUSH0 PUSH1 0x40 DUP4 ADD PUSH0 DUP4 ADD MLOAD DUP5 DUP3 SUB PUSH0 DUP7 ADD MSTORE PUSH2 0x11C8 DUP3 DUP3 PUSH2 0x107B JUMP JUMPDEST SWAP2 POP POP PUSH1 0x20 DUP4 ADD MLOAD PUSH2 0x11DD PUSH1 0x20 DUP7 ADD DUP3 PUSH2 0x10B3 JUMP JUMPDEST POP DUP1 SWAP2 POP POP SWAP3 SWAP2 POP POP JUMP JUMPDEST PUSH0 PUSH1 0x20 DUP3 ADD SWAP1 POP DUP2 DUP2 SUB PUSH0 DUP4 ADD MSTORE PUSH2 0x1200 DUP2 DUP5 PUSH2 0x11AE JUMP JUMPDEST SWAP1 POP SWAP3 SWAP2 POP POP JUMP JUMPDEST PUSH2 0x1211 DUP2 PUSH2 0xF67 JUMP JUMPDEST DUP3 MSTORE POP POP JUMP JUMPDEST PUSH0 PUSH1 0x60 DUP3 ADD SWAP1 POP PUSH2 0x122A PUSH0 DUP4 ADD DUP7 PUSH2 0x1208 JUMP JUMPDEST PUSH2 0x1237 PUSH1 0x20 DUP4 ADD DUP6 PUSH2 0xFD8 JUMP JUMPDEST DUP2 DUP2 SUB PUSH1 0x40 DUP4 ADD MSTORE PUSH2 0x1249 DUP2 DUP5 PUSH2 0x11AE JUMP JUMPDEST SWAP1 POP SWAP5 SWAP4 POP POP POP POP JUMP JUMPDEST PUSH0 PUSH1 0x20 DUP3 ADD SWAP1 POP PUSH2 0x1266 PUSH0 DUP4 ADD DUP5 PUSH2 0x1208 JUMP JUMPDEST SWAP3 SWAP2 POP POP JUMP JUMPDEST PUSH0 PUSH2 0x1276 DUP3 PUSH2 0xF48 JUMP JUMPDEST SWAP1 POP SWAP2 SWAP1 POP JUMP JUMPDEST PUSH2 0x1286 DUP2 PUSH2 0x126C JUMP JUMPDEST DUP3 MSTORE POP POP JUMP JUMPDEST PUSH0 PUSH1 0x20 DUP3 ADD SWAP1 POP PUSH2 0x129F PUSH0 DUP4 ADD DUP5 PUSH2 0x127D JUMP JUMPDEST SWAP3 SWAP2 POP POP JUMP JUMPDEST PUSH0 DUP2 MLOAD SWAP1 POP SWAP2 SWAP1 POP JUMP JUMPDEST PUSH0 DUP3 DUP3 MSTORE PUSH1 0x20 DUP3 ADD SWAP1 POP SWAP3 SWAP2 POP POP JUMP JUMPDEST PUSH0 DUP2 SWAP1 POP PUSH1 0x20 DUP3 ADD SWAP1 POP SWAP2 SWAP1 POP JUMP JUMPDEST PUSH2 0x12D7 DUP2 PUSH2 0xF67 JUMP JUMPDEST DUP3 MSTORE POP POP JUMP JUMPDEST PUSH2 0x12E6 DUP2 PUSH2 0xFCD JUMP JUMPDEST DUP3 MSTORE POP POP JUMP JUMPDEST PUSH0 PUSH1 0x60 DUP4 ADD PUSH0 DUP4 ADD MLOAD PUSH2 0x1301 PUSH0 DUP7 ADD DUP3 PUSH2 0x12CE JUMP JUMPDEST POP PUSH1 0x20 DUP4 ADD MLOAD PUSH2 0x1314 PUSH1 0x20 DUP7 ADD DUP3 PUSH2 0x12DD JUMP JUMPDEST POP PUSH1 0x40 DUP4 ADD MLOAD DUP5 DUP3 SUB PUSH1 0x40 DUP7 ADD MSTORE PUSH2 0x132C DUP3 DUP3 PUSH2 0x10C2 JUMP JUMPDEST SWAP2 POP POP DUP1 SWAP2 POP POP SWAP3 SWAP2 POP POP JUMP JUMPDEST PUSH0 PUSH2 0x1344 DUP4 DUP4 PUSH2 0x12EC JUMP JUMPDEST SWAP1 POP SWAP3 SWAP2 POP POP JUMP JUMPDEST PUSH0 PUSH1 0x20 DUP3 ADD SWAP1 POP SWAP2 SWAP1 POP JUMP JUMPDEST PUSH0 PUSH2 0x1362 DUP3 PUSH2 0x12A5 JUMP JUMPDEST PUSH2 0x136C DUP2 DUP6 PUSH2 0x12AF JUMP JUMPDEST SWAP4 POP DUP4 PUSH1 0x20 DUP3 MUL DUP6 ADD PUSH2 0x137E DUP6 PUSH2 0x12BF JUMP JUMPDEST DUP1 PUSH0 JUMPDEST DUP6 DUP2 LT ISZERO PUSH2 0x13B9 JUMPI DUP5 DUP5 SUB DUP10 MSTORE DUP2 MLOAD PUSH2 0x139A DUP6 DUP3 PUSH2 0x1339 JUMP JUMPDEST SWAP5 POP PUSH2 0x13A5 DUP4 PUSH2 0x134C JUMP JUMPDEST SWAP3 POP PUSH1 0x20 DUP11 ADD SWAP10 POP POP PUSH1 0x1 DUP2 ADD SWAP1 POP PUSH2 0x1381 JUMP JUMPDEST POP DUP3 SWAP8 POP DUP8 SWAP6 POP POP POP POP POP POP SWAP3 SWAP2 POP POP JUMP JUMPDEST PUSH0 PUSH1 0x20 DUP3 ADD SWAP1 POP DUP2 DUP2 SUB PUSH0 DUP4 ADD MSTORE PUSH2 0x13E3 DUP2 DUP5 PUSH2 0x1358 JUMP JUMPDEST SWAP1 POP SWAP3 SWAP2 POP POP JUMP JUMPDEST PUSH0 DUP3 DUP3 MSTORE PUSH1 0x20 DUP3 ADD SWAP1 POP SWAP3 SWAP2 POP POP JUMP JUMPDEST PUSH0 PUSH2 0x1405 DUP3 PUSH2 0x1029 JUMP JUMPDEST PUSH2 0x140F DUP2 DUP6 PUSH2 0x13EB JUMP JUMPDEST SWAP4 POP PUSH2 0x141F DUP2 DUP6 PUSH1 0x20 DUP7 ADD PUSH2 0x1043 JUMP JUMPDEST PUSH2 0x1428 DUP2 PUSH2 0x106B JUMP JUMPDEST DUP5 ADD SWAP2 POP POP SWAP3 SWAP2 POP POP JUMP JUMPDEST PUSH2 0x143C DUP2 PUSH2 0xEEA JUMP JUMPDEST DUP3 MSTORE POP POP JUMP JUMPDEST PUSH0 PUSH1 0x40 DUP3 ADD SWAP1 POP DUP2 DUP2 SUB PUSH0 DUP4 ADD MSTORE PUSH2 0x145A DUP2 DUP6 PUSH2 0x13FB JUMP JUMPDEST SWAP1 POP PUSH2 0x1469 PUSH1 0x20 DUP4 ADD DUP5 PUSH2 0x1433 JUMP JUMPDEST SWAP4 SWAP3 POP POP POP JUMP JUMPDEST PUSH32 0x766F74696E6720697320646F6E65000000000000000000000000000000000000 PUSH0 DUP3 ADD MSTORE POP JUMP JUMPDEST PUSH0 PUSH2 0x14A4 PUSH1 0xE DUP4 PUSH2 0x13EB JUMP JUMPDEST SWAP2 POP PUSH2 0x14AF DUP3 PUSH2 0x1470 JUMP JUMPDEST PUSH1 0x20 DUP3 ADD SWAP1 POP SWAP2 SWAP1 POP JUMP JUMPDEST PUSH0 PUSH1 0x20 DUP3 ADD SWAP1 POP DUP2 DUP2 SUB PUSH0 DUP4 ADD MSTORE PUSH2 0x14D1 DUP2 PUSH2 0x1498 JUMP JUMPDEST SWAP1 POP SWAP2 SWAP1 POP JUMP JUMPDEST PUSH32 0x416C726561647920796F7520766F746564000000000000000000000000000000 PUSH0 DUP3 ADD MSTORE POP JUMP JUMPDEST PUSH0 PUSH2 0x150C PUSH1 0x11 DUP4 PUSH2 0x13EB JUMP JUMPDEST SWAP2 POP PUSH2 0x1517 DUP3 PUSH2 0x14D8 JUMP JUMPDEST PUSH1 0x20 DUP3 ADD SWAP1 POP SWAP2 SWAP1 POP JUMP JUMPDEST PUSH0 PUSH1 0x20 DUP3 ADD SWAP1 POP DUP2 DUP2 SUB PUSH0 DUP4 ADD MSTORE PUSH2 0x1539 DUP2 PUSH2 0x1500 JUMP JUMPDEST SWAP1 POP SWAP2 SWAP1 POP JUMP JUMPDEST PUSH32 0x492063616E6E6F742067657420746865206D6F6E657900000000000000000000 PUSH0 DUP3 ADD MSTORE POP JUMP JUMPDEST PUSH0 PUSH2 0x1574 PUSH1 0x16 DUP4 PUSH2 0x13EB JUMP JUMPDEST SWAP2 POP PUSH2 0x157F DUP3 PUSH2 0x1540 JUMP JUMPDEST PUSH1 0x20 DUP3 ADD SWAP1 POP SWAP2 SWAP1 POP JUMP JUMPDEST PUSH0 PUSH1 0x20 DUP3 ADD SWAP1 POP DUP2 DUP2 SUB PUSH0 DUP4 ADD MSTORE PUSH2 0x15A1 DUP2 PUSH2 0x1568 JUMP JUMPDEST SWAP1 POP SWAP2 SWAP1 POP JUMP JUMPDEST PUSH32 0x4E487B7100000000000000000000000000000000000000000000000000000000 PUSH0 MSTORE PUSH1 0x32 PUSH1 0x4 MSTORE PUSH1 0x24 PUSH0 REVERT JUMPDEST PUSH32 0x4E487B7100000000000000000000000000000000000000000000000000000000 PUSH0 MSTORE PUSH1 0x11 PUSH1 0x4 MSTORE PUSH1 0x24 PUSH0 REVERT JUMPDEST PUSH0 PUSH2 0x160C DUP3 PUSH2 0xEEA JUMP JUMPDEST SWAP2 POP PUSH2 0x1617 DUP4 PUSH2 0xEEA JUMP JUMPDEST SWAP3 POP DUP3 DUP3 ADD SWAP1 POP DUP1 DUP3 GT ISZERO PUSH2 0x162F JUMPI PUSH2 0x162E PUSH2 0x15D5 JUMP JUMPDEST JUMPDEST SWAP3 SWAP2 POP POP JUMP JUMPDEST PUSH32 0x4E487B7100000000000000000000000000000000000000000000000000000000 PUSH0 MSTORE PUSH1 0x22 PUSH1 0x4 MSTORE PUSH1 0x24 PUSH0 REVERT JUMPDEST PUSH0 PUSH1 0x2 DUP3 DIV SWAP1 POP PUSH1 0x1 DUP3 AND DUP1 PUSH2 0x1679 JUMPI PUSH1 0x7F DUP3 AND SWAP2 POP JUMPDEST PUSH1 0x20 DUP3 LT DUP2 SUB PUSH2 0x168C JUMPI PUSH2 0x168B PUSH2 0x1635 JUMP JUMPDEST JUMPDEST POP SWAP2 SWAP1 POP JUMP JUMPDEST PUSH32 0x4E487B7100000000000000000000000000000000000000000000000000000000 PUSH0 MSTORE PUSH1 0x41 PUSH1 0x4 MSTORE PUSH1 0x24 PUSH0 REVERT JUMPDEST PUSH0 DUP2 SWAP1 POP DUP2 PUSH0 MSTORE PUSH1 0x20 PUSH0 KECCAK256 SWAP1 POP SWAP2 SWAP1 POP JUMP JUMPDEST PUSH0 PUSH1 0x20 PUSH1 0x1F DUP4 ADD DIV SWAP1 POP SWAP2 SWAP1 POP JUMP JUMPDEST PUSH0 DUP3 DUP3 SHL SWAP1 POP SWAP3 SWAP2 POP POP JUMP JUMPDEST PUSH0 PUSH1 0x8 DUP4 MUL PUSH2 0x171B PUSH32 0xFFFFFFFFFFFFFFFFFFFFFFFFFFFFFFFFFFFFFFFFFFFFFFFFFFFFFFFFFFFFFFFF DUP3 PUSH2 0x16E0 JUMP JUMPDEST PUSH2 0x1725 DUP7 DUP4 PUSH2 0x16E0 JUMP JUMPDEST SWAP6 POP DUP1 NOT DUP5 AND SWAP4 POP DUP1 DUP7 AND DUP5 OR SWAP3 POP POP POP SWAP4 SWAP3 POP POP POP JUMP JUMPDEST PUSH0 DUP2 SWAP1 POP SWAP2 SWAP1 POP JUMP JUMPDEST PUSH0 PUSH2 0x1760 PUSH2 0x175B PUSH2 0x1756 DUP5 PUSH2 0xEEA JUMP JUMPDEST PUSH2 0x173D JUMP JUMPDEST PUSH2 0xEEA JUMP JUMPDEST SWAP1 POP SWAP2 SWAP1 POP JUMP JUMPDEST PUSH0 DUP2 SWAP1 POP SWAP2 SWAP1 POP JUMP JUMPDEST PUSH2 0x1779 DUP4 PUSH2 0x1746 JUMP JUMPDEST PUSH2 0x178D PUSH2 0x1785 DUP3 PUSH2 0x1767 JUMP JUMPDEST DUP5 DUP5 SLOAD PUSH2 0x16EC JUMP JUMPDEST DUP3 SSTORE POP POP POP POP JUMP JUMPDEST PUSH0 SWAP1 JUMP JUMPDEST PUSH2 0x17A1 PUSH2 0x1795 JUMP JUMPDEST PUSH2 0x17AC DUP2 DUP5 DUP5 PUSH2 0x1770 JUMP JUMPDEST POP POP POP JUMP JUMPDEST JUMPDEST DUP2 DUP2 LT ISZERO PUSH2 0x17CF JUMPI PUSH2 0x17C4 PUSH0 DUP3 PUSH2 0x1799 JUMP JUMPDEST PUSH1 0x1 DUP2 ADD SWAP1 POP PUSH2 0x17B2 JUMP JUMPDEST POP POP JUMP JUMPDEST PUSH1 0x1F DUP3 GT ISZERO PUSH2 0x1814 JUMPI PUSH2 0x17E5 DUP2 PUSH2 0x16BF JUMP JUMPDEST PUSH2 0x17EE DUP5 PUSH2 0x16D1 JUMP JUMPDEST DUP2 ADD PUSH1 0x20 DUP6 LT ISZERO PUSH2 0x17FD JUMPI DUP2 SWAP1 POP JUMPDEST PUSH2 0x1811 PUSH2 0x1809 DUP6 PUSH2 0x16D1 JUMP JUMPDEST DUP4 ADD DUP3 PUSH2 0x17B1 JUMP JUMPDEST POP POP JUMPDEST POP POP POP JUMP JUMPDEST PUSH0 DUP3 DUP3 SHR SWAP1 POP SWAP3 SWAP2 POP POP JUMP JUMPDEST PUSH0 PUSH2 0x1834 PUSH0 NOT DUP5 PUSH1 0x8 MUL PUSH2 0x1819 JUMP JUMPDEST NOT DUP1 DUP4 AND SWAP2 POP POP SWAP3 SWAP2 POP POP JUMP JUMPDEST PUSH0 PUSH2 0x184C DUP4 DUP4 PUSH2 0x1825 JUMP JUMPDEST SWAP2 POP DUP3 PUSH1 0x2 MUL DUP3 OR SWAP1 POP SWAP3 SWAP2 POP POP JUMP JUMPDEST PUSH2 0x1865 DUP3 PUSH2 0x1029 JUMP JUMPDEST PUSH8 0xFFFFFFFFFFFFFFFF DUP2 GT ISZERO PUSH2 0x187E JUMPI PUSH2 0x187D PUSH2 0x1692 JUMP JUMPDEST JUMPDEST PUSH2 0x1888 DUP3 SLOAD PUSH2 0x1662 JUMP JUMPDEST PUSH2 0x1893 DUP3 DUP3 DUP6 PUSH2 0x17D3 JUMP JUMPDEST PUSH0 PUSH1 0x20 SWAP1 POP PUSH1 0x1F DUP4 GT PUSH1 0x1 DUP2 EQ PUSH2 0x18C4 JUMPI PUSH0 DUP5 ISZERO PUSH2 0x18B2 JUMPI DUP3 DUP8 ADD MLOAD SWAP1 POP JUMPDEST PUSH2 0x18BC DUP6 DUP3 PUSH2 0x1841 JUMP JUMPDEST DUP7 SSTORE POP PUSH2 0x1923 JUMP JUMPDEST PUSH1 0x1F NOT DUP5 AND PUSH2 0x18D2 DUP7 PUSH2 0x16BF JUMP JUMPDEST PUSH0 JUMPDEST DUP3 DUP2 LT ISZERO PUSH2 0x18F9 JUMPI DUP5 DUP10 ADD MLOAD DUP3 SSTORE PUSH1 0x1 DUP3 ADD SWAP2 POP PUSH1 0x20 DUP6 ADD SWAP5 POP PUSH1 0x20 DUP2 ADD SWAP1 POP PUSH2 0x18D4 JUMP JUMPDEST DUP7 DUP4 LT ISZERO PUSH2 0x1916 JUMPI DUP5 DUP10 ADD MLOAD PUSH2 0x1912 PUSH1 0x1F DUP10 AND DUP3 PUSH2 0x1825 JUMP JUMPDEST DUP4 SSTORE POP JUMPDEST PUSH1 0x1 PUSH1 0x2 DUP9 MUL ADD DUP9 SSTORE POP POP POP JUMPDEST POP POP POP POP POP POP JUMP JUMPDEST PUSH0 PUSH1 0x60 DUP3 ADD SWAP1 POP PUSH2 0x193E PUSH0 DUP4 ADD DUP7 PUSH2 0x1208 JUMP JUMPDEST PUSH2 0x194B PUSH1 0x20 DUP4 ADD DUP6 PUSH2 0x1433 JUMP JUMPDEST PUSH2 0x1958 PUSH1 0x40 DUP4 ADD DUP5 PUSH2 0x1433 JUMP JUMPDEST SWAP5 SWAP4 POP POP POP POP JUMP JUMPDEST PUSH32 0x49742773206E6F74206F776E6572206164647265737300000000000000000000 PUSH0 DUP3 ADD MSTORE POP JUMP JUMPDEST PUSH0 PUSH2 0x1994 PUSH1 0x16 DUP4 PUSH2 0x13EB JUMP JUMPDEST SWAP2 POP PUSH2 0x199F DUP3 PUSH2 0x1960 JUMP JUMPDEST PUSH1 0x20 DUP3 ADD SWAP1 POP SWAP2 SWAP1 POP JUMP JUMPDEST PUSH0 PUSH1 0x20 DUP3 ADD SWAP1 POP DUP2 DUP2 SUB PUSH0 DUP4 ADD MSTORE PUSH2 0x19C1 DUP2 PUSH2 0x1988 JUMP JUMPDEST SWAP1 POP SWAP2 SWAP1 POP JUMP JUMPDEST PUSH32 0x596F7520617265206E6F74206F776E6572000000000000000000000000000000 PUSH0 DUP3 ADD MSTORE POP JUMP JUMPDEST PUSH0 PUSH2 0x19FC PUSH1 0x11 DUP4 PUSH2 0x13EB JUMP JUMPDEST SWAP2 POP PUSH2 0x1A07 DUP3 PUSH2 0x19C8 JUMP JUMPDEST PUSH1 0x20 DUP3 ADD SWAP1 POP SWAP2 SWAP1 POP JUMP JUMPDEST PUSH0 PUSH1 0x20 DUP3 ADD SWAP1 POP DUP2 DUP2 SUB PUSH0 DUP4 ADD MSTORE PUSH2 0x1A29 DUP2 PUSH2 0x19F0 JUMP JUMPDEST SWAP1 POP SWAP2 SWAP1 POP JUMP JUMPDEST PUSH32 0x796F7520617265206E6F74206F776E6572000000000000000000000000000000 PUSH0 DUP3 ADD MSTORE POP JUMP JUMPDEST PUSH0 PUSH2 0x1A64 PUSH1 0x11 DUP4 PUSH2 0x13EB JUMP JUMPDEST SWAP2 POP PUSH2 0x1A6F DUP3 PUSH2 0x1A30 JUMP JUMPDEST PUSH1 0x20 DUP3 ADD SWAP1 POP SWAP2 SWAP1 POP JUMP JUMPDEST PUSH0 PUSH1 0x20 DUP3 ADD SWAP1 POP DUP2 DUP2 SUB PUSH0 DUP4 ADD MSTORE PUSH2 0x1A91 DUP2 PUSH2 0x1A58 JUMP JUMPDEST SWAP1 POP SWAP2 SWAP1 POP JUMP INVALID LOG2 PUSH5 0x6970667358 0x22 SLT KECCAK256 CALL 0xE1 0xA9 CALLDATALOAD PUSH29 0xF8F0FCB58B45775BEA3B5ED8706D08EF846B161850639B1C9B37416473 PUSH16 0x6C634300081800330000000000000000 "
				},
				"gasEstimates": {
					"creation": {
						"codeDepositCost": "1372400",
						"executionCost": "infinite",
						"totalCost": "infinite"
					},
					"external": {
						"": "217",
						"finishVote()": "28937",
						"getAllPlaces()": "infinite",
						"getAllUsers()": "infinite",
						"getWinnerPlace()": "infinite",
						"hasVoted(address)": "2856",
						"isVoteActive()": "2488",
						"moneyAddress()": "439",
						"owner()": "2603",
						"places(uint256)": "infinite",
						"startVote()": "28849",
						"users(uint256)": "infinite",
						"vote(uint256)": "infinite"
					}
				},
				"methodIdentifiers": {
					"finishVote()": "2aebcbb6",
					"getAllPlaces()": "133fd549",
					"getAllUsers()": "e2842d79",
					"getWinnerPlace()": "1b75f594",
					"hasVoted(address)": "09eef43e",
					"isVoteActive()": "746cd2ec",
					"moneyAddress()": "a580b195",
					"owner()": "8da5cb5b",
					"places(uint256)": "e557bb4e",
					"startVote()": "4c0a6af0",
					"users(uint256)": "365b98b2",
					"vote(uint256)": "0121b93f"
				}
			},
			"storageLayout": {
				"storage": [
					{
						"astId": 24,
						"contract": "vote.sol:VotePlaces",
						"label": "places",
						"offset": 0,
						"slot": "0",
						"type": "t_array(t_struct(Place)12_storage)dyn_storage"
					},
					{
						"astId": 28,
						"contract": "vote.sol:VotePlaces",
						"label": "users",
						"offset": 0,
						"slot": "1",
						"type": "t_array(t_struct(User)20_storage)dyn_storage"
					},
					{
						"astId": 32,
						"contract": "vote.sol:VotePlaces",
						"label": "hasVoted",
						"offset": 0,
						"slot": "2",
						"type": "t_mapping(t_address,t_bool)"
					},
					{
						"astId": 34,
						"contract": "vote.sol:VotePlaces",
						"label": "isVoteActive",
						"offset": 0,
						"slot": "3",
						"type": "t_bool"
					},
					{
						"astId": 36,
						"contract": "vote.sol:VotePlaces",
						"label": "owner",
						"offset": 1,
						"slot": "3",
						"type": "t_address"
					}
				],
				"types": {
					"t_address": {
						"encoding": "inplace",
						"label": "address",
						"numberOfBytes": "20"
					},
					"t_array(t_struct(Place)12_storage)dyn_storage": {
						"base": "t_struct(Place)12_storage",
						"encoding": "dynamic_array",
						"label": "struct VotePlaces.Place[]",
						"numberOfBytes": "32"
					},
					"t_array(t_struct(User)20_storage)dyn_storage": {
						"base": "t_struct(User)20_storage",
						"encoding": "dynamic_array",
						"label": "struct VotePlaces.User[]",
						"numberOfBytes": "32"
					},
					"t_bool": {
						"encoding": "inplace",
						"label": "bool",
						"numberOfBytes": "1"
					},
					"t_mapping(t_address,t_bool)": {
						"encoding": "mapping",
						"key": "t_address",
						"label": "mapping(address => bool)",
						"numberOfBytes": "32",
						"value": "t_bool"
					},
					"t_string_storage": {
						"encoding": "bytes",
						"label": "string",
						"numberOfBytes": "32"
					},
					"t_struct(Place)12_storage": {
						"encoding": "inplace",
						"label": "struct VotePlaces.Place",
						"members": [
							{
								"astId": 9,
								"contract": "vote.sol:VotePlaces",
								"label": "name",
								"offset": 0,
								"slot": "0",
								"type": "t_string_storage"
							},
							{
								"astId": 11,
								"contract": "vote.sol:VotePlaces",
								"label": "voteNumber",
								"offset": 0,
								"slot": "1",
								"type": "t_uint256"
							}
						],
						"numberOfBytes": "64"
					},
					"t_struct(User)20_storage": {
						"encoding": "inplace",
						"label": "struct VotePlaces.User",
						"members": [
							{
								"astId": 14,
								"contract": "vote.sol:VotePlaces",
								"label": "userAddress",
								"offset": 0,
								"slot": "0",
								"type": "t_address"
							},
							{
								"astId": 16,
								"contract": "vote.sol:VotePlaces",
								"label": "hasVoted",
								"offset": 20,
								"slot": "0",
								"type": "t_bool"
							},
							{
								"astId": 19,
								"contract": "vote.sol:VotePlaces",
								"label": "votedPlace",
								"offset": 0,
								"slot": "1",
								"type": "t_struct(Place)12_storage"
							}
						],
						"numberOfBytes": "96"
					},
					"t_uint256": {
						"encoding": "inplace",
						"label": "uint256",
						"numberOfBytes": "32"
					}
				}
			},
			"userdoc": {
				"kind": "user",
				"methods": {},
				"version": 1
			}
		}
	}
}